{
	"VotingApplication/src/Contract.sol": {
		"Voting": {
			"abi": [
				{
					"inputs": [
						{
							"internalType": "string[]",
							"name": "_candidatesNames",
							"type": "string[]"
						}
					],
					"stateMutability": "nonpayable",
					"type": "constructor"
				},
				{
					"inputs": [
						{
							"internalType": "address",
							"name": "owner",
							"type": "address"
						}
					],
					"name": "OwnableInvalidOwner",
					"type": "error"
				},
				{
					"inputs": [
						{
							"internalType": "address",
							"name": "account",
							"type": "address"
						}
					],
					"name": "OwnableUnauthorizedAccount",
					"type": "error"
				},
				{
					"anonymous": false,
					"inputs": [
						{
							"indexed": true,
							"internalType": "address",
							"name": "previousOwner",
							"type": "address"
						},
						{
							"indexed": true,
							"internalType": "address",
							"name": "newOwner",
							"type": "address"
						}
					],
					"name": "OwnershipTransferred",
					"type": "event"
				},
				{
					"inputs": [
						{
							"internalType": "string[]",
							"name": "_candidatesNames",
							"type": "string[]"
						}
					],
					"name": "addCandidates",
					"outputs": [],
					"stateMutability": "nonpayable",
					"type": "function"
				},
				{
					"inputs": [
						{
							"internalType": "uint256",
							"name": "",
							"type": "uint256"
						}
					],
					"name": "candidates",
					"outputs": [
						{
							"internalType": "string",
							"name": "name",
							"type": "string"
						},
						{
							"internalType": "uint256",
							"name": "voteCount",
							"type": "uint256"
						}
					],
					"stateMutability": "view",
					"type": "function"
				},
				{
					"inputs": [],
					"name": "getCandidates",
					"outputs": [
						{
							"components": [
								{
									"internalType": "string",
									"name": "name",
									"type": "string"
								},
								{
									"internalType": "uint256",
									"name": "voteCount",
									"type": "uint256"
								}
							],
							"internalType": "struct Voting.Candidate[]",
							"name": "",
							"type": "tuple[]"
						}
					],
					"stateMutability": "view",
					"type": "function"
				},
				{
					"inputs": [],
					"name": "getRemainingTime",
					"outputs": [
						{
							"internalType": "uint256",
							"name": "",
							"type": "uint256"
						}
					],
					"stateMutability": "view",
					"type": "function"
				},
				{
					"inputs": [],
					"name": "owner",
					"outputs": [
						{
							"internalType": "address",
							"name": "",
							"type": "address"
						}
					],
					"stateMutability": "view",
					"type": "function"
				},
				{
					"inputs": [
						{
							"internalType": "uint256",
							"name": "_index",
							"type": "uint256"
						}
					],
					"name": "removeCandidate",
					"outputs": [],
					"stateMutability": "nonpayable",
					"type": "function"
				},
				{
					"inputs": [],
					"name": "renounceOwnership",
					"outputs": [],
					"stateMutability": "nonpayable",
					"type": "function"
				},
				{
					"inputs": [
						{
							"internalType": "uint256",
							"name": "_votingDuration",
							"type": "uint256"
						}
					],
					"name": "startVoting",
					"outputs": [],
					"stateMutability": "nonpayable",
					"type": "function"
				},
				{
					"inputs": [
						{
							"internalType": "address",
							"name": "newOwner",
							"type": "address"
						}
					],
					"name": "transferOwnership",
					"outputs": [],
					"stateMutability": "nonpayable",
					"type": "function"
				},
				{
					"inputs": [
						{
							"internalType": "uint256",
							"name": "_candidateIndex",
							"type": "uint256"
						}
					],
					"name": "vote",
					"outputs": [],
					"stateMutability": "nonpayable",
					"type": "function"
				},
				{
					"inputs": [
						{
							"internalType": "address",
							"name": "",
							"type": "address"
						}
					],
					"name": "voters",
					"outputs": [
						{
							"internalType": "bool",
							"name": "",
							"type": "bool"
						}
					],
					"stateMutability": "view",
					"type": "function"
				},
				{
					"inputs": [],
					"name": "votingEnd",
					"outputs": [
						{
							"internalType": "uint256",
							"name": "",
							"type": "uint256"
						}
					],
					"stateMutability": "view",
					"type": "function"
				},
				{
					"inputs": [],
					"name": "votingStart",
					"outputs": [
						{
							"internalType": "uint256",
							"name": "",
							"type": "uint256"
						}
					],
					"stateMutability": "view",
					"type": "function"
				}
			],
			"devdoc": {
				"errors": {
					"OwnableInvalidOwner(address)": [
						{
							"details": "The owner is not a valid owner account. (eg. `address(0)`)"
						}
					],
					"OwnableUnauthorizedAccount(address)": [
						{
							"details": "The caller account is not authorized to perform an operation."
						}
					]
				},
				"kind": "dev",
				"methods": {
					"owner()": {
						"details": "Returns the address of the current owner."
					},
					"renounceOwnership()": {
						"details": "Leaves the contract without owner. It will not be possible to call `onlyOwner` functions. Can only be called by the current owner. NOTE: Renouncing ownership will leave the contract without an owner, thereby disabling any functionality that is only available to the owner."
					},
					"transferOwnership(address)": {
						"details": "Transfers ownership of the contract to a new account (`newOwner`). Can only be called by the current owner."
					}
				},
				"version": 1
			},
			"evm": {
				"assembly": "    /* \"VotingApplication/src/Contract.sol\":134:2215  contract Voting is Ownable { ... */\n  mstore(0x40, 0x80)\n    /* \"VotingApplication/src/Contract.sol\":407:721  constructor(string[] memory _candidatesNames) Ownable(msg.sender) {... */\n  callvalue\n  dup1\n  iszero\n  tag_1\n  jumpi\n  revert(0x00, 0x00)\ntag_1:\n  pop\n  mload(0x40)\n  sub(codesize, bytecodeSize)\n  dup1\n  bytecodeSize\n  dup4\n  codecopy\n  dup2\n  dup2\n  add\n  0x40\n  mstore\n  dup2\n  add\n  swap1\n  tag_2\n  swap2\n  swap1\n  tag_3\n  jump\t// in\ntag_2:\n    /* \"VotingApplication/src/Contract.sol\":461:471  msg.sender */\n  caller\n    /* \"VotingApplication/lib/openzeppelin-contracts/contracts/access/Ownable.sol\":1297:1298  0 */\n  0x00\n    /* \"VotingApplication/lib/openzeppelin-contracts/contracts/access/Ownable.sol\":1273:1299  initialOwner == address(0) */\n  0xffffffffffffffffffffffffffffffffffffffff\n  and\n    /* \"VotingApplication/lib/openzeppelin-contracts/contracts/access/Ownable.sol\":1273:1285  initialOwner */\n  dup2\n    /* \"VotingApplication/lib/openzeppelin-contracts/contracts/access/Ownable.sol\":1273:1299  initialOwner == address(0) */\n  0xffffffffffffffffffffffffffffffffffffffff\n  and\n  sub\n    /* \"VotingApplication/lib/openzeppelin-contracts/contracts/access/Ownable.sol\":1269:1364  if (initialOwner == address(0)) {... */\n  tag_7\n  jumpi\n    /* \"VotingApplication/lib/openzeppelin-contracts/contracts/access/Ownable.sol\":1350:1351  0 */\n  0x00\n    /* \"VotingApplication/lib/openzeppelin-contracts/contracts/access/Ownable.sol\":1322:1353  OwnableInvalidOwner(address(0)) */\n  mload(0x40)\n  0x1e4fbdf700000000000000000000000000000000000000000000000000000000\n  dup2\n  mstore\n  0x04\n  add\n  tag_8\n  swap2\n  swap1\n  tag_9\n  jump\t// in\ntag_8:\n  mload(0x40)\n  dup1\n  swap2\n  sub\n  swap1\n  revert\n    /* \"VotingApplication/lib/openzeppelin-contracts/contracts/access/Ownable.sol\":1269:1364  if (initialOwner == address(0)) {... */\ntag_7:\n    /* \"VotingApplication/lib/openzeppelin-contracts/contracts/access/Ownable.sol\":1373:1405  _transferOwnership(initialOwner) */\n  tag_10\n    /* \"VotingApplication/lib/openzeppelin-contracts/contracts/access/Ownable.sol\":1392:1404  initialOwner */\n  dup2\n    /* \"VotingApplication/lib/openzeppelin-contracts/contracts/access/Ownable.sol\":1373:1391  _transferOwnership */\n  shl(0x20, tag_11)\n    /* \"VotingApplication/lib/openzeppelin-contracts/contracts/access/Ownable.sol\":1373:1405  _transferOwnership(initialOwner) */\n  0x20\n  shr\n  jump\t// in\ntag_10:\n    /* \"VotingApplication/lib/openzeppelin-contracts/contracts/access/Ownable.sol\":1225:1412  constructor(address initialOwner) {... */\n  pop\n    /* \"VotingApplication/src/Contract.sol\":499:509  msg.sender */\n  caller\n    /* \"VotingApplication/src/Contract.sol\":483:496  contractOwner */\n  0x02\n  0x00\n    /* \"VotingApplication/src/Contract.sol\":483:509  contractOwner = msg.sender */\n  0x0100\n  exp\n  dup2\n  sload\n  dup2\n  0xffffffffffffffffffffffffffffffffffffffff\n  mul\n  not\n  and\n  swap1\n  dup4\n  0xffffffffffffffffffffffffffffffffffffffff\n  and\n  mul\n  or\n  swap1\n  sstore\n  pop\n    /* \"VotingApplication/src/Contract.sol\":532:538  uint i */\n  0x00\n    /* \"VotingApplication/src/Contract.sol\":539:540  0 */\n  0x00\n    /* \"VotingApplication/src/Contract.sol\":532:540  uint i=0 */\n  swap1\n  pop\n    /* \"VotingApplication/src/Contract.sol\":528:714  for(uint i=0; i<_candidatesNames.length; i++) {... */\ntag_13:\n    /* \"VotingApplication/src/Contract.sol\":544:560  _candidatesNames */\n  dup2\n    /* \"VotingApplication/src/Contract.sol\":544:567  _candidatesNames.length */\n  mload\n    /* \"VotingApplication/src/Contract.sol\":542:543  i */\n  dup2\n    /* \"VotingApplication/src/Contract.sol\":542:567  i<_candidatesNames.length */\n  lt\n    /* \"VotingApplication/src/Contract.sol\":528:714  for(uint i=0; i<_candidatesNames.length; i++) {... */\n  iszero\n  tag_14\n  jumpi\n    /* \"VotingApplication/src/Contract.sol\":588:598  candidates */\n  0x01\n    /* \"VotingApplication/src/Contract.sol\":604:702  Candidate({... */\n  mload(0x40)\n  dup1\n  0x40\n  add\n  0x40\n  mstore\n  dup1\n    /* \"VotingApplication/src/Contract.sol\":638:654  _candidatesNames */\n  dup5\n    /* \"VotingApplication/src/Contract.sol\":655:656  i */\n  dup5\n    /* \"VotingApplication/src/Contract.sol\":638:657  _candidatesNames[i] */\n  dup2\n  mload\n  dup2\n  lt\n  tag_16\n  jumpi\n  tag_17\n  tag_18\n  jump\t// in\ntag_17:\ntag_16:\n  0x20\n  mul\n  0x20\n  add\n  add\n  mload\n    /* \"VotingApplication/src/Contract.sol\":604:702  Candidate({... */\n  dup2\n  mstore\n  0x20\n  add\n    /* \"VotingApplication/src/Contract.sol\":686:687  0 */\n  0x00\n    /* \"VotingApplication/src/Contract.sol\":604:702  Candidate({... */\n  dup2\n  mstore\n  pop\n    /* \"VotingApplication/src/Contract.sol\":588:703  candidates.push(Candidate({... */\n  swap1\n  dup1\n  0x01\n  dup2\n  sload\n  add\n  dup1\n  dup3\n  sstore\n  dup1\n  swap2\n  pop\n  pop\n  0x01\n  swap1\n  sub\n  swap1\n  0x00\n  mstore\n  keccak256(0x00, 0x20)\n  swap1\n  0x02\n  mul\n  add\n  0x00\n  swap1\n  swap2\n  swap1\n  swap2\n  swap1\n  swap2\n  pop\n  0x00\n  dup3\n  add\n  mload\n  dup2\n  0x00\n  add\n  swap1\n  dup2\n  tag_20\n  swap2\n  swap1\n  tag_21\n  jump\t// in\ntag_20:\n  pop\n  0x20\n  dup3\n  add\n  mload\n  dup2\n  0x01\n  add\n  sstore\n  pop\n  pop\n    /* \"VotingApplication/src/Contract.sol\":569:572  i++ */\n  dup1\n  dup1\n  0x01\n  add\n  swap2\n  pop\n  pop\n    /* \"VotingApplication/src/Contract.sol\":528:714  for(uint i=0; i<_candidatesNames.length; i++) {... */\n  jump(tag_13)\ntag_14:\n  pop\n    /* \"VotingApplication/src/Contract.sol\":407:721  constructor(string[] memory _candidatesNames) Ownable(msg.sender) {... */\n  pop\n    /* \"VotingApplication/src/Contract.sol\":134:2215  contract Voting is Ownable { ... */\n  jump(tag_22)\n    /* \"VotingApplication/lib/openzeppelin-contracts/contracts/access/Ownable.sol\":2912:3099  function _transferOwnership(address newOwner) internal virtual {... */\ntag_11:\n    /* \"VotingApplication/lib/openzeppelin-contracts/contracts/access/Ownable.sol\":2985:3001  address oldOwner */\n  0x00\n    /* \"VotingApplication/lib/openzeppelin-contracts/contracts/access/Ownable.sol\":3004:3010  _owner */\n  0x00\n  0x00\n  swap1\n  sload\n  swap1\n  0x0100\n  exp\n  swap1\n  div\n  0xffffffffffffffffffffffffffffffffffffffff\n  and\n    /* \"VotingApplication/lib/openzeppelin-contracts/contracts/access/Ownable.sol\":2985:3010  address oldOwner = _owner */\n  swap1\n  pop\n    /* \"VotingApplication/lib/openzeppelin-contracts/contracts/access/Ownable.sol\":3029:3037  newOwner */\n  dup2\n    /* \"VotingApplication/lib/openzeppelin-contracts/contracts/access/Ownable.sol\":3020:3026  _owner */\n  0x00\n  0x00\n    /* \"VotingApplication/lib/openzeppelin-contracts/contracts/access/Ownable.sol\":3020:3037  _owner = newOwner */\n  0x0100\n  exp\n  dup2\n  sload\n  dup2\n  0xffffffffffffffffffffffffffffffffffffffff\n  mul\n  not\n  and\n  swap1\n  dup4\n  0xffffffffffffffffffffffffffffffffffffffff\n  and\n  mul\n  or\n  swap1\n  sstore\n  pop\n    /* \"VotingApplication/lib/openzeppelin-contracts/contracts/access/Ownable.sol\":3083:3091  newOwner */\n  dup2\n    /* \"VotingApplication/lib/openzeppelin-contracts/contracts/access/Ownable.sol\":3052:3092  OwnershipTransferred(oldOwner, newOwner) */\n  0xffffffffffffffffffffffffffffffffffffffff\n  and\n    /* \"VotingApplication/lib/openzeppelin-contracts/contracts/access/Ownable.sol\":3073:3081  oldOwner */\n  dup2\n    /* \"VotingApplication/lib/openzeppelin-contracts/contracts/access/Ownable.sol\":3052:3092  OwnershipTransferred(oldOwner, newOwner) */\n  0xffffffffffffffffffffffffffffffffffffffff\n  and\n  0x8be0079c531659141344cd1fd0a4f28419497f9722a3daafe3b4186f6b6457e0\n  mload(0x40)\n  mload(0x40)\n  dup1\n  swap2\n  sub\n  swap1\n  log3\n    /* \"VotingApplication/lib/openzeppelin-contracts/contracts/access/Ownable.sol\":2975:3099  {... */\n  pop\n    /* \"VotingApplication/lib/openzeppelin-contracts/contracts/access/Ownable.sol\":2912:3099  function _transferOwnership(address newOwner) internal virtual {... */\n  pop\n  jump\t// out\n    /* \"#utility.yul\":7:82   */\ntag_24:\n    /* \"#utility.yul\":40:46   */\n  0x00\n    /* \"#utility.yul\":73:75   */\n  0x40\n    /* \"#utility.yul\":67:76   */\n  mload\n    /* \"#utility.yul\":57:76   */\n  swap1\n  pop\n    /* \"#utility.yul\":7:82   */\n  swap1\n  jump\t// out\n    /* \"#utility.yul\":88:205   */\ntag_25:\n    /* \"#utility.yul\":197:198   */\n  0x00\n    /* \"#utility.yul\":194:195   */\n  0x00\n    /* \"#utility.yul\":187:199   */\n  revert\n    /* \"#utility.yul\":211:328   */\ntag_26:\n    /* \"#utility.yul\":320:321   */\n  0x00\n    /* \"#utility.yul\":317:318   */\n  0x00\n    /* \"#utility.yul\":310:322   */\n  revert\n    /* \"#utility.yul\":334:451   */\ntag_27:\n    /* \"#utility.yul\":443:444   */\n  0x00\n    /* \"#utility.yul\":440:441   */\n  0x00\n    /* \"#utility.yul\":433:445   */\n  revert\n    /* \"#utility.yul\":457:559   */\ntag_28:\n    /* \"#utility.yul\":498:504   */\n  0x00\n    /* \"#utility.yul\":549:551   */\n  0x1f\n    /* \"#utility.yul\":545:552   */\n  not\n    /* \"#utility.yul\":540:542   */\n  0x1f\n    /* \"#utility.yul\":533:538   */\n  dup4\n    /* \"#utility.yul\":529:543   */\n  add\n    /* \"#utility.yul\":525:553   */\n  and\n    /* \"#utility.yul\":515:553   */\n  swap1\n  pop\n    /* \"#utility.yul\":457:559   */\n  swap2\n  swap1\n  pop\n  jump\t// out\n    /* \"#utility.yul\":565:745   */\ntag_29:\n    /* \"#utility.yul\":613:690   */\n  0x4e487b7100000000000000000000000000000000000000000000000000000000\n    /* \"#utility.yul\":610:611   */\n  0x00\n    /* \"#utility.yul\":603:691   */\n  mstore\n    /* \"#utility.yul\":710:714   */\n  0x41\n    /* \"#utility.yul\":707:708   */\n  0x04\n    /* \"#utility.yul\":700:715   */\n  mstore\n    /* \"#utility.yul\":734:738   */\n  0x24\n    /* \"#utility.yul\":731:732   */\n  0x00\n    /* \"#utility.yul\":724:739   */\n  revert\n    /* \"#utility.yul\":751:1032   */\ntag_30:\n    /* \"#utility.yul\":834:861   */\n  tag_71\n    /* \"#utility.yul\":856:860   */\n  dup3\n    /* \"#utility.yul\":834:861   */\n  tag_28\n  jump\t// in\ntag_71:\n    /* \"#utility.yul\":826:832   */\n  dup2\n    /* \"#utility.yul\":822:862   */\n  add\n    /* \"#utility.yul\":964:970   */\n  dup2\n    /* \"#utility.yul\":952:962   */\n  dup2\n    /* \"#utility.yul\":949:971   */\n  lt\n    /* \"#utility.yul\":928:946   */\n  0xffffffffffffffff\n    /* \"#utility.yul\":916:926   */\n  dup3\n    /* \"#utility.yul\":913:947   */\n  gt\n    /* \"#utility.yul\":910:972   */\n  or\n    /* \"#utility.yul\":907:995   */\n  iszero\n  tag_72\n  jumpi\n    /* \"#utility.yul\":975:993   */\n  tag_73\n  tag_29\n  jump\t// in\ntag_73:\n    /* \"#utility.yul\":907:995   */\ntag_72:\n    /* \"#utility.yul\":1015:1025   */\n  dup1\n    /* \"#utility.yul\":1011:1013   */\n  0x40\n    /* \"#utility.yul\":1004:1026   */\n  mstore\n    /* \"#utility.yul\":794:1032   */\n  pop\n    /* \"#utility.yul\":751:1032   */\n  pop\n  pop\n  jump\t// out\n    /* \"#utility.yul\":1038:1167   */\ntag_31:\n    /* \"#utility.yul\":1072:1078   */\n  0x00\n    /* \"#utility.yul\":1099:1119   */\n  tag_75\n  tag_24\n  jump\t// in\ntag_75:\n    /* \"#utility.yul\":1089:1119   */\n  swap1\n  pop\n    /* \"#utility.yul\":1128:1161   */\n  tag_76\n    /* \"#utility.yul\":1156:1160   */\n  dup3\n    /* \"#utility.yul\":1148:1154   */\n  dup3\n    /* \"#utility.yul\":1128:1161   */\n  tag_30\n  jump\t// in\ntag_76:\n    /* \"#utility.yul\":1038:1167   */\n  swap2\n  swap1\n  pop\n  jump\t// out\n    /* \"#utility.yul\":1173:1494   */\ntag_32:\n    /* \"#utility.yul\":1260:1264   */\n  0x00\n    /* \"#utility.yul\":1350:1368   */\n  0xffffffffffffffff\n    /* \"#utility.yul\":1342:1348   */\n  dup3\n    /* \"#utility.yul\":1339:1369   */\n  gt\n    /* \"#utility.yul\":1336:1392   */\n  iszero\n  tag_78\n  jumpi\n    /* \"#utility.yul\":1372:1390   */\n  tag_79\n  tag_29\n  jump\t// in\ntag_79:\n    /* \"#utility.yul\":1336:1392   */\ntag_78:\n    /* \"#utility.yul\":1422:1426   */\n  0x20\n    /* \"#utility.yul\":1414:1420   */\n  dup3\n    /* \"#utility.yul\":1410:1427   */\n  mul\n    /* \"#utility.yul\":1402:1427   */\n  swap1\n  pop\n    /* \"#utility.yul\":1482:1486   */\n  0x20\n    /* \"#utility.yul\":1476:1480   */\n  dup2\n    /* \"#utility.yul\":1472:1487   */\n  add\n    /* \"#utility.yul\":1464:1487   */\n  swap1\n  pop\n    /* \"#utility.yul\":1173:1494   */\n  swap2\n  swap1\n  pop\n  jump\t// out\n    /* \"#utility.yul\":1500:1617   */\ntag_33:\n    /* \"#utility.yul\":1609:1610   */\n  0x00\n    /* \"#utility.yul\":1606:1607   */\n  0x00\n    /* \"#utility.yul\":1599:1611   */\n  revert\n    /* \"#utility.yul\":1623:1740   */\ntag_34:\n    /* \"#utility.yul\":1732:1733   */\n  0x00\n    /* \"#utility.yul\":1729:1730   */\n  0x00\n    /* \"#utility.yul\":1722:1734   */\n  revert\n    /* \"#utility.yul\":1746:2054   */\ntag_35:\n    /* \"#utility.yul\":1808:1812   */\n  0x00\n    /* \"#utility.yul\":1898:1916   */\n  0xffffffffffffffff\n    /* \"#utility.yul\":1890:1896   */\n  dup3\n    /* \"#utility.yul\":1887:1917   */\n  gt\n    /* \"#utility.yul\":1884:1940   */\n  iszero\n  tag_83\n  jumpi\n    /* \"#utility.yul\":1920:1938   */\n  tag_84\n  tag_29\n  jump\t// in\ntag_84:\n    /* \"#utility.yul\":1884:1940   */\ntag_83:\n    /* \"#utility.yul\":1958:1987   */\n  tag_85\n    /* \"#utility.yul\":1980:1986   */\n  dup3\n    /* \"#utility.yul\":1958:1987   */\n  tag_28\n  jump\t// in\ntag_85:\n    /* \"#utility.yul\":1950:1987   */\n  swap1\n  pop\n    /* \"#utility.yul\":2042:2046   */\n  0x20\n    /* \"#utility.yul\":2036:2040   */\n  dup2\n    /* \"#utility.yul\":2032:2047   */\n  add\n    /* \"#utility.yul\":2024:2047   */\n  swap1\n  pop\n    /* \"#utility.yul\":1746:2054   */\n  swap2\n  swap1\n  pop\n  jump\t// out\n    /* \"#utility.yul\":2060:2199   */\ntag_36:\n    /* \"#utility.yul\":2149:2155   */\n  dup3\n    /* \"#utility.yul\":2144:2147   */\n  dup2\n    /* \"#utility.yul\":2139:2142   */\n  dup4\n    /* \"#utility.yul\":2133:2156   */\n  mcopy\n    /* \"#utility.yul\":2190:2191   */\n  0x00\n    /* \"#utility.yul\":2181:2187   */\n  dup4\n    /* \"#utility.yul\":2176:2179   */\n  dup4\n    /* \"#utility.yul\":2172:2188   */\n  add\n    /* \"#utility.yul\":2165:2192   */\n  mstore\n    /* \"#utility.yul\":2060:2199   */\n  pop\n  pop\n  pop\n  jump\t// out\n    /* \"#utility.yul\":2205:2639   */\ntag_37:\n    /* \"#utility.yul\":2294:2299   */\n  0x00\n    /* \"#utility.yul\":2319:2385   */\n  tag_88\n    /* \"#utility.yul\":2335:2384   */\n  tag_89\n    /* \"#utility.yul\":2377:2383   */\n  dup5\n    /* \"#utility.yul\":2335:2384   */\n  tag_35\n  jump\t// in\ntag_89:\n    /* \"#utility.yul\":2319:2385   */\n  tag_31\n  jump\t// in\ntag_88:\n    /* \"#utility.yul\":2310:2385   */\n  swap1\n  pop\n    /* \"#utility.yul\":2408:2414   */\n  dup3\n    /* \"#utility.yul\":2401:2406   */\n  dup2\n    /* \"#utility.yul\":2394:2415   */\n  mstore\n    /* \"#utility.yul\":2446:2450   */\n  0x20\n    /* \"#utility.yul\":2439:2444   */\n  dup2\n    /* \"#utility.yul\":2435:2451   */\n  add\n    /* \"#utility.yul\":2484:2487   */\n  dup5\n    /* \"#utility.yul\":2475:2481   */\n  dup5\n    /* \"#utility.yul\":2470:2473   */\n  dup5\n    /* \"#utility.yul\":2466:2482   */\n  add\n    /* \"#utility.yul\":2463:2488   */\n  gt\n    /* \"#utility.yul\":2460:2572   */\n  iszero\n  tag_90\n  jumpi\n    /* \"#utility.yul\":2491:2570   */\n  tag_91\n  tag_34\n  jump\t// in\ntag_91:\n    /* \"#utility.yul\":2460:2572   */\ntag_90:\n    /* \"#utility.yul\":2581:2633   */\n  tag_92\n    /* \"#utility.yul\":2626:2632   */\n  dup5\n    /* \"#utility.yul\":2621:2624   */\n  dup3\n    /* \"#utility.yul\":2616:2619   */\n  dup6\n    /* \"#utility.yul\":2581:2633   */\n  tag_36\n  jump\t// in\ntag_92:\n    /* \"#utility.yul\":2300:2639   */\n  pop\n    /* \"#utility.yul\":2205:2639   */\n  swap4\n  swap3\n  pop\n  pop\n  pop\n  jump\t// out\n    /* \"#utility.yul\":2659:3014   */\ntag_38:\n    /* \"#utility.yul\":2726:2731   */\n  0x00\n    /* \"#utility.yul\":2775:2778   */\n  dup3\n    /* \"#utility.yul\":2768:2772   */\n  0x1f\n    /* \"#utility.yul\":2760:2766   */\n  dup4\n    /* \"#utility.yul\":2756:2773   */\n  add\n    /* \"#utility.yul\":2752:2779   */\n  slt\n    /* \"#utility.yul\":2742:2864   */\n  tag_94\n  jumpi\n    /* \"#utility.yul\":2783:2862   */\n  tag_95\n  tag_27\n  jump\t// in\ntag_95:\n    /* \"#utility.yul\":2742:2864   */\ntag_94:\n    /* \"#utility.yul\":2893:2899   */\n  dup2\n    /* \"#utility.yul\":2887:2900   */\n  mload\n    /* \"#utility.yul\":2918:3008   */\n  tag_96\n    /* \"#utility.yul\":3004:3007   */\n  dup5\n    /* \"#utility.yul\":2996:3002   */\n  dup3\n    /* \"#utility.yul\":2989:2993   */\n  0x20\n    /* \"#utility.yul\":2981:2987   */\n  dup7\n    /* \"#utility.yul\":2977:2994   */\n  add\n    /* \"#utility.yul\":2918:3008   */\n  tag_37\n  jump\t// in\ntag_96:\n    /* \"#utility.yul\":2909:3008   */\n  swap2\n  pop\n    /* \"#utility.yul\":2732:3014   */\n  pop\n    /* \"#utility.yul\":2659:3014   */\n  swap3\n  swap2\n  pop\n  pop\n  jump\t// out\n    /* \"#utility.yul\":3036:3996   */\ntag_39:\n    /* \"#utility.yul\":3153:3158   */\n  0x00\n    /* \"#utility.yul\":3178:3269   */\n  tag_98\n    /* \"#utility.yul\":3194:3268   */\n  tag_99\n    /* \"#utility.yul\":3261:3267   */\n  dup5\n    /* \"#utility.yul\":3194:3268   */\n  tag_32\n  jump\t// in\ntag_99:\n    /* \"#utility.yul\":3178:3269   */\n  tag_31\n  jump\t// in\ntag_98:\n    /* \"#utility.yul\":3169:3269   */\n  swap1\n  pop\n    /* \"#utility.yul\":3289:3294   */\n  dup1\n    /* \"#utility.yul\":3318:3324   */\n  dup4\n    /* \"#utility.yul\":3311:3316   */\n  dup3\n    /* \"#utility.yul\":3304:3325   */\n  mstore\n    /* \"#utility.yul\":3352:3356   */\n  0x20\n    /* \"#utility.yul\":3345:3350   */\n  dup3\n    /* \"#utility.yul\":3341:3357   */\n  add\n    /* \"#utility.yul\":3334:3357   */\n  swap1\n  pop\n    /* \"#utility.yul\":3405:3409   */\n  0x20\n    /* \"#utility.yul\":3397:3403   */\n  dup5\n    /* \"#utility.yul\":3393:3410   */\n  mul\n    /* \"#utility.yul\":3385:3391   */\n  dup4\n    /* \"#utility.yul\":3381:3411   */\n  add\n    /* \"#utility.yul\":3434:3437   */\n  dup6\n    /* \"#utility.yul\":3426:3432   */\n  dup2\n    /* \"#utility.yul\":3423:3438   */\n  gt\n    /* \"#utility.yul\":3420:3542   */\n  iszero\n  tag_100\n  jumpi\n    /* \"#utility.yul\":3453:3532   */\n  tag_101\n  tag_33\n  jump\t// in\ntag_101:\n    /* \"#utility.yul\":3420:3542   */\ntag_100:\n    /* \"#utility.yul\":3568:3574   */\n  dup4\n    /* \"#utility.yul\":3551:3990   */\ntag_102:\n    /* \"#utility.yul\":3585:3591   */\n  dup2\n    /* \"#utility.yul\":3580:3583   */\n  dup2\n    /* \"#utility.yul\":3577:3592   */\n  lt\n    /* \"#utility.yul\":3551:3990   */\n  iszero\n  tag_104\n  jumpi\n    /* \"#utility.yul\":3667:3670   */\n  dup1\n    /* \"#utility.yul\":3661:3671   */\n  mload\n    /* \"#utility.yul\":3703:3721   */\n  0xffffffffffffffff\n    /* \"#utility.yul\":3690:3701   */\n  dup2\n    /* \"#utility.yul\":3687:3722   */\n  gt\n    /* \"#utility.yul\":3684:3806   */\n  iszero\n  tag_105\n  jumpi\n    /* \"#utility.yul\":3725:3804   */\n  tag_106\n  tag_27\n  jump\t// in\ntag_106:\n    /* \"#utility.yul\":3684:3806   */\ntag_105:\n    /* \"#utility.yul\":3849:3860   */\n  dup1\n    /* \"#utility.yul\":3841:3847   */\n  dup7\n    /* \"#utility.yul\":3837:3861   */\n  add\n    /* \"#utility.yul\":3887:3945   */\n  tag_107\n    /* \"#utility.yul\":3941:3944   */\n  dup10\n    /* \"#utility.yul\":3929:3939   */\n  dup3\n    /* \"#utility.yul\":3887:3945   */\n  tag_38\n  jump\t// in\ntag_107:\n    /* \"#utility.yul\":3882:3885   */\n  dup6\n    /* \"#utility.yul\":3875:3946   */\n  mstore\n    /* \"#utility.yul\":3975:3979   */\n  0x20\n    /* \"#utility.yul\":3970:3973   */\n  dup6\n    /* \"#utility.yul\":3966:3980   */\n  add\n    /* \"#utility.yul\":3959:3980   */\n  swap5\n  pop\n    /* \"#utility.yul\":3627:3990   */\n  pop\n  pop\n    /* \"#utility.yul\":3611:3615   */\n  0x20\n    /* \"#utility.yul\":3606:3609   */\n  dup2\n    /* \"#utility.yul\":3602:3616   */\n  add\n    /* \"#utility.yul\":3595:3616   */\n  swap1\n  pop\n    /* \"#utility.yul\":3551:3990   */\n  jump(tag_102)\ntag_104:\n    /* \"#utility.yul\":3555:3576   */\n  pop\n    /* \"#utility.yul\":3159:3996   */\n  pop\n  pop\n    /* \"#utility.yul\":3036:3996   */\n  swap4\n  swap3\n  pop\n  pop\n  pop\n  jump\t// out\n    /* \"#utility.yul\":4018:4423   */\ntag_40:\n    /* \"#utility.yul\":4110:4115   */\n  0x00\n    /* \"#utility.yul\":4159:4162   */\n  dup3\n    /* \"#utility.yul\":4152:4156   */\n  0x1f\n    /* \"#utility.yul\":4144:4150   */\n  dup4\n    /* \"#utility.yul\":4140:4157   */\n  add\n    /* \"#utility.yul\":4136:4163   */\n  slt\n    /* \"#utility.yul\":4126:4248   */\n  tag_109\n  jumpi\n    /* \"#utility.yul\":4167:4246   */\n  tag_110\n  tag_27\n  jump\t// in\ntag_110:\n    /* \"#utility.yul\":4126:4248   */\ntag_109:\n    /* \"#utility.yul\":4277:4283   */\n  dup2\n    /* \"#utility.yul\":4271:4284   */\n  mload\n    /* \"#utility.yul\":4302:4417   */\n  tag_111\n    /* \"#utility.yul\":4413:4416   */\n  dup5\n    /* \"#utility.yul\":4405:4411   */\n  dup3\n    /* \"#utility.yul\":4398:4402   */\n  0x20\n    /* \"#utility.yul\":4390:4396   */\n  dup7\n    /* \"#utility.yul\":4386:4403   */\n  add\n    /* \"#utility.yul\":4302:4417   */\n  tag_39\n  jump\t// in\ntag_111:\n    /* \"#utility.yul\":4293:4417   */\n  swap2\n  pop\n    /* \"#utility.yul\":4116:4423   */\n  pop\n    /* \"#utility.yul\":4018:4423   */\n  swap3\n  swap2\n  pop\n  pop\n  jump\t// out\n    /* \"#utility.yul\":4429:5003   */\ntag_3:\n    /* \"#utility.yul\":4534:4540   */\n  0x00\n    /* \"#utility.yul\":4583:4585   */\n  0x20\n    /* \"#utility.yul\":4571:4580   */\n  dup3\n    /* \"#utility.yul\":4562:4569   */\n  dup5\n    /* \"#utility.yul\":4558:4581   */\n  sub\n    /* \"#utility.yul\":4554:4586   */\n  slt\n    /* \"#utility.yul\":4551:4670   */\n  iszero\n  tag_113\n  jumpi\n    /* \"#utility.yul\":4589:4668   */\n  tag_114\n  tag_25\n  jump\t// in\ntag_114:\n    /* \"#utility.yul\":4551:4670   */\ntag_113:\n    /* \"#utility.yul\":4730:4731   */\n  0x00\n    /* \"#utility.yul\":4719:4728   */\n  dup3\n    /* \"#utility.yul\":4715:4732   */\n  add\n    /* \"#utility.yul\":4709:4733   */\n  mload\n    /* \"#utility.yul\":4760:4778   */\n  0xffffffffffffffff\n    /* \"#utility.yul\":4752:4758   */\n  dup2\n    /* \"#utility.yul\":4749:4779   */\n  gt\n    /* \"#utility.yul\":4746:4863   */\n  iszero\n  tag_115\n  jumpi\n    /* \"#utility.yul\":4782:4861   */\n  tag_116\n  tag_26\n  jump\t// in\ntag_116:\n    /* \"#utility.yul\":4746:4863   */\ntag_115:\n    /* \"#utility.yul\":4887:4986   */\n  tag_117\n    /* \"#utility.yul\":4978:4985   */\n  dup5\n    /* \"#utility.yul\":4969:4975   */\n  dup3\n    /* \"#utility.yul\":4958:4967   */\n  dup6\n    /* \"#utility.yul\":4954:4976   */\n  add\n    /* \"#utility.yul\":4887:4986   */\n  tag_40\n  jump\t// in\ntag_117:\n    /* \"#utility.yul\":4877:4986   */\n  swap2\n  pop\n    /* \"#utility.yul\":4680:4996   */\n  pop\n    /* \"#utility.yul\":4429:5003   */\n  swap3\n  swap2\n  pop\n  pop\n  jump\t// out\n    /* \"#utility.yul\":5009:5135   */\ntag_41:\n    /* \"#utility.yul\":5046:5053   */\n  0x00\n    /* \"#utility.yul\":5086:5128   */\n  0xffffffffffffffffffffffffffffffffffffffff\n    /* \"#utility.yul\":5079:5084   */\n  dup3\n    /* \"#utility.yul\":5075:5129   */\n  and\n    /* \"#utility.yul\":5064:5129   */\n  swap1\n  pop\n    /* \"#utility.yul\":5009:5135   */\n  swap2\n  swap1\n  pop\n  jump\t// out\n    /* \"#utility.yul\":5141:5237   */\ntag_42:\n    /* \"#utility.yul\":5178:5185   */\n  0x00\n    /* \"#utility.yul\":5207:5231   */\n  tag_120\n    /* \"#utility.yul\":5225:5230   */\n  dup3\n    /* \"#utility.yul\":5207:5231   */\n  tag_41\n  jump\t// in\ntag_120:\n    /* \"#utility.yul\":5196:5231   */\n  swap1\n  pop\n    /* \"#utility.yul\":5141:5237   */\n  swap2\n  swap1\n  pop\n  jump\t// out\n    /* \"#utility.yul\":5243:5361   */\ntag_43:\n    /* \"#utility.yul\":5330:5354   */\n  tag_122\n    /* \"#utility.yul\":5348:5353   */\n  dup2\n    /* \"#utility.yul\":5330:5354   */\n  tag_42\n  jump\t// in\ntag_122:\n    /* \"#utility.yul\":5325:5328   */\n  dup3\n    /* \"#utility.yul\":5318:5355   */\n  mstore\n    /* \"#utility.yul\":5243:5361   */\n  pop\n  pop\n  jump\t// out\n    /* \"#utility.yul\":5367:5589   */\ntag_9:\n    /* \"#utility.yul\":5460:5464   */\n  0x00\n    /* \"#utility.yul\":5498:5500   */\n  0x20\n    /* \"#utility.yul\":5487:5496   */\n  dup3\n    /* \"#utility.yul\":5483:5501   */\n  add\n    /* \"#utility.yul\":5475:5501   */\n  swap1\n  pop\n    /* \"#utility.yul\":5511:5582   */\n  tag_124\n    /* \"#utility.yul\":5579:5580   */\n  0x00\n    /* \"#utility.yul\":5568:5577   */\n  dup4\n    /* \"#utility.yul\":5564:5581   */\n  add\n    /* \"#utility.yul\":5555:5561   */\n  dup5\n    /* \"#utility.yul\":5511:5582   */\n  tag_43\n  jump\t// in\ntag_124:\n    /* \"#utility.yul\":5367:5589   */\n  swap3\n  swap2\n  pop\n  pop\n  jump\t// out\n    /* \"#utility.yul\":5595:5775   */\ntag_18:\n    /* \"#utility.yul\":5643:5720   */\n  0x4e487b7100000000000000000000000000000000000000000000000000000000\n    /* \"#utility.yul\":5640:5641   */\n  0x00\n    /* \"#utility.yul\":5633:5721   */\n  mstore\n    /* \"#utility.yul\":5740:5744   */\n  0x32\n    /* \"#utility.yul\":5737:5738   */\n  0x04\n    /* \"#utility.yul\":5730:5745   */\n  mstore\n    /* \"#utility.yul\":5764:5768   */\n  0x24\n    /* \"#utility.yul\":5761:5762   */\n  0x00\n    /* \"#utility.yul\":5754:5769   */\n  revert\n    /* \"#utility.yul\":5781:5880   */\ntag_44:\n    /* \"#utility.yul\":5833:5839   */\n  0x00\n    /* \"#utility.yul\":5867:5872   */\n  dup2\n    /* \"#utility.yul\":5861:5873   */\n  mload\n    /* \"#utility.yul\":5851:5873   */\n  swap1\n  pop\n    /* \"#utility.yul\":5781:5880   */\n  swap2\n  swap1\n  pop\n  jump\t// out\n    /* \"#utility.yul\":5886:6066   */\ntag_45:\n    /* \"#utility.yul\":5934:6011   */\n  0x4e487b7100000000000000000000000000000000000000000000000000000000\n    /* \"#utility.yul\":5931:5932   */\n  0x00\n    /* \"#utility.yul\":5924:6012   */\n  mstore\n    /* \"#utility.yul\":6031:6035   */\n  0x22\n    /* \"#utility.yul\":6028:6029   */\n  0x04\n    /* \"#utility.yul\":6021:6036   */\n  mstore\n    /* \"#utility.yul\":6055:6059   */\n  0x24\n    /* \"#utility.yul\":6052:6053   */\n  0x00\n    /* \"#utility.yul\":6045:6060   */\n  revert\n    /* \"#utility.yul\":6072:6392   */\ntag_46:\n    /* \"#utility.yul\":6116:6122   */\n  0x00\n    /* \"#utility.yul\":6153:6154   */\n  0x02\n    /* \"#utility.yul\":6147:6151   */\n  dup3\n    /* \"#utility.yul\":6143:6155   */\n  div\n    /* \"#utility.yul\":6133:6155   */\n  swap1\n  pop\n    /* \"#utility.yul\":6200:6201   */\n  0x01\n    /* \"#utility.yul\":6194:6198   */\n  dup3\n    /* \"#utility.yul\":6190:6202   */\n  and\n    /* \"#utility.yul\":6221:6239   */\n  dup1\n    /* \"#utility.yul\":6211:6292   */\n  tag_129\n  jumpi\n    /* \"#utility.yul\":6277:6281   */\n  0x7f\n    /* \"#utility.yul\":6269:6275   */\n  dup3\n    /* \"#utility.yul\":6265:6282   */\n  and\n    /* \"#utility.yul\":6255:6282   */\n  swap2\n  pop\n    /* \"#utility.yul\":6211:6292   */\ntag_129:\n    /* \"#utility.yul\":6339:6341   */\n  0x20\n    /* \"#utility.yul\":6331:6337   */\n  dup3\n    /* \"#utility.yul\":6328:6342   */\n  lt\n    /* \"#utility.yul\":6308:6326   */\n  dup2\n    /* \"#utility.yul\":6305:6343   */\n  sub\n    /* \"#utility.yul\":6302:6386   */\n  tag_130\n  jumpi\n    /* \"#utility.yul\":6358:6376   */\n  tag_131\n  tag_45\n  jump\t// in\ntag_131:\n    /* \"#utility.yul\":6302:6386   */\ntag_130:\n    /* \"#utility.yul\":6123:6392   */\n  pop\n    /* \"#utility.yul\":6072:6392   */\n  swap2\n  swap1\n  pop\n  jump\t// out\n    /* \"#utility.yul\":6398:6539   */\ntag_47:\n    /* \"#utility.yul\":6447:6451   */\n  0x00\n    /* \"#utility.yul\":6470:6473   */\n  dup2\n    /* \"#utility.yul\":6462:6473   */\n  swap1\n  pop\n    /* \"#utility.yul\":6493:6496   */\n  dup2\n    /* \"#utility.yul\":6490:6491   */\n  0x00\n    /* \"#utility.yul\":6483:6497   */\n  mstore\n    /* \"#utility.yul\":6527:6531   */\n  0x20\n    /* \"#utility.yul\":6524:6525   */\n  0x00\n    /* \"#utility.yul\":6514:6532   */\n  keccak256\n    /* \"#utility.yul\":6506:6532   */\n  swap1\n  pop\n    /* \"#utility.yul\":6398:6539   */\n  swap2\n  swap1\n  pop\n  jump\t// out\n    /* \"#utility.yul\":6545:6638   */\ntag_48:\n    /* \"#utility.yul\":6582:6588   */\n  0x00\n    /* \"#utility.yul\":6629:6631   */\n  0x20\n    /* \"#utility.yul\":6624:6626   */\n  0x1f\n    /* \"#utility.yul\":6617:6622   */\n  dup4\n    /* \"#utility.yul\":6613:6627   */\n  add\n    /* \"#utility.yul\":6609:6632   */\n  div\n    /* \"#utility.yul\":6599:6632   */\n  swap1\n  pop\n    /* \"#utility.yul\":6545:6638   */\n  swap2\n  swap1\n  pop\n  jump\t// out\n    /* \"#utility.yul\":6644:6751   */\ntag_49:\n    /* \"#utility.yul\":6688:6696   */\n  0x00\n    /* \"#utility.yul\":6738:6743   */\n  dup3\n    /* \"#utility.yul\":6732:6736   */\n  dup3\n    /* \"#utility.yul\":6728:6744   */\n  shl\n    /* \"#utility.yul\":6707:6744   */\n  swap1\n  pop\n    /* \"#utility.yul\":6644:6751   */\n  swap3\n  swap2\n  pop\n  pop\n  jump\t// out\n    /* \"#utility.yul\":6757:7150   */\ntag_50:\n    /* \"#utility.yul\":6826:6832   */\n  0x00\n    /* \"#utility.yul\":6876:6877   */\n  0x08\n    /* \"#utility.yul\":6864:6874   */\n  dup4\n    /* \"#utility.yul\":6860:6878   */\n  mul\n    /* \"#utility.yul\":6899:6996   */\n  tag_136\n    /* \"#utility.yul\":6929:6995   */\n  0xffffffffffffffffffffffffffffffffffffffffffffffffffffffffffffffff\n    /* \"#utility.yul\":6918:6927   */\n  dup3\n    /* \"#utility.yul\":6899:6996   */\n  tag_49\n  jump\t// in\ntag_136:\n    /* \"#utility.yul\":7017:7056   */\n  tag_137\n    /* \"#utility.yul\":7047:7055   */\n  dup7\n    /* \"#utility.yul\":7036:7045   */\n  dup4\n    /* \"#utility.yul\":7017:7056   */\n  tag_49\n  jump\t// in\ntag_137:\n    /* \"#utility.yul\":7005:7056   */\n  swap6\n  pop\n    /* \"#utility.yul\":7089:7093   */\n  dup1\n    /* \"#utility.yul\":7085:7094   */\n  not\n    /* \"#utility.yul\":7078:7083   */\n  dup5\n    /* \"#utility.yul\":7074:7095   */\n  and\n    /* \"#utility.yul\":7065:7095   */\n  swap4\n  pop\n    /* \"#utility.yul\":7138:7142   */\n  dup1\n    /* \"#utility.yul\":7128:7136   */\n  dup7\n    /* \"#utility.yul\":7124:7143   */\n  and\n    /* \"#utility.yul\":7117:7122   */\n  dup5\n    /* \"#utility.yul\":7114:7144   */\n  or\n    /* \"#utility.yul\":7104:7144   */\n  swap3\n  pop\n    /* \"#utility.yul\":6833:7150   */\n  pop\n  pop\n    /* \"#utility.yul\":6757:7150   */\n  swap4\n  swap3\n  pop\n  pop\n  pop\n  jump\t// out\n    /* \"#utility.yul\":7156:7233   */\ntag_51:\n    /* \"#utility.yul\":7193:7200   */\n  0x00\n    /* \"#utility.yul\":7222:7227   */\n  dup2\n    /* \"#utility.yul\":7211:7227   */\n  swap1\n  pop\n    /* \"#utility.yul\":7156:7233   */\n  swap2\n  swap1\n  pop\n  jump\t// out\n    /* \"#utility.yul\":7239:7299   */\ntag_52:\n    /* \"#utility.yul\":7267:7270   */\n  0x00\n    /* \"#utility.yul\":7288:7293   */\n  dup2\n    /* \"#utility.yul\":7281:7293   */\n  swap1\n  pop\n    /* \"#utility.yul\":7239:7299   */\n  swap2\n  swap1\n  pop\n  jump\t// out\n    /* \"#utility.yul\":7305:7447   */\ntag_53:\n    /* \"#utility.yul\":7355:7364   */\n  0x00\n    /* \"#utility.yul\":7388:7441   */\n  tag_141\n    /* \"#utility.yul\":7406:7440   */\n  tag_142\n    /* \"#utility.yul\":7415:7439   */\n  tag_143\n    /* \"#utility.yul\":7433:7438   */\n  dup5\n    /* \"#utility.yul\":7415:7439   */\n  tag_51\n  jump\t// in\ntag_143:\n    /* \"#utility.yul\":7406:7440   */\n  tag_52\n  jump\t// in\ntag_142:\n    /* \"#utility.yul\":7388:7441   */\n  tag_51\n  jump\t// in\ntag_141:\n    /* \"#utility.yul\":7375:7441   */\n  swap1\n  pop\n    /* \"#utility.yul\":7305:7447   */\n  swap2\n  swap1\n  pop\n  jump\t// out\n    /* \"#utility.yul\":7453:7528   */\ntag_54:\n    /* \"#utility.yul\":7496:7499   */\n  0x00\n    /* \"#utility.yul\":7517:7522   */\n  dup2\n    /* \"#utility.yul\":7510:7522   */\n  swap1\n  pop\n    /* \"#utility.yul\":7453:7528   */\n  swap2\n  swap1\n  pop\n  jump\t// out\n    /* \"#utility.yul\":7534:7803   */\ntag_55:\n    /* \"#utility.yul\":7644:7683   */\n  tag_146\n    /* \"#utility.yul\":7675:7682   */\n  dup4\n    /* \"#utility.yul\":7644:7683   */\n  tag_53\n  jump\t// in\ntag_146:\n    /* \"#utility.yul\":7705:7796   */\n  tag_147\n    /* \"#utility.yul\":7754:7795   */\n  tag_148\n    /* \"#utility.yul\":7778:7794   */\n  dup3\n    /* \"#utility.yul\":7754:7795   */\n  tag_54\n  jump\t// in\ntag_148:\n    /* \"#utility.yul\":7746:7752   */\n  dup5\n    /* \"#utility.yul\":7739:7743   */\n  dup5\n    /* \"#utility.yul\":7733:7744   */\n  sload\n    /* \"#utility.yul\":7705:7796   */\n  tag_50\n  jump\t// in\ntag_147:\n    /* \"#utility.yul\":7699:7703   */\n  dup3\n    /* \"#utility.yul\":7692:7797   */\n  sstore\n    /* \"#utility.yul\":7610:7803   */\n  pop\n    /* \"#utility.yul\":7534:7803   */\n  pop\n  pop\n  pop\n  jump\t// out\n    /* \"#utility.yul\":7809:7882   */\ntag_56:\n    /* \"#utility.yul\":7854:7857   */\n  0x00\n    /* \"#utility.yul\":7875:7876   */\n  0x00\n    /* \"#utility.yul\":7868:7876   */\n  swap1\n  pop\n    /* \"#utility.yul\":7809:7882   */\n  swap1\n  jump\t// out\n    /* \"#utility.yul\":7888:8077   */\ntag_57:\n    /* \"#utility.yul\":7965:7997   */\n  tag_151\n  tag_56\n  jump\t// in\ntag_151:\n    /* \"#utility.yul\":8006:8071   */\n  tag_152\n    /* \"#utility.yul\":8064:8070   */\n  dup2\n    /* \"#utility.yul\":8056:8062   */\n  dup5\n    /* \"#utility.yul\":8050:8054   */\n  dup5\n    /* \"#utility.yul\":8006:8071   */\n  tag_55\n  jump\t// in\ntag_152:\n    /* \"#utility.yul\":7941:8077   */\n  pop\n    /* \"#utility.yul\":7888:8077   */\n  pop\n  pop\n  jump\t// out\n    /* \"#utility.yul\":8083:8269   */\ntag_58:\n    /* \"#utility.yul\":8143:8263   */\ntag_154:\n    /* \"#utility.yul\":8160:8163   */\n  dup2\n    /* \"#utility.yul\":8153:8158   */\n  dup2\n    /* \"#utility.yul\":8150:8164   */\n  lt\n    /* \"#utility.yul\":8143:8263   */\n  iszero\n  tag_156\n  jumpi\n    /* \"#utility.yul\":8214:8253   */\n  tag_157\n    /* \"#utility.yul\":8251:8252   */\n  0x00\n    /* \"#utility.yul\":8244:8249   */\n  dup3\n    /* \"#utility.yul\":8214:8253   */\n  tag_57\n  jump\t// in\ntag_157:\n    /* \"#utility.yul\":8187:8188   */\n  0x01\n    /* \"#utility.yul\":8180:8185   */\n  dup2\n    /* \"#utility.yul\":8176:8189   */\n  add\n    /* \"#utility.yul\":8167:8189   */\n  swap1\n  pop\n    /* \"#utility.yul\":8143:8263   */\n  jump(tag_154)\ntag_156:\n    /* \"#utility.yul\":8083:8269   */\n  pop\n  pop\n  jump\t// out\n    /* \"#utility.yul\":8275:8818   */\ntag_59:\n    /* \"#utility.yul\":8376:8378   */\n  0x1f\n    /* \"#utility.yul\":8371:8374   */\n  dup3\n    /* \"#utility.yul\":8368:8379   */\n  gt\n    /* \"#utility.yul\":8365:8811   */\n  iszero\n  tag_159\n  jumpi\n    /* \"#utility.yul\":8410:8448   */\n  tag_160\n    /* \"#utility.yul\":8442:8447   */\n  dup2\n    /* \"#utility.yul\":8410:8448   */\n  tag_47\n  jump\t// in\ntag_160:\n    /* \"#utility.yul\":8494:8523   */\n  tag_161\n    /* \"#utility.yul\":8512:8522   */\n  dup5\n    /* \"#utility.yul\":8494:8523   */\n  tag_48\n  jump\t// in\ntag_161:\n    /* \"#utility.yul\":8484:8492   */\n  dup2\n    /* \"#utility.yul\":8480:8524   */\n  add\n    /* \"#utility.yul\":8677:8679   */\n  0x20\n    /* \"#utility.yul\":8665:8675   */\n  dup6\n    /* \"#utility.yul\":8662:8680   */\n  lt\n    /* \"#utility.yul\":8659:8708   */\n  iszero\n  tag_162\n  jumpi\n    /* \"#utility.yul\":8698:8706   */\n  dup2\n    /* \"#utility.yul\":8683:8706   */\n  swap1\n  pop\n    /* \"#utility.yul\":8659:8708   */\ntag_162:\n    /* \"#utility.yul\":8721:8801   */\n  tag_163\n    /* \"#utility.yul\":8777:8799   */\n  tag_164\n    /* \"#utility.yul\":8795:8798   */\n  dup6\n    /* \"#utility.yul\":8777:8799   */\n  tag_48\n  jump\t// in\ntag_164:\n    /* \"#utility.yul\":8767:8775   */\n  dup4\n    /* \"#utility.yul\":8763:8800   */\n  add\n    /* \"#utility.yul\":8750:8761   */\n  dup3\n    /* \"#utility.yul\":8721:8801   */\n  tag_58\n  jump\t// in\ntag_163:\n    /* \"#utility.yul\":8380:8811   */\n  pop\n  pop\n    /* \"#utility.yul\":8365:8811   */\ntag_159:\n    /* \"#utility.yul\":8275:8818   */\n  pop\n  pop\n  pop\n  jump\t// out\n    /* \"#utility.yul\":8824:8941   */\ntag_60:\n    /* \"#utility.yul\":8878:8886   */\n  0x00\n    /* \"#utility.yul\":8928:8933   */\n  dup3\n    /* \"#utility.yul\":8922:8926   */\n  dup3\n    /* \"#utility.yul\":8918:8934   */\n  shr\n    /* \"#utility.yul\":8897:8934   */\n  swap1\n  pop\n    /* \"#utility.yul\":8824:8941   */\n  swap3\n  swap2\n  pop\n  pop\n  jump\t// out\n    /* \"#utility.yul\":8947:9116   */\ntag_61:\n    /* \"#utility.yul\":8991:8997   */\n  0x00\n    /* \"#utility.yul\":9024:9075   */\n  tag_167\n    /* \"#utility.yul\":9072:9073   */\n  0x00\n    /* \"#utility.yul\":9068:9074   */\n  not\n    /* \"#utility.yul\":9060:9065   */\n  dup5\n    /* \"#utility.yul\":9057:9058   */\n  0x08\n    /* \"#utility.yul\":9053:9066   */\n  mul\n    /* \"#utility.yul\":9024:9075   */\n  tag_60\n  jump\t// in\ntag_167:\n    /* \"#utility.yul\":9020:9076   */\n  not\n    /* \"#utility.yul\":9105:9109   */\n  dup1\n    /* \"#utility.yul\":9099:9103   */\n  dup4\n    /* \"#utility.yul\":9095:9110   */\n  and\n    /* \"#utility.yul\":9085:9110   */\n  swap2\n  pop\n    /* \"#utility.yul\":8998:9116   */\n  pop\n    /* \"#utility.yul\":8947:9116   */\n  swap3\n  swap2\n  pop\n  pop\n  jump\t// out\n    /* \"#utility.yul\":9121:9416   */\ntag_62:\n    /* \"#utility.yul\":9197:9201   */\n  0x00\n    /* \"#utility.yul\":9343:9372   */\n  tag_169\n    /* \"#utility.yul\":9368:9371   */\n  dup4\n    /* \"#utility.yul\":9362:9366   */\n  dup4\n    /* \"#utility.yul\":9343:9372   */\n  tag_61\n  jump\t// in\ntag_169:\n    /* \"#utility.yul\":9335:9372   */\n  swap2\n  pop\n    /* \"#utility.yul\":9405:9408   */\n  dup3\n    /* \"#utility.yul\":9402:9403   */\n  0x02\n    /* \"#utility.yul\":9398:9409   */\n  mul\n    /* \"#utility.yul\":9392:9396   */\n  dup3\n    /* \"#utility.yul\":9389:9410   */\n  or\n    /* \"#utility.yul\":9381:9410   */\n  swap1\n  pop\n    /* \"#utility.yul\":9121:9416   */\n  swap3\n  swap2\n  pop\n  pop\n  jump\t// out\n    /* \"#utility.yul\":9421:10816   */\ntag_21:\n    /* \"#utility.yul\":9538:9575   */\n  tag_171\n    /* \"#utility.yul\":9571:9574   */\n  dup3\n    /* \"#utility.yul\":9538:9575   */\n  tag_44\n  jump\t// in\ntag_171:\n    /* \"#utility.yul\":9640:9658   */\n  0xffffffffffffffff\n    /* \"#utility.yul\":9632:9638   */\n  dup2\n    /* \"#utility.yul\":9629:9659   */\n  gt\n    /* \"#utility.yul\":9626:9682   */\n  iszero\n  tag_172\n  jumpi\n    /* \"#utility.yul\":9662:9680   */\n  tag_173\n  tag_29\n  jump\t// in\ntag_173:\n    /* \"#utility.yul\":9626:9682   */\ntag_172:\n    /* \"#utility.yul\":9706:9744   */\n  tag_174\n    /* \"#utility.yul\":9738:9742   */\n  dup3\n    /* \"#utility.yul\":9732:9743   */\n  sload\n    /* \"#utility.yul\":9706:9744   */\n  tag_46\n  jump\t// in\ntag_174:\n    /* \"#utility.yul\":9791:9858   */\n  tag_175\n    /* \"#utility.yul\":9851:9857   */\n  dup3\n    /* \"#utility.yul\":9843:9849   */\n  dup3\n    /* \"#utility.yul\":9837:9841   */\n  dup6\n    /* \"#utility.yul\":9791:9858   */\n  tag_59\n  jump\t// in\ntag_175:\n    /* \"#utility.yul\":9885:9886   */\n  0x00\n    /* \"#utility.yul\":9909:9913   */\n  0x20\n    /* \"#utility.yul\":9896:9913   */\n  swap1\n  pop\n    /* \"#utility.yul\":9941:9943   */\n  0x1f\n    /* \"#utility.yul\":9933:9939   */\n  dup4\n    /* \"#utility.yul\":9930:9944   */\n  gt\n    /* \"#utility.yul\":9958:9959   */\n  0x01\n    /* \"#utility.yul\":9953:10571   */\n  dup2\n  eq\n  tag_177\n  jumpi\n    /* \"#utility.yul\":10615:10616   */\n  0x00\n    /* \"#utility.yul\":10632:10638   */\n  dup5\n    /* \"#utility.yul\":10629:10706   */\n  iszero\n  tag_178\n  jumpi\n    /* \"#utility.yul\":10681:10690   */\n  dup3\n    /* \"#utility.yul\":10676:10679   */\n  dup8\n    /* \"#utility.yul\":10672:10691   */\n  add\n    /* \"#utility.yul\":10666:10692   */\n  mload\n    /* \"#utility.yul\":10657:10692   */\n  swap1\n  pop\n    /* \"#utility.yul\":10629:10706   */\ntag_178:\n    /* \"#utility.yul\":10732:10799   */\n  tag_179\n    /* \"#utility.yul\":10792:10798   */\n  dup6\n    /* \"#utility.yul\":10785:10790   */\n  dup3\n    /* \"#utility.yul\":10732:10799   */\n  tag_62\n  jump\t// in\ntag_179:\n    /* \"#utility.yul\":10726:10730   */\n  dup7\n    /* \"#utility.yul\":10719:10800   */\n  sstore\n    /* \"#utility.yul\":10588:10810   */\n  pop\n    /* \"#utility.yul\":9923:10810   */\n  jump(tag_176)\n    /* \"#utility.yul\":9953:10571   */\ntag_177:\n    /* \"#utility.yul\":10005:10009   */\n  0x1f\n    /* \"#utility.yul\":10001:10010   */\n  not\n    /* \"#utility.yul\":9993:9999   */\n  dup5\n    /* \"#utility.yul\":9989:10011   */\n  and\n    /* \"#utility.yul\":10039:10076   */\n  tag_180\n    /* \"#utility.yul\":10071:10075   */\n  dup7\n    /* \"#utility.yul\":10039:10076   */\n  tag_47\n  jump\t// in\ntag_180:\n    /* \"#utility.yul\":10098:10099   */\n  0x00\n    /* \"#utility.yul\":10112:10320   */\ntag_181:\n    /* \"#utility.yul\":10126:10133   */\n  dup3\n    /* \"#utility.yul\":10123:10124   */\n  dup2\n    /* \"#utility.yul\":10120:10134   */\n  lt\n    /* \"#utility.yul\":10112:10320   */\n  iszero\n  tag_183\n  jumpi\n    /* \"#utility.yul\":10205:10214   */\n  dup5\n    /* \"#utility.yul\":10200:10203   */\n  dup10\n    /* \"#utility.yul\":10196:10215   */\n  add\n    /* \"#utility.yul\":10190:10216   */\n  mload\n    /* \"#utility.yul\":10182:10188   */\n  dup3\n    /* \"#utility.yul\":10175:10217   */\n  sstore\n    /* \"#utility.yul\":10256:10257   */\n  0x01\n    /* \"#utility.yul\":10248:10254   */\n  dup3\n    /* \"#utility.yul\":10244:10258   */\n  add\n    /* \"#utility.yul\":10234:10258   */\n  swap2\n  pop\n    /* \"#utility.yul\":10303:10305   */\n  0x20\n    /* \"#utility.yul\":10292:10301   */\n  dup6\n    /* \"#utility.yul\":10288:10306   */\n  add\n    /* \"#utility.yul\":10275:10306   */\n  swap5\n  pop\n    /* \"#utility.yul\":10149:10153   */\n  0x20\n    /* \"#utility.yul\":10146:10147   */\n  dup2\n    /* \"#utility.yul\":10142:10154   */\n  add\n    /* \"#utility.yul\":10137:10154   */\n  swap1\n  pop\n    /* \"#utility.yul\":10112:10320   */\n  jump(tag_181)\ntag_183:\n    /* \"#utility.yul\":10348:10354   */\n  dup7\n    /* \"#utility.yul\":10339:10346   */\n  dup4\n    /* \"#utility.yul\":10336:10355   */\n  lt\n    /* \"#utility.yul\":10333:10512   */\n  iszero\n  tag_184\n  jumpi\n    /* \"#utility.yul\":10406:10415   */\n  dup5\n    /* \"#utility.yul\":10401:10404   */\n  dup10\n    /* \"#utility.yul\":10397:10416   */\n  add\n    /* \"#utility.yul\":10391:10417   */\n  mload\n    /* \"#utility.yul\":10449:10497   */\n  tag_185\n    /* \"#utility.yul\":10491:10495   */\n  0x1f\n    /* \"#utility.yul\":10483:10489   */\n  dup10\n    /* \"#utility.yul\":10479:10496   */\n  and\n    /* \"#utility.yul\":10468:10477   */\n  dup3\n    /* \"#utility.yul\":10449:10497   */\n  tag_61\n  jump\t// in\ntag_185:\n    /* \"#utility.yul\":10441:10447   */\n  dup4\n    /* \"#utility.yul\":10434:10498   */\n  sstore\n    /* \"#utility.yul\":10356:10512   */\n  pop\n    /* \"#utility.yul\":10333:10512   */\ntag_184:\n    /* \"#utility.yul\":10558:10559   */\n  0x01\n    /* \"#utility.yul\":10554:10555   */\n  0x02\n    /* \"#utility.yul\":10546:10552   */\n  dup9\n    /* \"#utility.yul\":10542:10556   */\n  mul\n    /* \"#utility.yul\":10538:10560   */\n  add\n    /* \"#utility.yul\":10532:10536   */\n  dup9\n    /* \"#utility.yul\":10525:10561   */\n  sstore\n    /* \"#utility.yul\":9960:10571   */\n  pop\n  pop\n  pop\n    /* \"#utility.yul\":9923:10810   */\ntag_176:\n  pop\n    /* \"#utility.yul\":9513:10816   */\n  pop\n  pop\n  pop\n    /* \"#utility.yul\":9421:10816   */\n  pop\n  pop\n  jump\t// out\n    /* \"VotingApplication/src/Contract.sol\":134:2215  contract Voting is Ownable { ... */\ntag_22:\n  dataSize(sub_0)\n  dup1\n  dataOffset(sub_0)\n  0x00\n  codecopy\n  0x00\n  return\nstop\n\nsub_0: assembly {\n        /* \"VotingApplication/src/Contract.sol\":134:2215  contract Voting is Ownable { ... */\n      mstore(0x40, 0x80)\n      callvalue\n      dup1\n      iszero\n      tag_1\n      jumpi\n      revert(0x00, 0x00)\n    tag_1:\n      pop\n      jumpi(tag_2, lt(calldatasize, 0x04))\n      shr(0xe0, calldataload(0x00))\n      dup1\n      0x715018a6\n      gt\n      tag_16\n      jumpi\n      dup1\n      0xa3ec138d\n      gt\n      tag_17\n      jumpi\n      dup1\n      0xa3ec138d\n      eq\n      tag_12\n      jumpi\n      dup1\n      0xa999e562\n      eq\n      tag_13\n      jumpi\n      dup1\n      0xefb98bcf\n      eq\n      tag_14\n      jumpi\n      dup1\n      0xf2fde38b\n      eq\n      tag_15\n      jumpi\n      jump(tag_2)\n    tag_17:\n      dup1\n      0x715018a6\n      eq\n      tag_9\n      jumpi\n      dup1\n      0x85a38635\n      eq\n      tag_10\n      jumpi\n      dup1\n      0x8da5cb5b\n      eq\n      tag_11\n      jumpi\n      jump(tag_2)\n    tag_16:\n      dup1\n      0x0121b93f\n      eq\n      tag_3\n      jumpi\n      dup1\n      0x06a49fce\n      eq\n      tag_4\n      jumpi\n      dup1\n      0x09e9d7e2\n      eq\n      tag_5\n      jumpi\n      dup1\n      0x101158af\n      eq\n      tag_6\n      jumpi\n      dup1\n      0x3477ee2e\n      eq\n      tag_7\n      jumpi\n      dup1\n      0x3d2f5bda\n      eq\n      tag_8\n      jumpi\n    tag_2:\n      revert(0x00, 0x00)\n        /* \"VotingApplication/src/Contract.sol\":1637:2022  function vote(uint _candidateIndex) public {... */\n    tag_3:\n      tag_18\n      0x04\n      dup1\n      calldatasize\n      sub\n      dup2\n      add\n      swap1\n      tag_19\n      swap2\n      swap1\n      tag_20\n      jump\t// in\n    tag_19:\n      tag_21\n      jump\t// in\n    tag_18:\n      stop\n        /* \"VotingApplication/src/Contract.sol\":1531:1631  function getCandidates() public view returns (Candidate[] memory) {... */\n    tag_4:\n      tag_22\n      tag_23\n      jump\t// in\n    tag_22:\n      mload(0x40)\n      tag_24\n      swap2\n      swap1\n      tag_25\n      jump\t// in\n    tag_24:\n      mload(0x40)\n      dup1\n      swap2\n      sub\n      swap1\n      return\n        /* \"VotingApplication/src/Contract.sol\":1064:1345  function removeCandidate(uint _index) public onlyOwner {... */\n    tag_5:\n      tag_26\n      0x04\n      dup1\n      calldatasize\n      sub\n      dup2\n      add\n      swap1\n      tag_27\n      swap2\n      swap1\n      tag_20\n      jump\t// in\n    tag_27:\n      tag_28\n      jump\t// in\n    tag_26:\n      stop\n        /* \"VotingApplication/src/Contract.sol\":350:373  uint public votingStart */\n    tag_6:\n      tag_29\n      tag_30\n      jump\t// in\n    tag_29:\n      mload(0x40)\n      tag_31\n      swap2\n      swap1\n      tag_32\n      jump\t// in\n    tag_31:\n      mload(0x40)\n      dup1\n      swap2\n      sub\n      swap1\n      return\n        /* \"VotingApplication/src/Contract.sol\":243:272  Candidate[] public candidates */\n    tag_7:\n      tag_33\n      0x04\n      dup1\n      calldatasize\n      sub\n      dup2\n      add\n      swap1\n      tag_34\n      swap2\n      swap1\n      tag_20\n      jump\t// in\n    tag_34:\n      tag_35\n      jump\t// in\n    tag_33:\n      mload(0x40)\n      tag_36\n      swap3\n      swap2\n      swap1\n      tag_37\n      jump\t// in\n    tag_36:\n      mload(0x40)\n      dup1\n      swap2\n      sub\n      swap1\n      return\n        /* \"VotingApplication/src/Contract.sol\":1351:1525  function startVoting(uint _votingDuration) public onlyOwner{... */\n    tag_8:\n      tag_38\n      0x04\n      dup1\n      calldatasize\n      sub\n      dup2\n      add\n      swap1\n      tag_39\n      swap2\n      swap1\n      tag_20\n      jump\t// in\n    tag_39:\n      tag_40\n      jump\t// in\n    tag_38:\n      stop\n        /* \"VotingApplication/lib/openzeppelin-contracts/contracts/access/Ownable.sol\":2293:2394  function renounceOwnership() public virtual onlyOwner {... */\n    tag_9:\n      tag_41\n      tag_42\n      jump\t// in\n    tag_41:\n      stop\n        /* \"VotingApplication/src/Contract.sol\":379:400  uint public votingEnd */\n    tag_10:\n      tag_43\n      tag_44\n      jump\t// in\n    tag_43:\n      mload(0x40)\n      tag_45\n      swap2\n      swap1\n      tag_32\n      jump\t// in\n    tag_45:\n      mload(0x40)\n      dup1\n      swap2\n      sub\n      swap1\n      return\n        /* \"VotingApplication/lib/openzeppelin-contracts/contracts/access/Ownable.sol\":1638:1723  function owner() public view virtual returns (address) {... */\n    tag_11:\n      tag_46\n      tag_47\n      jump\t// in\n    tag_46:\n      mload(0x40)\n      tag_48\n      swap2\n      swap1\n      tag_49\n      jump\t// in\n    tag_48:\n      mload(0x40)\n      dup1\n      swap2\n      sub\n      swap1\n      return\n        /* \"VotingApplication/src/Contract.sol\":305:343  mapping(address => bool) public voters */\n    tag_12:\n      tag_50\n      0x04\n      dup1\n      calldatasize\n      sub\n      dup2\n      add\n      swap1\n      tag_51\n      swap2\n      swap1\n      tag_52\n      jump\t// in\n    tag_51:\n      tag_53\n      jump\t// in\n    tag_50:\n      mload(0x40)\n      tag_54\n      swap2\n      swap1\n      tag_55\n      jump\t// in\n    tag_54:\n      mload(0x40)\n      dup1\n      swap2\n      sub\n      swap1\n      return\n        /* \"VotingApplication/src/Contract.sol\":727:1058  function addCandidates(string[] memory _candidatesNames) public onlyOwner {... */\n    tag_13:\n      tag_56\n      0x04\n      dup1\n      calldatasize\n      sub\n      dup2\n      add\n      swap1\n      tag_57\n      swap2\n      swap1\n      tag_58\n      jump\t// in\n    tag_57:\n      tag_59\n      jump\t// in\n    tag_56:\n      stop\n        /* \"VotingApplication/src/Contract.sol\":2028:2210  function getRemainingTime() public view returns (uint) {... */\n    tag_14:\n      tag_60\n      tag_61\n      jump\t// in\n    tag_60:\n      mload(0x40)\n      tag_62\n      swap2\n      swap1\n      tag_32\n      jump\t// in\n    tag_62:\n      mload(0x40)\n      dup1\n      swap2\n      sub\n      swap1\n      return\n        /* \"VotingApplication/lib/openzeppelin-contracts/contracts/access/Ownable.sol\":2543:2758  function transferOwnership(address newOwner) public virtual onlyOwner {... */\n    tag_15:\n      tag_63\n      0x04\n      dup1\n      calldatasize\n      sub\n      dup2\n      add\n      swap1\n      tag_64\n      swap2\n      swap1\n      tag_52\n      jump\t// in\n    tag_64:\n      tag_65\n      jump\t// in\n    tag_63:\n      stop\n        /* \"VotingApplication/src/Contract.sol\":1637:2022  function vote(uint _candidateIndex) public {... */\n    tag_21:\n        /* \"VotingApplication/src/Contract.sol\":1717:1728  votingStart */\n      sload(0x04)\n        /* \"VotingApplication/src/Contract.sol\":1698:1713  block.timestamp */\n      timestamp\n        /* \"VotingApplication/src/Contract.sol\":1698:1728  block.timestamp >= votingStart */\n      lt\n      iszero\n        /* \"VotingApplication/src/Contract.sol\":1698:1760  block.timestamp >= votingStart && block.timestamp <= votingEnd */\n      dup1\n      iszero\n      tag_67\n      jumpi\n      pop\n        /* \"VotingApplication/src/Contract.sol\":1751:1760  votingEnd */\n      sload(0x05)\n        /* \"VotingApplication/src/Contract.sol\":1732:1747  block.timestamp */\n      timestamp\n        /* \"VotingApplication/src/Contract.sol\":1732:1760  block.timestamp <= votingEnd */\n      gt\n      iszero\n        /* \"VotingApplication/src/Contract.sol\":1698:1760  block.timestamp >= votingStart && block.timestamp <= votingEnd */\n    tag_67:\n        /* \"VotingApplication/src/Contract.sol\":1690:1785  require(block.timestamp >= votingStart && block.timestamp <= votingEnd, \"Voting is not active\") */\n      tag_68\n      jumpi\n      mload(0x40)\n      0x08c379a000000000000000000000000000000000000000000000000000000000\n      dup2\n      mstore\n      0x04\n      add\n      tag_69\n      swap1\n      tag_70\n      jump\t// in\n    tag_69:\n      mload(0x40)\n      dup1\n      swap2\n      sub\n      swap1\n      revert\n    tag_68:\n        /* \"VotingApplication/src/Contract.sol\":1804:1810  voters */\n      0x03\n        /* \"VotingApplication/src/Contract.sol\":1804:1822  voters[msg.sender] */\n      0x00\n        /* \"VotingApplication/src/Contract.sol\":1811:1821  msg.sender */\n      caller\n        /* \"VotingApplication/src/Contract.sol\":1804:1822  voters[msg.sender] */\n      0xffffffffffffffffffffffffffffffffffffffff\n      and\n      0xffffffffffffffffffffffffffffffffffffffff\n      and\n      dup2\n      mstore\n      0x20\n      add\n      swap1\n      dup2\n      mstore\n      0x20\n      add\n      0x00\n      keccak256\n      0x00\n      swap1\n      sload\n      swap1\n      0x0100\n      exp\n      swap1\n      div\n      0xff\n      and\n        /* \"VotingApplication/src/Contract.sol\":1803:1822  !voters[msg.sender] */\n      iszero\n        /* \"VotingApplication/src/Contract.sol\":1795:1849  require(!voters[msg.sender], \"You have already voted\") */\n      tag_71\n      jumpi\n      mload(0x40)\n      0x08c379a000000000000000000000000000000000000000000000000000000000\n      dup2\n      mstore\n      0x04\n      add\n      tag_72\n      swap1\n      tag_73\n      jump\t// in\n    tag_72:\n      mload(0x40)\n      dup1\n      swap2\n      sub\n      swap1\n      revert\n    tag_71:\n        /* \"VotingApplication/src/Contract.sol\":1885:1895  candidates */\n      0x01\n        /* \"VotingApplication/src/Contract.sol\":1885:1902  candidates.length */\n      dup1\n      sload\n      swap1\n      pop\n        /* \"VotingApplication/src/Contract.sol\":1867:1882  _candidateIndex */\n      dup2\n        /* \"VotingApplication/src/Contract.sol\":1867:1902  _candidateIndex < candidates.length */\n      lt\n        /* \"VotingApplication/src/Contract.sol\":1859:1930  require(_candidateIndex < candidates.length, \"Invalid candidate index\") */\n      tag_74\n      jumpi\n      mload(0x40)\n      0x08c379a000000000000000000000000000000000000000000000000000000000\n      dup2\n      mstore\n      0x04\n      add\n      tag_75\n      swap1\n      tag_76\n      jump\t// in\n    tag_75:\n      mload(0x40)\n      dup1\n      swap2\n      sub\n      swap1\n      revert\n    tag_74:\n        /* \"VotingApplication/src/Contract.sol\":1940:1950  candidates */\n      0x01\n        /* \"VotingApplication/src/Contract.sol\":1951:1966  _candidateIndex */\n      dup2\n        /* \"VotingApplication/src/Contract.sol\":1940:1967  candidates[_candidateIndex] */\n      dup2\n      sload\n      dup2\n      lt\n      tag_77\n      jumpi\n      tag_78\n      tag_79\n      jump\t// in\n    tag_78:\n    tag_77:\n      swap1\n      0x00\n      mstore\n      keccak256(0x00, 0x20)\n      swap1\n      0x02\n      mul\n      add\n        /* \"VotingApplication/src/Contract.sol\":1940:1977  candidates[_candidateIndex].voteCount */\n      0x01\n      add\n      0x00\n        /* \"VotingApplication/src/Contract.sol\":1940:1979  candidates[_candidateIndex].voteCount++ */\n      dup2\n      sload\n      dup1\n      swap3\n      swap2\n      swap1\n      tag_81\n      swap1\n      tag_82\n      jump\t// in\n    tag_81:\n      swap2\n      swap1\n      pop\n      sstore\n      pop\n        /* \"VotingApplication/src/Contract.sol\":2010:2014  true */\n      0x01\n        /* \"VotingApplication/src/Contract.sol\":1989:1995  voters */\n      0x03\n        /* \"VotingApplication/src/Contract.sol\":1989:2007  voters[msg.sender] */\n      0x00\n        /* \"VotingApplication/src/Contract.sol\":1996:2006  msg.sender */\n      caller\n        /* \"VotingApplication/src/Contract.sol\":1989:2007  voters[msg.sender] */\n      0xffffffffffffffffffffffffffffffffffffffff\n      and\n      0xffffffffffffffffffffffffffffffffffffffff\n      and\n      dup2\n      mstore\n      0x20\n      add\n      swap1\n      dup2\n      mstore\n      0x20\n      add\n      0x00\n      keccak256\n      0x00\n        /* \"VotingApplication/src/Contract.sol\":1989:2014  voters[msg.sender] = true */\n      0x0100\n      exp\n      dup2\n      sload\n      dup2\n      0xff\n      mul\n      not\n      and\n      swap1\n      dup4\n      iszero\n      iszero\n      mul\n      or\n      swap1\n      sstore\n      pop\n        /* \"VotingApplication/src/Contract.sol\":1637:2022  function vote(uint _candidateIndex) public {... */\n      pop\n      jump\t// out\n        /* \"VotingApplication/src/Contract.sol\":1531:1631  function getCandidates() public view returns (Candidate[] memory) {... */\n    tag_23:\n        /* \"VotingApplication/src/Contract.sol\":1577:1595  Candidate[] memory */\n      0x60\n        /* \"VotingApplication/src/Contract.sol\":1614:1624  candidates */\n      0x01\n        /* \"VotingApplication/src/Contract.sol\":1607:1624  return candidates */\n      dup1\n      sload\n      dup1\n      0x20\n      mul\n      0x20\n      add\n      mload(0x40)\n      swap1\n      dup2\n      add\n      0x40\n      mstore\n      dup1\n      swap3\n      swap2\n      swap1\n      dup2\n      dup2\n      mstore\n      0x20\n      add\n      0x00\n      swap1\n    tag_84:\n      dup3\n      dup3\n      lt\n      iszero\n      tag_85\n      jumpi\n      dup4\n      dup3\n      swap1\n      0x00\n      mstore\n      keccak256(0x00, 0x20)\n      swap1\n      0x02\n      mul\n      add\n      mload(0x40)\n      dup1\n      0x40\n      add\n      0x40\n      mstore\n      swap1\n      dup2\n      0x00\n      dup3\n      add\n      dup1\n      sload\n      tag_87\n      swap1\n      tag_88\n      jump\t// in\n    tag_87:\n      dup1\n      0x1f\n      add\n      0x20\n      dup1\n      swap2\n      div\n      mul\n      0x20\n      add\n      mload(0x40)\n      swap1\n      dup2\n      add\n      0x40\n      mstore\n      dup1\n      swap3\n      swap2\n      swap1\n      dup2\n      dup2\n      mstore\n      0x20\n      add\n      dup3\n      dup1\n      sload\n      tag_89\n      swap1\n      tag_88\n      jump\t// in\n    tag_89:\n      dup1\n      iszero\n      tag_90\n      jumpi\n      dup1\n      0x1f\n      lt\n      tag_91\n      jumpi\n      0x0100\n      dup1\n      dup4\n      sload\n      div\n      mul\n      dup4\n      mstore\n      swap2\n      0x20\n      add\n      swap2\n      jump(tag_90)\n    tag_91:\n      dup3\n      add\n      swap2\n      swap1\n      0x00\n      mstore\n      keccak256(0x00, 0x20)\n      swap1\n    tag_92:\n      dup2\n      sload\n      dup2\n      mstore\n      swap1\n      0x01\n      add\n      swap1\n      0x20\n      add\n      dup1\n      dup4\n      gt\n      tag_92\n      jumpi\n      dup3\n      swap1\n      sub\n      0x1f\n      and\n      dup3\n      add\n      swap2\n    tag_90:\n      pop\n      pop\n      pop\n      pop\n      pop\n      dup2\n      mstore\n      0x20\n      add\n      0x01\n      dup3\n      add\n      sload\n      dup2\n      mstore\n      pop\n      pop\n      dup2\n      mstore\n      0x20\n      add\n      swap1\n      0x01\n      add\n      swap1\n      jump(tag_84)\n    tag_85:\n      pop\n      pop\n      pop\n      pop\n      swap1\n      pop\n        /* \"VotingApplication/src/Contract.sol\":1531:1631  function getCandidates() public view returns (Candidate[] memory) {... */\n      swap1\n      jump\t// out\n        /* \"VotingApplication/src/Contract.sol\":1064:1345  function removeCandidate(uint _index) public onlyOwner {... */\n    tag_28:\n        /* \"VotingApplication/lib/openzeppelin-contracts/contracts/access/Ownable.sol\":1531:1544  _checkOwner() */\n      tag_94\n        /* \"VotingApplication/lib/openzeppelin-contracts/contracts/access/Ownable.sol\":1531:1542  _checkOwner */\n      tag_95\n        /* \"VotingApplication/lib/openzeppelin-contracts/contracts/access/Ownable.sol\":1531:1544  _checkOwner() */\n      jump\t// in\n    tag_94:\n        /* \"VotingApplication/src/Contract.sol\":1146:1156  candidates */\n      0x01\n        /* \"VotingApplication/src/Contract.sol\":1146:1163  candidates.length */\n      dup1\n      sload\n      swap1\n      pop\n        /* \"VotingApplication/src/Contract.sol\":1137:1143  _index */\n      dup2\n        /* \"VotingApplication/src/Contract.sol\":1137:1163  _index < candidates.length */\n      lt\n        /* \"VotingApplication/src/Contract.sol\":1129:1191  require(_index < candidates.length, \"Invalid candidate index\") */\n      tag_97\n      jumpi\n      mload(0x40)\n      0x08c379a000000000000000000000000000000000000000000000000000000000\n      dup2\n      mstore\n      0x04\n      add\n      tag_98\n      swap1\n      tag_76\n      jump\t// in\n    tag_98:\n      mload(0x40)\n      dup1\n      swap2\n      sub\n      swap1\n      revert\n    tag_97:\n        /* \"VotingApplication/src/Contract.sol\":1206:1212  uint i */\n      0x00\n        /* \"VotingApplication/src/Contract.sol\":1215:1221  _index */\n      dup2\n        /* \"VotingApplication/src/Contract.sol\":1206:1221  uint i = _index */\n      swap1\n      pop\n        /* \"VotingApplication/src/Contract.sol\":1201:1313  for (uint i = _index; i < candidates.length - 1; i++) {... */\n    tag_99:\n        /* \"VotingApplication/src/Contract.sol\":1247:1248  1 */\n      0x01\n        /* \"VotingApplication/src/Contract.sol\":1227:1237  candidates */\n      dup1\n        /* \"VotingApplication/src/Contract.sol\":1227:1244  candidates.length */\n      dup1\n      sload\n      swap1\n      pop\n        /* \"VotingApplication/src/Contract.sol\":1227:1248  candidates.length - 1 */\n      tag_102\n      swap2\n      swap1\n      tag_103\n      jump\t// in\n    tag_102:\n        /* \"VotingApplication/src/Contract.sol\":1223:1224  i */\n      dup2\n        /* \"VotingApplication/src/Contract.sol\":1223:1248  i < candidates.length - 1 */\n      lt\n        /* \"VotingApplication/src/Contract.sol\":1201:1313  for (uint i = _index; i < candidates.length - 1; i++) {... */\n      iszero\n      tag_100\n      jumpi\n        /* \"VotingApplication/src/Contract.sol\":1285:1295  candidates */\n      0x01\n        /* \"VotingApplication/src/Contract.sol\":1300:1301  1 */\n      dup1\n        /* \"VotingApplication/src/Contract.sol\":1296:1297  i */\n      dup3\n        /* \"VotingApplication/src/Contract.sol\":1296:1301  i + 1 */\n      tag_104\n      swap2\n      swap1\n      tag_105\n      jump\t// in\n    tag_104:\n        /* \"VotingApplication/src/Contract.sol\":1285:1302  candidates[i + 1] */\n      dup2\n      sload\n      dup2\n      lt\n      tag_106\n      jumpi\n      tag_107\n      tag_79\n      jump\t// in\n    tag_107:\n    tag_106:\n      swap1\n      0x00\n      mstore\n      keccak256(0x00, 0x20)\n      swap1\n      0x02\n      mul\n      add\n        /* \"VotingApplication/src/Contract.sol\":1269:1279  candidates */\n      0x01\n        /* \"VotingApplication/src/Contract.sol\":1280:1281  i */\n      dup3\n        /* \"VotingApplication/src/Contract.sol\":1269:1282  candidates[i] */\n      dup2\n      sload\n      dup2\n      lt\n      tag_109\n      jumpi\n      tag_110\n      tag_79\n      jump\t// in\n    tag_110:\n    tag_109:\n      swap1\n      0x00\n      mstore\n      keccak256(0x00, 0x20)\n      swap1\n      0x02\n      mul\n      add\n        /* \"VotingApplication/src/Contract.sol\":1269:1302  candidates[i] = candidates[i + 1] */\n      0x00\n      dup3\n      add\n      dup2\n      0x00\n      add\n      swap1\n      dup2\n      tag_112\n      swap2\n      swap1\n      tag_113\n      jump\t// in\n    tag_112:\n      pop\n      0x01\n      dup3\n      add\n      sload\n      dup2\n      0x01\n      add\n      sstore\n      swap1\n      pop\n      pop\n        /* \"VotingApplication/src/Contract.sol\":1250:1253  i++ */\n      dup1\n      dup1\n      0x01\n      add\n      swap2\n      pop\n      pop\n        /* \"VotingApplication/src/Contract.sol\":1201:1313  for (uint i = _index; i < candidates.length - 1; i++) {... */\n      jump(tag_99)\n    tag_100:\n      pop\n        /* \"VotingApplication/src/Contract.sol\":1322:1332  candidates */\n      0x01\n        /* \"VotingApplication/src/Contract.sol\":1322:1338  candidates.pop() */\n      dup1\n      sload\n      dup1\n      tag_114\n      jumpi\n      tag_115\n      tag_116\n      jump\t// in\n    tag_115:\n    tag_114:\n      0x01\n      swap1\n      sub\n      dup2\n      dup2\n      swap1\n      0x00\n      mstore\n      keccak256(0x00, 0x20)\n      swap1\n      0x02\n      mul\n      add\n      0x00\n      0x00\n      dup3\n      add\n      0x00\n      tag_118\n      swap2\n      swap1\n      tag_119\n      jump\t// in\n    tag_118:\n      0x01\n      dup3\n      add\n      0x00\n      swap1\n      sstore\n      pop\n      pop\n      swap1\n      sstore\n        /* \"VotingApplication/src/Contract.sol\":1064:1345  function removeCandidate(uint _index) public onlyOwner {... */\n      pop\n      jump\t// out\n        /* \"VotingApplication/src/Contract.sol\":350:373  uint public votingStart */\n    tag_30:\n      sload(0x04)\n      dup2\n      jump\t// out\n        /* \"VotingApplication/src/Contract.sol\":243:272  Candidate[] public candidates */\n    tag_35:\n      0x01\n      dup2\n      dup2\n      sload\n      dup2\n      lt\n      tag_120\n      jumpi\n      0x00\n      dup1\n      revert\n    tag_120:\n      swap1\n      0x00\n      mstore\n      keccak256(0x00, 0x20)\n      swap1\n      0x02\n      mul\n      add\n      0x00\n      swap2\n      pop\n      swap1\n      pop\n      dup1\n      0x00\n      add\n      dup1\n      sload\n      tag_122\n      swap1\n      tag_88\n      jump\t// in\n    tag_122:\n      dup1\n      0x1f\n      add\n      0x20\n      dup1\n      swap2\n      div\n      mul\n      0x20\n      add\n      mload(0x40)\n      swap1\n      dup2\n      add\n      0x40\n      mstore\n      dup1\n      swap3\n      swap2\n      swap1\n      dup2\n      dup2\n      mstore\n      0x20\n      add\n      dup3\n      dup1\n      sload\n      tag_123\n      swap1\n      tag_88\n      jump\t// in\n    tag_123:\n      dup1\n      iszero\n      tag_124\n      jumpi\n      dup1\n      0x1f\n      lt\n      tag_125\n      jumpi\n      0x0100\n      dup1\n      dup4\n      sload\n      div\n      mul\n      dup4\n      mstore\n      swap2\n      0x20\n      add\n      swap2\n      jump(tag_124)\n    tag_125:\n      dup3\n      add\n      swap2\n      swap1\n      0x00\n      mstore\n      keccak256(0x00, 0x20)\n      swap1\n    tag_126:\n      dup2\n      sload\n      dup2\n      mstore\n      swap1\n      0x01\n      add\n      swap1\n      0x20\n      add\n      dup1\n      dup4\n      gt\n      tag_126\n      jumpi\n      dup3\n      swap1\n      sub\n      0x1f\n      and\n      dup3\n      add\n      swap2\n    tag_124:\n      pop\n      pop\n      pop\n      pop\n      pop\n      swap1\n      dup1\n      0x01\n      add\n      sload\n      swap1\n      pop\n      dup3\n      jump\t// out\n        /* \"VotingApplication/src/Contract.sol\":1351:1525  function startVoting(uint _votingDuration) public onlyOwner{... */\n    tag_40:\n        /* \"VotingApplication/lib/openzeppelin-contracts/contracts/access/Ownable.sol\":1531:1544  _checkOwner() */\n      tag_128\n        /* \"VotingApplication/lib/openzeppelin-contracts/contracts/access/Ownable.sol\":1531:1542  _checkOwner */\n      tag_95\n        /* \"VotingApplication/lib/openzeppelin-contracts/contracts/access/Ownable.sol\":1531:1544  _checkOwner() */\n      jump\t// in\n    tag_128:\n        /* \"VotingApplication/src/Contract.sol\":1434:1449  block.timestamp */\n      timestamp\n        /* \"VotingApplication/src/Contract.sol\":1420:1431  votingStart */\n      0x04\n        /* \"VotingApplication/src/Contract.sol\":1420:1449  votingStart = block.timestamp */\n      dup2\n      swap1\n      sstore\n      pop\n        /* \"VotingApplication/src/Contract.sol\":1508:1517  1 minutes */\n      0x3c\n        /* \"VotingApplication/src/Contract.sol\":1490:1505  _votingDuration */\n      dup2\n        /* \"VotingApplication/src/Contract.sol\":1490:1517  _votingDuration * 1 minutes */\n      tag_130\n      swap2\n      swap1\n      tag_131\n      jump\t// in\n    tag_130:\n        /* \"VotingApplication/src/Contract.sol\":1471:1486  block.timestamp */\n      timestamp\n        /* \"VotingApplication/src/Contract.sol\":1471:1518  block.timestamp + (_votingDuration * 1 minutes) */\n      tag_132\n      swap2\n      swap1\n      tag_105\n      jump\t// in\n    tag_132:\n        /* \"VotingApplication/src/Contract.sol\":1459:1468  votingEnd */\n      0x05\n        /* \"VotingApplication/src/Contract.sol\":1459:1518  votingEnd = block.timestamp + (_votingDuration * 1 minutes) */\n      dup2\n      swap1\n      sstore\n      pop\n        /* \"VotingApplication/src/Contract.sol\":1351:1525  function startVoting(uint _votingDuration) public onlyOwner{... */\n      pop\n      jump\t// out\n        /* \"VotingApplication/lib/openzeppelin-contracts/contracts/access/Ownable.sol\":2293:2394  function renounceOwnership() public virtual onlyOwner {... */\n    tag_42:\n        /* \"VotingApplication/lib/openzeppelin-contracts/contracts/access/Ownable.sol\":1531:1544  _checkOwner() */\n      tag_134\n        /* \"VotingApplication/lib/openzeppelin-contracts/contracts/access/Ownable.sol\":1531:1542  _checkOwner */\n      tag_95\n        /* \"VotingApplication/lib/openzeppelin-contracts/contracts/access/Ownable.sol\":1531:1544  _checkOwner() */\n      jump\t// in\n    tag_134:\n        /* \"VotingApplication/lib/openzeppelin-contracts/contracts/access/Ownable.sol\":2357:2387  _transferOwnership(address(0)) */\n      tag_136\n        /* \"VotingApplication/lib/openzeppelin-contracts/contracts/access/Ownable.sol\":2384:2385  0 */\n      0x00\n        /* \"VotingApplication/lib/openzeppelin-contracts/contracts/access/Ownable.sol\":2357:2375  _transferOwnership */\n      tag_137\n        /* \"VotingApplication/lib/openzeppelin-contracts/contracts/access/Ownable.sol\":2357:2387  _transferOwnership(address(0)) */\n      jump\t// in\n    tag_136:\n        /* \"VotingApplication/lib/openzeppelin-contracts/contracts/access/Ownable.sol\":2293:2394  function renounceOwnership() public virtual onlyOwner {... */\n      jump\t// out\n        /* \"VotingApplication/src/Contract.sol\":379:400  uint public votingEnd */\n    tag_44:\n      sload(0x05)\n      dup2\n      jump\t// out\n        /* \"VotingApplication/lib/openzeppelin-contracts/contracts/access/Ownable.sol\":1638:1723  function owner() public view virtual returns (address) {... */\n    tag_47:\n        /* \"VotingApplication/lib/openzeppelin-contracts/contracts/access/Ownable.sol\":1684:1691  address */\n      0x00\n        /* \"VotingApplication/lib/openzeppelin-contracts/contracts/access/Ownable.sol\":1710:1716  _owner */\n      0x00\n      0x00\n      swap1\n      sload\n      swap1\n      0x0100\n      exp\n      swap1\n      div\n      0xffffffffffffffffffffffffffffffffffffffff\n      and\n        /* \"VotingApplication/lib/openzeppelin-contracts/contracts/access/Ownable.sol\":1703:1716  return _owner */\n      swap1\n      pop\n        /* \"VotingApplication/lib/openzeppelin-contracts/contracts/access/Ownable.sol\":1638:1723  function owner() public view virtual returns (address) {... */\n      swap1\n      jump\t// out\n        /* \"VotingApplication/src/Contract.sol\":305:343  mapping(address => bool) public voters */\n    tag_53:\n      mstore(0x20, 0x03)\n      dup1\n      0x00\n      mstore\n      keccak256(0x00, 0x40)\n      0x00\n      swap2\n      pop\n      sload\n      swap1\n      0x0100\n      exp\n      swap1\n      div\n      0xff\n      and\n      dup2\n      jump\t// out\n        /* \"VotingApplication/src/Contract.sol\":727:1058  function addCandidates(string[] memory _candidatesNames) public onlyOwner {... */\n    tag_59:\n        /* \"VotingApplication/lib/openzeppelin-contracts/contracts/access/Ownable.sol\":1531:1544  _checkOwner() */\n      tag_140\n        /* \"VotingApplication/lib/openzeppelin-contracts/contracts/access/Ownable.sol\":1531:1542  _checkOwner */\n      tag_95\n        /* \"VotingApplication/lib/openzeppelin-contracts/contracts/access/Ownable.sol\":1531:1544  _checkOwner() */\n      jump\t// in\n    tag_140:\n        /* \"VotingApplication/src/Contract.sol\":832:833  0 */\n      0x00\n        /* \"VotingApplication/src/Contract.sol\":819:828  votingEnd */\n      sload(0x05)\n        /* \"VotingApplication/src/Contract.sol\":819:833  votingEnd == 0 */\n      eq\n        /* \"VotingApplication/src/Contract.sol\":811:856  require(votingEnd == 0, \"Voting has Started\") */\n      tag_142\n      jumpi\n      mload(0x40)\n      0x08c379a000000000000000000000000000000000000000000000000000000000\n      dup2\n      mstore\n      0x04\n      add\n      tag_143\n      swap1\n      tag_144\n      jump\t// in\n    tag_143:\n      mload(0x40)\n      dup1\n      swap2\n      sub\n      swap1\n      revert\n    tag_142:\n        /* \"VotingApplication/src/Contract.sol\":870:876  uint i */\n      0x00\n        /* \"VotingApplication/src/Contract.sol\":877:878  0 */\n      0x00\n        /* \"VotingApplication/src/Contract.sol\":870:878  uint i=0 */\n      swap1\n      pop\n        /* \"VotingApplication/src/Contract.sol\":866:1052  for(uint i=0; i<_candidatesNames.length; i++) {... */\n    tag_145:\n        /* \"VotingApplication/src/Contract.sol\":882:898  _candidatesNames */\n      dup2\n        /* \"VotingApplication/src/Contract.sol\":882:905  _candidatesNames.length */\n      mload\n        /* \"VotingApplication/src/Contract.sol\":880:881  i */\n      dup2\n        /* \"VotingApplication/src/Contract.sol\":880:905  i<_candidatesNames.length */\n      lt\n        /* \"VotingApplication/src/Contract.sol\":866:1052  for(uint i=0; i<_candidatesNames.length; i++) {... */\n      iszero\n      tag_146\n      jumpi\n        /* \"VotingApplication/src/Contract.sol\":926:936  candidates */\n      0x01\n        /* \"VotingApplication/src/Contract.sol\":942:1040  Candidate({... */\n      mload(0x40)\n      dup1\n      0x40\n      add\n      0x40\n      mstore\n      dup1\n        /* \"VotingApplication/src/Contract.sol\":976:992  _candidatesNames */\n      dup5\n        /* \"VotingApplication/src/Contract.sol\":993:994  i */\n      dup5\n        /* \"VotingApplication/src/Contract.sol\":976:995  _candidatesNames[i] */\n      dup2\n      mload\n      dup2\n      lt\n      tag_148\n      jumpi\n      tag_149\n      tag_79\n      jump\t// in\n    tag_149:\n    tag_148:\n      0x20\n      mul\n      0x20\n      add\n      add\n      mload\n        /* \"VotingApplication/src/Contract.sol\":942:1040  Candidate({... */\n      dup2\n      mstore\n      0x20\n      add\n        /* \"VotingApplication/src/Contract.sol\":1024:1025  0 */\n      0x00\n        /* \"VotingApplication/src/Contract.sol\":942:1040  Candidate({... */\n      dup2\n      mstore\n      pop\n        /* \"VotingApplication/src/Contract.sol\":926:1041  candidates.push(Candidate({... */\n      swap1\n      dup1\n      0x01\n      dup2\n      sload\n      add\n      dup1\n      dup3\n      sstore\n      dup1\n      swap2\n      pop\n      pop\n      0x01\n      swap1\n      sub\n      swap1\n      0x00\n      mstore\n      keccak256(0x00, 0x20)\n      swap1\n      0x02\n      mul\n      add\n      0x00\n      swap1\n      swap2\n      swap1\n      swap2\n      swap1\n      swap2\n      pop\n      0x00\n      dup3\n      add\n      mload\n      dup2\n      0x00\n      add\n      swap1\n      dup2\n      tag_151\n      swap2\n      swap1\n      tag_152\n      jump\t// in\n    tag_151:\n      pop\n      0x20\n      dup3\n      add\n      mload\n      dup2\n      0x01\n      add\n      sstore\n      pop\n      pop\n        /* \"VotingApplication/src/Contract.sol\":907:910  i++ */\n      dup1\n      dup1\n      0x01\n      add\n      swap2\n      pop\n      pop\n        /* \"VotingApplication/src/Contract.sol\":866:1052  for(uint i=0; i<_candidatesNames.length; i++) {... */\n      jump(tag_145)\n    tag_146:\n      pop\n        /* \"VotingApplication/src/Contract.sol\":727:1058  function addCandidates(string[] memory _candidatesNames) public onlyOwner {... */\n      pop\n      jump\t// out\n        /* \"VotingApplication/src/Contract.sol\":2028:2210  function getRemainingTime() public view returns (uint) {... */\n    tag_61:\n        /* \"VotingApplication/src/Contract.sol\":2077:2081  uint */\n      0x00\n        /* \"VotingApplication/src/Contract.sol\":2116:2125  votingEnd */\n      sload(0x05)\n        /* \"VotingApplication/src/Contract.sol\":2097:2112  block.timestamp */\n      timestamp\n        /* \"VotingApplication/src/Contract.sol\":2097:2125  block.timestamp >= votingEnd */\n      lt\n        /* \"VotingApplication/src/Contract.sol\":2093:2160  if (block.timestamp >= votingEnd) {... */\n      tag_154\n      jumpi\n        /* \"VotingApplication/src/Contract.sol\":2148:2149  0 */\n      0x00\n        /* \"VotingApplication/src/Contract.sol\":2141:2149  return 0 */\n      swap1\n      pop\n      jump(tag_153)\n        /* \"VotingApplication/src/Contract.sol\":2093:2160  if (block.timestamp >= votingEnd) {... */\n    tag_154:\n        /* \"VotingApplication/src/Contract.sol\":2188:2203  block.timestamp */\n      timestamp\n        /* \"VotingApplication/src/Contract.sol\":2176:2185  votingEnd */\n      sload(0x05)\n        /* \"VotingApplication/src/Contract.sol\":2176:2203  votingEnd - block.timestamp */\n      tag_155\n      swap2\n      swap1\n      tag_103\n      jump\t// in\n    tag_155:\n        /* \"VotingApplication/src/Contract.sol\":2169:2203  return votingEnd - block.timestamp */\n      swap1\n      pop\n        /* \"VotingApplication/src/Contract.sol\":2028:2210  function getRemainingTime() public view returns (uint) {... */\n    tag_153:\n      swap1\n      jump\t// out\n        /* \"VotingApplication/lib/openzeppelin-contracts/contracts/access/Ownable.sol\":2543:2758  function transferOwnership(address newOwner) public virtual onlyOwner {... */\n    tag_65:\n        /* \"VotingApplication/lib/openzeppelin-contracts/contracts/access/Ownable.sol\":1531:1544  _checkOwner() */\n      tag_157\n        /* \"VotingApplication/lib/openzeppelin-contracts/contracts/access/Ownable.sol\":1531:1542  _checkOwner */\n      tag_95\n        /* \"VotingApplication/lib/openzeppelin-contracts/contracts/access/Ownable.sol\":1531:1544  _checkOwner() */\n      jump\t// in\n    tag_157:\n        /* \"VotingApplication/lib/openzeppelin-contracts/contracts/access/Ownable.sol\":2647:2648  0 */\n      0x00\n        /* \"VotingApplication/lib/openzeppelin-contracts/contracts/access/Ownable.sol\":2627:2649  newOwner == address(0) */\n      0xffffffffffffffffffffffffffffffffffffffff\n      and\n        /* \"VotingApplication/lib/openzeppelin-contracts/contracts/access/Ownable.sol\":2627:2635  newOwner */\n      dup2\n        /* \"VotingApplication/lib/openzeppelin-contracts/contracts/access/Ownable.sol\":2627:2649  newOwner == address(0) */\n      0xffffffffffffffffffffffffffffffffffffffff\n      and\n      sub\n        /* \"VotingApplication/lib/openzeppelin-contracts/contracts/access/Ownable.sol\":2623:2714  if (newOwner == address(0)) {... */\n      tag_159\n      jumpi\n        /* \"VotingApplication/lib/openzeppelin-contracts/contracts/access/Ownable.sol\":2700:2701  0 */\n      0x00\n        /* \"VotingApplication/lib/openzeppelin-contracts/contracts/access/Ownable.sol\":2672:2703  OwnableInvalidOwner(address(0)) */\n      mload(0x40)\n      0x1e4fbdf700000000000000000000000000000000000000000000000000000000\n      dup2\n      mstore\n      0x04\n      add\n      tag_160\n      swap2\n      swap1\n      tag_49\n      jump\t// in\n    tag_160:\n      mload(0x40)\n      dup1\n      swap2\n      sub\n      swap1\n      revert\n        /* \"VotingApplication/lib/openzeppelin-contracts/contracts/access/Ownable.sol\":2623:2714  if (newOwner == address(0)) {... */\n    tag_159:\n        /* \"VotingApplication/lib/openzeppelin-contracts/contracts/access/Ownable.sol\":2723:2751  _transferOwnership(newOwner) */\n      tag_161\n        /* \"VotingApplication/lib/openzeppelin-contracts/contracts/access/Ownable.sol\":2742:2750  newOwner */\n      dup2\n        /* \"VotingApplication/lib/openzeppelin-contracts/contracts/access/Ownable.sol\":2723:2741  _transferOwnership */\n      tag_137\n        /* \"VotingApplication/lib/openzeppelin-contracts/contracts/access/Ownable.sol\":2723:2751  _transferOwnership(newOwner) */\n      jump\t// in\n    tag_161:\n        /* \"VotingApplication/lib/openzeppelin-contracts/contracts/access/Ownable.sol\":2543:2758  function transferOwnership(address newOwner) public virtual onlyOwner {... */\n      pop\n      jump\t// out\n        /* \"VotingApplication/lib/openzeppelin-contracts/contracts/access/Ownable.sol\":1796:1958  function _checkOwner() internal view virtual {... */\n    tag_95:\n        /* \"VotingApplication/lib/openzeppelin-contracts/contracts/access/Ownable.sol\":1866:1878  _msgSender() */\n      tag_163\n        /* \"VotingApplication/lib/openzeppelin-contracts/contracts/access/Ownable.sol\":1866:1876  _msgSender */\n      tag_164\n        /* \"VotingApplication/lib/openzeppelin-contracts/contracts/access/Ownable.sol\":1866:1878  _msgSender() */\n      jump\t// in\n    tag_163:\n        /* \"VotingApplication/lib/openzeppelin-contracts/contracts/access/Ownable.sol\":1855:1878  owner() != _msgSender() */\n      0xffffffffffffffffffffffffffffffffffffffff\n      and\n        /* \"VotingApplication/lib/openzeppelin-contracts/contracts/access/Ownable.sol\":1855:1862  owner() */\n      tag_165\n        /* \"VotingApplication/lib/openzeppelin-contracts/contracts/access/Ownable.sol\":1855:1860  owner */\n      tag_47\n        /* \"VotingApplication/lib/openzeppelin-contracts/contracts/access/Ownable.sol\":1855:1862  owner() */\n      jump\t// in\n    tag_165:\n        /* \"VotingApplication/lib/openzeppelin-contracts/contracts/access/Ownable.sol\":1855:1878  owner() != _msgSender() */\n      0xffffffffffffffffffffffffffffffffffffffff\n      and\n      eq\n        /* \"VotingApplication/lib/openzeppelin-contracts/contracts/access/Ownable.sol\":1851:1952  if (owner() != _msgSender()) {... */\n      tag_166\n      jumpi\n        /* \"VotingApplication/lib/openzeppelin-contracts/contracts/access/Ownable.sol\":1928:1940  _msgSender() */\n      tag_167\n        /* \"VotingApplication/lib/openzeppelin-contracts/contracts/access/Ownable.sol\":1928:1938  _msgSender */\n      tag_164\n        /* \"VotingApplication/lib/openzeppelin-contracts/contracts/access/Ownable.sol\":1928:1940  _msgSender() */\n      jump\t// in\n    tag_167:\n        /* \"VotingApplication/lib/openzeppelin-contracts/contracts/access/Ownable.sol\":1901:1941  OwnableUnauthorizedAccount(_msgSender()) */\n      mload(0x40)\n      0x118cdaa700000000000000000000000000000000000000000000000000000000\n      dup2\n      mstore\n      0x04\n      add\n      tag_168\n      swap2\n      swap1\n      tag_49\n      jump\t// in\n    tag_168:\n      mload(0x40)\n      dup1\n      swap2\n      sub\n      swap1\n      revert\n        /* \"VotingApplication/lib/openzeppelin-contracts/contracts/access/Ownable.sol\":1851:1952  if (owner() != _msgSender()) {... */\n    tag_166:\n        /* \"VotingApplication/lib/openzeppelin-contracts/contracts/access/Ownable.sol\":1796:1958  function _checkOwner() internal view virtual {... */\n      jump\t// out\n        /* \"VotingApplication/lib/openzeppelin-contracts/contracts/access/Ownable.sol\":2912:3099  function _transferOwnership(address newOwner) internal virtual {... */\n    tag_137:\n        /* \"VotingApplication/lib/openzeppelin-contracts/contracts/access/Ownable.sol\":2985:3001  address oldOwner */\n      0x00\n        /* \"VotingApplication/lib/openzeppelin-contracts/contracts/access/Ownable.sol\":3004:3010  _owner */\n      0x00\n      0x00\n      swap1\n      sload\n      swap1\n      0x0100\n      exp\n      swap1\n      div\n      0xffffffffffffffffffffffffffffffffffffffff\n      and\n        /* \"VotingApplication/lib/openzeppelin-contracts/contracts/access/Ownable.sol\":2985:3010  address oldOwner = _owner */\n      swap1\n      pop\n        /* \"VotingApplication/lib/openzeppelin-contracts/contracts/access/Ownable.sol\":3029:3037  newOwner */\n      dup2\n        /* \"VotingApplication/lib/openzeppelin-contracts/contracts/access/Ownable.sol\":3020:3026  _owner */\n      0x00\n      0x00\n        /* \"VotingApplication/lib/openzeppelin-contracts/contracts/access/Ownable.sol\":3020:3037  _owner = newOwner */\n      0x0100\n      exp\n      dup2\n      sload\n      dup2\n      0xffffffffffffffffffffffffffffffffffffffff\n      mul\n      not\n      and\n      swap1\n      dup4\n      0xffffffffffffffffffffffffffffffffffffffff\n      and\n      mul\n      or\n      swap1\n      sstore\n      pop\n        /* \"VotingApplication/lib/openzeppelin-contracts/contracts/access/Ownable.sol\":3083:3091  newOwner */\n      dup2\n        /* \"VotingApplication/lib/openzeppelin-contracts/contracts/access/Ownable.sol\":3052:3092  OwnershipTransferred(oldOwner, newOwner) */\n      0xffffffffffffffffffffffffffffffffffffffff\n      and\n        /* \"VotingApplication/lib/openzeppelin-contracts/contracts/access/Ownable.sol\":3073:3081  oldOwner */\n      dup2\n        /* \"VotingApplication/lib/openzeppelin-contracts/contracts/access/Ownable.sol\":3052:3092  OwnershipTransferred(oldOwner, newOwner) */\n      0xffffffffffffffffffffffffffffffffffffffff\n      and\n      0x8be0079c531659141344cd1fd0a4f28419497f9722a3daafe3b4186f6b6457e0\n      mload(0x40)\n      mload(0x40)\n      dup1\n      swap2\n      sub\n      swap1\n      log3\n        /* \"VotingApplication/lib/openzeppelin-contracts/contracts/access/Ownable.sol\":2975:3099  {... */\n      pop\n        /* \"VotingApplication/lib/openzeppelin-contracts/contracts/access/Ownable.sol\":2912:3099  function _transferOwnership(address newOwner) internal virtual {... */\n      pop\n      jump\t// out\n        /* \"VotingApplication/lib/openzeppelin-contracts/contracts/utils/Context.sol\":656:752  function _msgSender() internal view virtual returns (address) {... */\n    tag_164:\n        /* \"VotingApplication/lib/openzeppelin-contracts/contracts/utils/Context.sol\":709:716  address */\n      0x00\n        /* \"VotingApplication/lib/openzeppelin-contracts/contracts/utils/Context.sol\":735:745  msg.sender */\n      caller\n        /* \"VotingApplication/lib/openzeppelin-contracts/contracts/utils/Context.sol\":728:745  return msg.sender */\n      swap1\n      pop\n        /* \"VotingApplication/lib/openzeppelin-contracts/contracts/utils/Context.sol\":656:752  function _msgSender() internal view virtual returns (address) {... */\n      swap1\n      jump\t// out\n    tag_119:\n      pop\n      dup1\n      sload\n      tag_171\n      swap1\n      tag_88\n      jump\t// in\n    tag_171:\n      0x00\n      dup3\n      sstore\n      dup1\n      0x1f\n      lt\n      tag_173\n      jumpi\n      pop\n      jump(tag_172)\n    tag_173:\n      0x1f\n      add\n      0x20\n      swap1\n      div\n      swap1\n      0x00\n      mstore\n      keccak256(0x00, 0x20)\n      swap1\n      dup2\n      add\n      swap1\n      tag_174\n      swap2\n      swap1\n      tag_175\n      jump\t// in\n    tag_174:\n    tag_172:\n      pop\n      jump\t// out\n    tag_175:\n    tag_176:\n      dup1\n      dup3\n      gt\n      iszero\n      tag_177\n      jumpi\n      0x00\n      dup2\n      0x00\n      swap1\n      sstore\n      pop\n      0x01\n      add\n      jump(tag_176)\n    tag_177:\n      pop\n      swap1\n      jump\t// out\n        /* \"#utility.yul\":7:82   */\n    tag_178:\n        /* \"#utility.yul\":40:46   */\n      0x00\n        /* \"#utility.yul\":73:75   */\n      0x40\n        /* \"#utility.yul\":67:76   */\n      mload\n        /* \"#utility.yul\":57:76   */\n      swap1\n      pop\n        /* \"#utility.yul\":7:82   */\n      swap1\n      jump\t// out\n        /* \"#utility.yul\":88:205   */\n    tag_179:\n        /* \"#utility.yul\":197:198   */\n      0x00\n        /* \"#utility.yul\":194:195   */\n      0x00\n        /* \"#utility.yul\":187:199   */\n      revert\n        /* \"#utility.yul\":211:328   */\n    tag_180:\n        /* \"#utility.yul\":320:321   */\n      0x00\n        /* \"#utility.yul\":317:318   */\n      0x00\n        /* \"#utility.yul\":310:322   */\n      revert\n        /* \"#utility.yul\":334:411   */\n    tag_181:\n        /* \"#utility.yul\":371:378   */\n      0x00\n        /* \"#utility.yul\":400:405   */\n      dup2\n        /* \"#utility.yul\":389:405   */\n      swap1\n      pop\n        /* \"#utility.yul\":334:411   */\n      swap2\n      swap1\n      pop\n      jump\t// out\n        /* \"#utility.yul\":417:539   */\n    tag_182:\n        /* \"#utility.yul\":490:514   */\n      tag_252\n        /* \"#utility.yul\":508:513   */\n      dup2\n        /* \"#utility.yul\":490:514   */\n      tag_181\n      jump\t// in\n    tag_252:\n        /* \"#utility.yul\":483:488   */\n      dup2\n        /* \"#utility.yul\":480:515   */\n      eq\n        /* \"#utility.yul\":470:533   */\n      tag_253\n      jumpi\n        /* \"#utility.yul\":529:530   */\n      0x00\n        /* \"#utility.yul\":526:527   */\n      0x00\n        /* \"#utility.yul\":519:531   */\n      revert\n        /* \"#utility.yul\":470:533   */\n    tag_253:\n        /* \"#utility.yul\":417:539   */\n      pop\n      jump\t// out\n        /* \"#utility.yul\":545:684   */\n    tag_183:\n        /* \"#utility.yul\":591:596   */\n      0x00\n        /* \"#utility.yul\":629:635   */\n      dup2\n        /* \"#utility.yul\":616:636   */\n      calldataload\n        /* \"#utility.yul\":607:636   */\n      swap1\n      pop\n        /* \"#utility.yul\":645:678   */\n      tag_255\n        /* \"#utility.yul\":672:677   */\n      dup2\n        /* \"#utility.yul\":645:678   */\n      tag_182\n      jump\t// in\n    tag_255:\n        /* \"#utility.yul\":545:684   */\n      swap3\n      swap2\n      pop\n      pop\n      jump\t// out\n        /* \"#utility.yul\":690:1019   */\n    tag_20:\n        /* \"#utility.yul\":749:755   */\n      0x00\n        /* \"#utility.yul\":798:800   */\n      0x20\n        /* \"#utility.yul\":786:795   */\n      dup3\n        /* \"#utility.yul\":777:784   */\n      dup5\n        /* \"#utility.yul\":773:796   */\n      sub\n        /* \"#utility.yul\":769:801   */\n      slt\n        /* \"#utility.yul\":766:885   */\n      iszero\n      tag_257\n      jumpi\n        /* \"#utility.yul\":804:883   */\n      tag_258\n      tag_179\n      jump\t// in\n    tag_258:\n        /* \"#utility.yul\":766:885   */\n    tag_257:\n        /* \"#utility.yul\":924:925   */\n      0x00\n        /* \"#utility.yul\":949:1002   */\n      tag_259\n        /* \"#utility.yul\":994:1001   */\n      dup5\n        /* \"#utility.yul\":985:991   */\n      dup3\n        /* \"#utility.yul\":974:983   */\n      dup6\n        /* \"#utility.yul\":970:992   */\n      add\n        /* \"#utility.yul\":949:1002   */\n      tag_183\n      jump\t// in\n    tag_259:\n        /* \"#utility.yul\":939:1002   */\n      swap2\n      pop\n        /* \"#utility.yul\":895:1012   */\n      pop\n        /* \"#utility.yul\":690:1019   */\n      swap3\n      swap2\n      pop\n      pop\n      jump\t// out\n        /* \"#utility.yul\":1025:1165   */\n    tag_184:\n        /* \"#utility.yul\":1118:1124   */\n      0x00\n        /* \"#utility.yul\":1152:1157   */\n      dup2\n        /* \"#utility.yul\":1146:1158   */\n      mload\n        /* \"#utility.yul\":1136:1158   */\n      swap1\n      pop\n        /* \"#utility.yul\":1025:1165   */\n      swap2\n      swap1\n      pop\n      jump\t// out\n        /* \"#utility.yul\":1171:1381   */\n    tag_185:\n        /* \"#utility.yul\":1296:1307   */\n      0x00\n        /* \"#utility.yul\":1330:1336   */\n      dup3\n        /* \"#utility.yul\":1325:1328   */\n      dup3\n        /* \"#utility.yul\":1318:1337   */\n      mstore\n        /* \"#utility.yul\":1370:1374   */\n      0x20\n        /* \"#utility.yul\":1365:1368   */\n      dup3\n        /* \"#utility.yul\":1361:1375   */\n      add\n        /* \"#utility.yul\":1346:1375   */\n      swap1\n      pop\n        /* \"#utility.yul\":1171:1381   */\n      swap3\n      swap2\n      pop\n      pop\n      jump\t// out\n        /* \"#utility.yul\":1387:1545   */\n    tag_186:\n        /* \"#utility.yul\":1480:1484   */\n      0x00\n        /* \"#utility.yul\":1503:1506   */\n      dup2\n        /* \"#utility.yul\":1495:1506   */\n      swap1\n      pop\n        /* \"#utility.yul\":1533:1537   */\n      0x20\n        /* \"#utility.yul\":1528:1531   */\n      dup3\n        /* \"#utility.yul\":1524:1538   */\n      add\n        /* \"#utility.yul\":1516:1538   */\n      swap1\n      pop\n        /* \"#utility.yul\":1387:1545   */\n      swap2\n      swap1\n      pop\n      jump\t// out\n        /* \"#utility.yul\":1551:1650   */\n    tag_187:\n        /* \"#utility.yul\":1603:1609   */\n      0x00\n        /* \"#utility.yul\":1637:1642   */\n      dup2\n        /* \"#utility.yul\":1631:1643   */\n      mload\n        /* \"#utility.yul\":1621:1643   */\n      swap1\n      pop\n        /* \"#utility.yul\":1551:1650   */\n      swap2\n      swap1\n      pop\n      jump\t// out\n        /* \"#utility.yul\":1656:1815   */\n    tag_188:\n        /* \"#utility.yul\":1730:1741   */\n      0x00\n        /* \"#utility.yul\":1764:1770   */\n      dup3\n        /* \"#utility.yul\":1759:1762   */\n      dup3\n        /* \"#utility.yul\":1752:1771   */\n      mstore\n        /* \"#utility.yul\":1804:1808   */\n      0x20\n        /* \"#utility.yul\":1799:1802   */\n      dup3\n        /* \"#utility.yul\":1795:1809   */\n      add\n        /* \"#utility.yul\":1780:1809   */\n      swap1\n      pop\n        /* \"#utility.yul\":1656:1815   */\n      swap3\n      swap2\n      pop\n      pop\n      jump\t// out\n        /* \"#utility.yul\":1821:1960   */\n    tag_189:\n        /* \"#utility.yul\":1910:1916   */\n      dup3\n        /* \"#utility.yul\":1905:1908   */\n      dup2\n        /* \"#utility.yul\":1900:1903   */\n      dup4\n        /* \"#utility.yul\":1894:1917   */\n      mcopy\n        /* \"#utility.yul\":1951:1952   */\n      0x00\n        /* \"#utility.yul\":1942:1948   */\n      dup4\n        /* \"#utility.yul\":1937:1940   */\n      dup4\n        /* \"#utility.yul\":1933:1949   */\n      add\n        /* \"#utility.yul\":1926:1953   */\n      mstore\n        /* \"#utility.yul\":1821:1960   */\n      pop\n      pop\n      pop\n      jump\t// out\n        /* \"#utility.yul\":1966:2068   */\n    tag_190:\n        /* \"#utility.yul\":2007:2013   */\n      0x00\n        /* \"#utility.yul\":2058:2060   */\n      0x1f\n        /* \"#utility.yul\":2054:2061   */\n      not\n        /* \"#utility.yul\":2049:2051   */\n      0x1f\n        /* \"#utility.yul\":2042:2047   */\n      dup4\n        /* \"#utility.yul\":2038:2052   */\n      add\n        /* \"#utility.yul\":2034:2062   */\n      and\n        /* \"#utility.yul\":2024:2062   */\n      swap1\n      pop\n        /* \"#utility.yul\":1966:2068   */\n      swap2\n      swap1\n      pop\n      jump\t// out\n        /* \"#utility.yul\":2074:2431   */\n    tag_191:\n        /* \"#utility.yul\":2152:2155   */\n      0x00\n        /* \"#utility.yul\":2180:2219   */\n      tag_268\n        /* \"#utility.yul\":2213:2218   */\n      dup3\n        /* \"#utility.yul\":2180:2219   */\n      tag_187\n      jump\t// in\n    tag_268:\n        /* \"#utility.yul\":2235:2296   */\n      tag_269\n        /* \"#utility.yul\":2289:2295   */\n      dup2\n        /* \"#utility.yul\":2284:2287   */\n      dup6\n        /* \"#utility.yul\":2235:2296   */\n      tag_188\n      jump\t// in\n    tag_269:\n        /* \"#utility.yul\":2228:2296   */\n      swap4\n      pop\n        /* \"#utility.yul\":2305:2370   */\n      tag_270\n        /* \"#utility.yul\":2363:2369   */\n      dup2\n        /* \"#utility.yul\":2358:2361   */\n      dup6\n        /* \"#utility.yul\":2351:2355   */\n      0x20\n        /* \"#utility.yul\":2344:2349   */\n      dup7\n        /* \"#utility.yul\":2340:2356   */\n      add\n        /* \"#utility.yul\":2305:2370   */\n      tag_189\n      jump\t// in\n    tag_270:\n        /* \"#utility.yul\":2395:2424   */\n      tag_271\n        /* \"#utility.yul\":2417:2423   */\n      dup2\n        /* \"#utility.yul\":2395:2424   */\n      tag_190\n      jump\t// in\n    tag_271:\n        /* \"#utility.yul\":2390:2393   */\n      dup5\n        /* \"#utility.yul\":2386:2425   */\n      add\n        /* \"#utility.yul\":2379:2425   */\n      swap2\n      pop\n        /* \"#utility.yul\":2156:2431   */\n      pop\n        /* \"#utility.yul\":2074:2431   */\n      swap3\n      swap2\n      pop\n      pop\n      jump\t// out\n        /* \"#utility.yul\":2437:2545   */\n    tag_192:\n        /* \"#utility.yul\":2514:2538   */\n      tag_273\n        /* \"#utility.yul\":2532:2537   */\n      dup2\n        /* \"#utility.yul\":2514:2538   */\n      tag_181\n      jump\t// in\n    tag_273:\n        /* \"#utility.yul\":2509:2512   */\n      dup3\n        /* \"#utility.yul\":2502:2539   */\n      mstore\n        /* \"#utility.yul\":2437:2545   */\n      pop\n      pop\n      jump\t// out\n        /* \"#utility.yul\":2609:3212   */\n    tag_193:\n        /* \"#utility.yul\":2720:2723   */\n      0x00\n        /* \"#utility.yul\":2756:2760   */\n      0x40\n        /* \"#utility.yul\":2751:2754   */\n      dup4\n        /* \"#utility.yul\":2747:2761   */\n      add\n        /* \"#utility.yul\":2843:2847   */\n      0x00\n        /* \"#utility.yul\":2836:2841   */\n      dup4\n        /* \"#utility.yul\":2832:2848   */\n      add\n        /* \"#utility.yul\":2826:2849   */\n      mload\n        /* \"#utility.yul\":2896:2899   */\n      dup5\n        /* \"#utility.yul\":2890:2894   */\n      dup3\n        /* \"#utility.yul\":2886:2900   */\n      sub\n        /* \"#utility.yul\":2879:2883   */\n      0x00\n        /* \"#utility.yul\":2874:2877   */\n      dup7\n        /* \"#utility.yul\":2870:2884   */\n      add\n        /* \"#utility.yul\":2863:2901   */\n      mstore\n        /* \"#utility.yul\":2922:2995   */\n      tag_275\n        /* \"#utility.yul\":2990:2994   */\n      dup3\n        /* \"#utility.yul\":2976:2988   */\n      dup3\n        /* \"#utility.yul\":2922:2995   */\n      tag_191\n      jump\t// in\n    tag_275:\n        /* \"#utility.yul\":2914:2995   */\n      swap2\n      pop\n        /* \"#utility.yul\":2771:3006   */\n      pop\n        /* \"#utility.yul\":3093:3097   */\n      0x20\n        /* \"#utility.yul\":3086:3091   */\n      dup4\n        /* \"#utility.yul\":3082:3098   */\n      add\n        /* \"#utility.yul\":3076:3099   */\n      mload\n        /* \"#utility.yul\":3112:3175   */\n      tag_276\n        /* \"#utility.yul\":3169:3173   */\n      0x20\n        /* \"#utility.yul\":3164:3167   */\n      dup7\n        /* \"#utility.yul\":3160:3174   */\n      add\n        /* \"#utility.yul\":3146:3158   */\n      dup3\n        /* \"#utility.yul\":3112:3175   */\n      tag_192\n      jump\t// in\n    tag_276:\n        /* \"#utility.yul\":3016:3185   */\n      pop\n        /* \"#utility.yul\":3202:3206   */\n      dup1\n        /* \"#utility.yul\":3195:3206   */\n      swap2\n      pop\n        /* \"#utility.yul\":2725:3212   */\n      pop\n        /* \"#utility.yul\":2609:3212   */\n      swap3\n      swap2\n      pop\n      pop\n      jump\t// out\n        /* \"#utility.yul\":3218:3478   */\n    tag_194:\n        /* \"#utility.yul\":3339:3349   */\n      0x00\n        /* \"#utility.yul\":3374:3472   */\n      tag_278\n        /* \"#utility.yul\":3468:3471   */\n      dup4\n        /* \"#utility.yul\":3460:3466   */\n      dup4\n        /* \"#utility.yul\":3374:3472   */\n      tag_193\n      jump\t// in\n    tag_278:\n        /* \"#utility.yul\":3360:3472   */\n      swap1\n      pop\n        /* \"#utility.yul\":3218:3478   */\n      swap3\n      swap2\n      pop\n      pop\n      jump\t// out\n        /* \"#utility.yul\":3484:3623   */\n    tag_195:\n        /* \"#utility.yul\":3580:3584   */\n      0x00\n        /* \"#utility.yul\":3612:3616   */\n      0x20\n        /* \"#utility.yul\":3607:3610   */\n      dup3\n        /* \"#utility.yul\":3603:3617   */\n      add\n        /* \"#utility.yul\":3595:3617   */\n      swap1\n      pop\n        /* \"#utility.yul\":3484:3623   */\n      swap2\n      swap1\n      pop\n      jump\t// out\n        /* \"#utility.yul\":3691:4810   */\n    tag_196:\n        /* \"#utility.yul\":3862:3865   */\n      0x00\n        /* \"#utility.yul\":3891:3971   */\n      tag_281\n        /* \"#utility.yul\":3965:3970   */\n      dup3\n        /* \"#utility.yul\":3891:3971   */\n      tag_184\n      jump\t// in\n    tag_281:\n        /* \"#utility.yul\":3987:4099   */\n      tag_282\n        /* \"#utility.yul\":4092:4098   */\n      dup2\n        /* \"#utility.yul\":4087:4090   */\n      dup6\n        /* \"#utility.yul\":3987:4099   */\n      tag_185\n      jump\t// in\n    tag_282:\n        /* \"#utility.yul\":3980:4099   */\n      swap4\n      pop\n        /* \"#utility.yul\":4125:4128   */\n      dup4\n        /* \"#utility.yul\":4170:4174   */\n      0x20\n        /* \"#utility.yul\":4162:4168   */\n      dup3\n        /* \"#utility.yul\":4158:4175   */\n      mul\n        /* \"#utility.yul\":4153:4156   */\n      dup6\n        /* \"#utility.yul\":4149:4176   */\n      add\n        /* \"#utility.yul\":4200:4282   */\n      tag_283\n        /* \"#utility.yul\":4276:4281   */\n      dup6\n        /* \"#utility.yul\":4200:4282   */\n      tag_186\n      jump\t// in\n    tag_283:\n        /* \"#utility.yul\":4305:4312   */\n      dup1\n        /* \"#utility.yul\":4336:4337   */\n      0x00\n        /* \"#utility.yul\":4321:4765   */\n    tag_284:\n        /* \"#utility.yul\":4346:4352   */\n      dup6\n        /* \"#utility.yul\":4343:4344   */\n      dup2\n        /* \"#utility.yul\":4340:4353   */\n      lt\n        /* \"#utility.yul\":4321:4765   */\n      iszero\n      tag_286\n      jumpi\n        /* \"#utility.yul\":4417:4426   */\n      dup5\n        /* \"#utility.yul\":4411:4415   */\n      dup5\n        /* \"#utility.yul\":4407:4427   */\n      sub\n        /* \"#utility.yul\":4402:4405   */\n      dup10\n        /* \"#utility.yul\":4395:4428   */\n      mstore\n        /* \"#utility.yul\":4468:4474   */\n      dup2\n        /* \"#utility.yul\":4462:4475   */\n      mload\n        /* \"#utility.yul\":4496:4612   */\n      tag_287\n        /* \"#utility.yul\":4607:4611   */\n      dup6\n        /* \"#utility.yul\":4592:4605   */\n      dup3\n        /* \"#utility.yul\":4496:4612   */\n      tag_194\n      jump\t// in\n    tag_287:\n        /* \"#utility.yul\":4488:4612   */\n      swap5\n      pop\n        /* \"#utility.yul\":4635:4721   */\n      tag_288\n        /* \"#utility.yul\":4714:4720   */\n      dup4\n        /* \"#utility.yul\":4635:4721   */\n      tag_195\n      jump\t// in\n    tag_288:\n        /* \"#utility.yul\":4625:4721   */\n      swap3\n      pop\n        /* \"#utility.yul\":4750:4754   */\n      0x20\n        /* \"#utility.yul\":4745:4748   */\n      dup11\n        /* \"#utility.yul\":4741:4755   */\n      add\n        /* \"#utility.yul\":4734:4755   */\n      swap10\n      pop\n        /* \"#utility.yul\":4381:4765   */\n      pop\n        /* \"#utility.yul\":4368:4369   */\n      0x01\n        /* \"#utility.yul\":4365:4366   */\n      dup2\n        /* \"#utility.yul\":4361:4370   */\n      add\n        /* \"#utility.yul\":4356:4370   */\n      swap1\n      pop\n        /* \"#utility.yul\":4321:4765   */\n      jump(tag_284)\n    tag_286:\n        /* \"#utility.yul\":4325:4339   */\n      pop\n        /* \"#utility.yul\":4781:4785   */\n      dup3\n        /* \"#utility.yul\":4774:4785   */\n      swap8\n      pop\n        /* \"#utility.yul\":4801:4804   */\n      dup8\n        /* \"#utility.yul\":4794:4804   */\n      swap6\n      pop\n        /* \"#utility.yul\":3867:4810   */\n      pop\n      pop\n      pop\n      pop\n      pop\n        /* \"#utility.yul\":3691:4810   */\n      swap3\n      swap2\n      pop\n      pop\n      jump\t// out\n        /* \"#utility.yul\":4816:5293   */\n    tag_25:\n        /* \"#utility.yul\":5011:5015   */\n      0x00\n        /* \"#utility.yul\":5049:5051   */\n      0x20\n        /* \"#utility.yul\":5038:5047   */\n      dup3\n        /* \"#utility.yul\":5034:5052   */\n      add\n        /* \"#utility.yul\":5026:5052   */\n      swap1\n      pop\n        /* \"#utility.yul\":5098:5107   */\n      dup2\n        /* \"#utility.yul\":5092:5096   */\n      dup2\n        /* \"#utility.yul\":5088:5108   */\n      sub\n        /* \"#utility.yul\":5084:5085   */\n      0x00\n        /* \"#utility.yul\":5073:5082   */\n      dup4\n        /* \"#utility.yul\":5069:5086   */\n      add\n        /* \"#utility.yul\":5062:5109   */\n      mstore\n        /* \"#utility.yul\":5126:5286   */\n      tag_290\n        /* \"#utility.yul\":5281:5285   */\n      dup2\n        /* \"#utility.yul\":5272:5278   */\n      dup5\n        /* \"#utility.yul\":5126:5286   */\n      tag_196\n      jump\t// in\n    tag_290:\n        /* \"#utility.yul\":5118:5286   */\n      swap1\n      pop\n        /* \"#utility.yul\":4816:5293   */\n      swap3\n      swap2\n      pop\n      pop\n      jump\t// out\n        /* \"#utility.yul\":5299:5417   */\n    tag_197:\n        /* \"#utility.yul\":5386:5410   */\n      tag_292\n        /* \"#utility.yul\":5404:5409   */\n      dup2\n        /* \"#utility.yul\":5386:5410   */\n      tag_181\n      jump\t// in\n    tag_292:\n        /* \"#utility.yul\":5381:5384   */\n      dup3\n        /* \"#utility.yul\":5374:5411   */\n      mstore\n        /* \"#utility.yul\":5299:5417   */\n      pop\n      pop\n      jump\t// out\n        /* \"#utility.yul\":5423:5645   */\n    tag_32:\n        /* \"#utility.yul\":5516:5520   */\n      0x00\n        /* \"#utility.yul\":5554:5556   */\n      0x20\n        /* \"#utility.yul\":5543:5552   */\n      dup3\n        /* \"#utility.yul\":5539:5557   */\n      add\n        /* \"#utility.yul\":5531:5557   */\n      swap1\n      pop\n        /* \"#utility.yul\":5567:5638   */\n      tag_294\n        /* \"#utility.yul\":5635:5636   */\n      0x00\n        /* \"#utility.yul\":5624:5633   */\n      dup4\n        /* \"#utility.yul\":5620:5637   */\n      add\n        /* \"#utility.yul\":5611:5617   */\n      dup5\n        /* \"#utility.yul\":5567:5638   */\n      tag_197\n      jump\t// in\n    tag_294:\n        /* \"#utility.yul\":5423:5645   */\n      swap3\n      swap2\n      pop\n      pop\n      jump\t// out\n        /* \"#utility.yul\":5651:5820   */\n    tag_198:\n        /* \"#utility.yul\":5735:5746   */\n      0x00\n        /* \"#utility.yul\":5769:5775   */\n      dup3\n        /* \"#utility.yul\":5764:5767   */\n      dup3\n        /* \"#utility.yul\":5757:5776   */\n      mstore\n        /* \"#utility.yul\":5809:5813   */\n      0x20\n        /* \"#utility.yul\":5804:5807   */\n      dup3\n        /* \"#utility.yul\":5800:5814   */\n      add\n        /* \"#utility.yul\":5785:5814   */\n      swap1\n      pop\n        /* \"#utility.yul\":5651:5820   */\n      swap3\n      swap2\n      pop\n      pop\n      jump\t// out\n        /* \"#utility.yul\":5826:6203   */\n    tag_199:\n        /* \"#utility.yul\":5914:5917   */\n      0x00\n        /* \"#utility.yul\":5942:5981   */\n      tag_297\n        /* \"#utility.yul\":5975:5980   */\n      dup3\n        /* \"#utility.yul\":5942:5981   */\n      tag_187\n      jump\t// in\n    tag_297:\n        /* \"#utility.yul\":5997:6068   */\n      tag_298\n        /* \"#utility.yul\":6061:6067   */\n      dup2\n        /* \"#utility.yul\":6056:6059   */\n      dup6\n        /* \"#utility.yul\":5997:6068   */\n      tag_198\n      jump\t// in\n    tag_298:\n        /* \"#utility.yul\":5990:6068   */\n      swap4\n      pop\n        /* \"#utility.yul\":6077:6142   */\n      tag_299\n        /* \"#utility.yul\":6135:6141   */\n      dup2\n        /* \"#utility.yul\":6130:6133   */\n      dup6\n        /* \"#utility.yul\":6123:6127   */\n      0x20\n        /* \"#utility.yul\":6116:6121   */\n      dup7\n        /* \"#utility.yul\":6112:6128   */\n      add\n        /* \"#utility.yul\":6077:6142   */\n      tag_189\n      jump\t// in\n    tag_299:\n        /* \"#utility.yul\":6167:6196   */\n      tag_300\n        /* \"#utility.yul\":6189:6195   */\n      dup2\n        /* \"#utility.yul\":6167:6196   */\n      tag_190\n      jump\t// in\n    tag_300:\n        /* \"#utility.yul\":6162:6165   */\n      dup5\n        /* \"#utility.yul\":6158:6197   */\n      add\n        /* \"#utility.yul\":6151:6197   */\n      swap2\n      pop\n        /* \"#utility.yul\":5918:6203   */\n      pop\n        /* \"#utility.yul\":5826:6203   */\n      swap3\n      swap2\n      pop\n      pop\n      jump\t// out\n        /* \"#utility.yul\":6209:6632   */\n    tag_37:\n        /* \"#utility.yul\":6350:6354   */\n      0x00\n        /* \"#utility.yul\":6388:6390   */\n      0x40\n        /* \"#utility.yul\":6377:6386   */\n      dup3\n        /* \"#utility.yul\":6373:6391   */\n      add\n        /* \"#utility.yul\":6365:6391   */\n      swap1\n      pop\n        /* \"#utility.yul\":6437:6446   */\n      dup2\n        /* \"#utility.yul\":6431:6435   */\n      dup2\n        /* \"#utility.yul\":6427:6447   */\n      sub\n        /* \"#utility.yul\":6423:6424   */\n      0x00\n        /* \"#utility.yul\":6412:6421   */\n      dup4\n        /* \"#utility.yul\":6408:6425   */\n      add\n        /* \"#utility.yul\":6401:6448   */\n      mstore\n        /* \"#utility.yul\":6465:6543   */\n      tag_302\n        /* \"#utility.yul\":6538:6542   */\n      dup2\n        /* \"#utility.yul\":6529:6535   */\n      dup6\n        /* \"#utility.yul\":6465:6543   */\n      tag_199\n      jump\t// in\n    tag_302:\n        /* \"#utility.yul\":6457:6543   */\n      swap1\n      pop\n        /* \"#utility.yul\":6553:6625   */\n      tag_303\n        /* \"#utility.yul\":6621:6623   */\n      0x20\n        /* \"#utility.yul\":6610:6619   */\n      dup4\n        /* \"#utility.yul\":6606:6624   */\n      add\n        /* \"#utility.yul\":6597:6603   */\n      dup5\n        /* \"#utility.yul\":6553:6625   */\n      tag_197\n      jump\t// in\n    tag_303:\n        /* \"#utility.yul\":6209:6632   */\n      swap4\n      swap3\n      pop\n      pop\n      pop\n      jump\t// out\n        /* \"#utility.yul\":6638:6764   */\n    tag_200:\n        /* \"#utility.yul\":6675:6682   */\n      0x00\n        /* \"#utility.yul\":6715:6757   */\n      0xffffffffffffffffffffffffffffffffffffffff\n        /* \"#utility.yul\":6708:6713   */\n      dup3\n        /* \"#utility.yul\":6704:6758   */\n      and\n        /* \"#utility.yul\":6693:6758   */\n      swap1\n      pop\n        /* \"#utility.yul\":6638:6764   */\n      swap2\n      swap1\n      pop\n      jump\t// out\n        /* \"#utility.yul\":6770:6866   */\n    tag_201:\n        /* \"#utility.yul\":6807:6814   */\n      0x00\n        /* \"#utility.yul\":6836:6860   */\n      tag_306\n        /* \"#utility.yul\":6854:6859   */\n      dup3\n        /* \"#utility.yul\":6836:6860   */\n      tag_200\n      jump\t// in\n    tag_306:\n        /* \"#utility.yul\":6825:6860   */\n      swap1\n      pop\n        /* \"#utility.yul\":6770:6866   */\n      swap2\n      swap1\n      pop\n      jump\t// out\n        /* \"#utility.yul\":6872:6990   */\n    tag_202:\n        /* \"#utility.yul\":6959:6983   */\n      tag_308\n        /* \"#utility.yul\":6977:6982   */\n      dup2\n        /* \"#utility.yul\":6959:6983   */\n      tag_201\n      jump\t// in\n    tag_308:\n        /* \"#utility.yul\":6954:6957   */\n      dup3\n        /* \"#utility.yul\":6947:6984   */\n      mstore\n        /* \"#utility.yul\":6872:6990   */\n      pop\n      pop\n      jump\t// out\n        /* \"#utility.yul\":6996:7218   */\n    tag_49:\n        /* \"#utility.yul\":7089:7093   */\n      0x00\n        /* \"#utility.yul\":7127:7129   */\n      0x20\n        /* \"#utility.yul\":7116:7125   */\n      dup3\n        /* \"#utility.yul\":7112:7130   */\n      add\n        /* \"#utility.yul\":7104:7130   */\n      swap1\n      pop\n        /* \"#utility.yul\":7140:7211   */\n      tag_310\n        /* \"#utility.yul\":7208:7209   */\n      0x00\n        /* \"#utility.yul\":7197:7206   */\n      dup4\n        /* \"#utility.yul\":7193:7210   */\n      add\n        /* \"#utility.yul\":7184:7190   */\n      dup5\n        /* \"#utility.yul\":7140:7211   */\n      tag_202\n      jump\t// in\n    tag_310:\n        /* \"#utility.yul\":6996:7218   */\n      swap3\n      swap2\n      pop\n      pop\n      jump\t// out\n        /* \"#utility.yul\":7224:7346   */\n    tag_203:\n        /* \"#utility.yul\":7297:7321   */\n      tag_312\n        /* \"#utility.yul\":7315:7320   */\n      dup2\n        /* \"#utility.yul\":7297:7321   */\n      tag_201\n      jump\t// in\n    tag_312:\n        /* \"#utility.yul\":7290:7295   */\n      dup2\n        /* \"#utility.yul\":7287:7322   */\n      eq\n        /* \"#utility.yul\":7277:7340   */\n      tag_313\n      jumpi\n        /* \"#utility.yul\":7336:7337   */\n      0x00\n        /* \"#utility.yul\":7333:7334   */\n      0x00\n        /* \"#utility.yul\":7326:7338   */\n      revert\n        /* \"#utility.yul\":7277:7340   */\n    tag_313:\n        /* \"#utility.yul\":7224:7346   */\n      pop\n      jump\t// out\n        /* \"#utility.yul\":7352:7491   */\n    tag_204:\n        /* \"#utility.yul\":7398:7403   */\n      0x00\n        /* \"#utility.yul\":7436:7442   */\n      dup2\n        /* \"#utility.yul\":7423:7443   */\n      calldataload\n        /* \"#utility.yul\":7414:7443   */\n      swap1\n      pop\n        /* \"#utility.yul\":7452:7485   */\n      tag_315\n        /* \"#utility.yul\":7479:7484   */\n      dup2\n        /* \"#utility.yul\":7452:7485   */\n      tag_203\n      jump\t// in\n    tag_315:\n        /* \"#utility.yul\":7352:7491   */\n      swap3\n      swap2\n      pop\n      pop\n      jump\t// out\n        /* \"#utility.yul\":7497:7826   */\n    tag_52:\n        /* \"#utility.yul\":7556:7562   */\n      0x00\n        /* \"#utility.yul\":7605:7607   */\n      0x20\n        /* \"#utility.yul\":7593:7602   */\n      dup3\n        /* \"#utility.yul\":7584:7591   */\n      dup5\n        /* \"#utility.yul\":7580:7603   */\n      sub\n        /* \"#utility.yul\":7576:7608   */\n      slt\n        /* \"#utility.yul\":7573:7692   */\n      iszero\n      tag_317\n      jumpi\n        /* \"#utility.yul\":7611:7690   */\n      tag_318\n      tag_179\n      jump\t// in\n    tag_318:\n        /* \"#utility.yul\":7573:7692   */\n    tag_317:\n        /* \"#utility.yul\":7731:7732   */\n      0x00\n        /* \"#utility.yul\":7756:7809   */\n      tag_319\n        /* \"#utility.yul\":7801:7808   */\n      dup5\n        /* \"#utility.yul\":7792:7798   */\n      dup3\n        /* \"#utility.yul\":7781:7790   */\n      dup6\n        /* \"#utility.yul\":7777:7799   */\n      add\n        /* \"#utility.yul\":7756:7809   */\n      tag_204\n      jump\t// in\n    tag_319:\n        /* \"#utility.yul\":7746:7809   */\n      swap2\n      pop\n        /* \"#utility.yul\":7702:7819   */\n      pop\n        /* \"#utility.yul\":7497:7826   */\n      swap3\n      swap2\n      pop\n      pop\n      jump\t// out\n        /* \"#utility.yul\":7832:7922   */\n    tag_205:\n        /* \"#utility.yul\":7866:7873   */\n      0x00\n        /* \"#utility.yul\":7909:7914   */\n      dup2\n        /* \"#utility.yul\":7902:7915   */\n      iszero\n        /* \"#utility.yul\":7895:7916   */\n      iszero\n        /* \"#utility.yul\":7884:7916   */\n      swap1\n      pop\n        /* \"#utility.yul\":7832:7922   */\n      swap2\n      swap1\n      pop\n      jump\t// out\n        /* \"#utility.yul\":7928:8037   */\n    tag_206:\n        /* \"#utility.yul\":8009:8030   */\n      tag_322\n        /* \"#utility.yul\":8024:8029   */\n      dup2\n        /* \"#utility.yul\":8009:8030   */\n      tag_205\n      jump\t// in\n    tag_322:\n        /* \"#utility.yul\":8004:8007   */\n      dup3\n        /* \"#utility.yul\":7997:8031   */\n      mstore\n        /* \"#utility.yul\":7928:8037   */\n      pop\n      pop\n      jump\t// out\n        /* \"#utility.yul\":8043:8253   */\n    tag_55:\n        /* \"#utility.yul\":8130:8134   */\n      0x00\n        /* \"#utility.yul\":8168:8170   */\n      0x20\n        /* \"#utility.yul\":8157:8166   */\n      dup3\n        /* \"#utility.yul\":8153:8171   */\n      add\n        /* \"#utility.yul\":8145:8171   */\n      swap1\n      pop\n        /* \"#utility.yul\":8181:8246   */\n      tag_324\n        /* \"#utility.yul\":8243:8244   */\n      0x00\n        /* \"#utility.yul\":8232:8241   */\n      dup4\n        /* \"#utility.yul\":8228:8245   */\n      add\n        /* \"#utility.yul\":8219:8225   */\n      dup5\n        /* \"#utility.yul\":8181:8246   */\n      tag_206\n      jump\t// in\n    tag_324:\n        /* \"#utility.yul\":8043:8253   */\n      swap3\n      swap2\n      pop\n      pop\n      jump\t// out\n        /* \"#utility.yul\":8259:8376   */\n    tag_207:\n        /* \"#utility.yul\":8368:8369   */\n      0x00\n        /* \"#utility.yul\":8365:8366   */\n      0x00\n        /* \"#utility.yul\":8358:8370   */\n      revert\n        /* \"#utility.yul\":8382:8562   */\n    tag_208:\n        /* \"#utility.yul\":8430:8507   */\n      0x4e487b7100000000000000000000000000000000000000000000000000000000\n        /* \"#utility.yul\":8427:8428   */\n      0x00\n        /* \"#utility.yul\":8420:8508   */\n      mstore\n        /* \"#utility.yul\":8527:8531   */\n      0x41\n        /* \"#utility.yul\":8524:8525   */\n      0x04\n        /* \"#utility.yul\":8517:8532   */\n      mstore\n        /* \"#utility.yul\":8551:8555   */\n      0x24\n        /* \"#utility.yul\":8548:8549   */\n      0x00\n        /* \"#utility.yul\":8541:8556   */\n      revert\n        /* \"#utility.yul\":8568:8849   */\n    tag_209:\n        /* \"#utility.yul\":8651:8678   */\n      tag_328\n        /* \"#utility.yul\":8673:8677   */\n      dup3\n        /* \"#utility.yul\":8651:8678   */\n      tag_190\n      jump\t// in\n    tag_328:\n        /* \"#utility.yul\":8643:8649   */\n      dup2\n        /* \"#utility.yul\":8639:8679   */\n      add\n        /* \"#utility.yul\":8781:8787   */\n      dup2\n        /* \"#utility.yul\":8769:8779   */\n      dup2\n        /* \"#utility.yul\":8766:8788   */\n      lt\n        /* \"#utility.yul\":8745:8763   */\n      0xffffffffffffffff\n        /* \"#utility.yul\":8733:8743   */\n      dup3\n        /* \"#utility.yul\":8730:8764   */\n      gt\n        /* \"#utility.yul\":8727:8789   */\n      or\n        /* \"#utility.yul\":8724:8812   */\n      iszero\n      tag_329\n      jumpi\n        /* \"#utility.yul\":8792:8810   */\n      tag_330\n      tag_208\n      jump\t// in\n    tag_330:\n        /* \"#utility.yul\":8724:8812   */\n    tag_329:\n        /* \"#utility.yul\":8832:8842   */\n      dup1\n        /* \"#utility.yul\":8828:8830   */\n      0x40\n        /* \"#utility.yul\":8821:8843   */\n      mstore\n        /* \"#utility.yul\":8611:8849   */\n      pop\n        /* \"#utility.yul\":8568:8849   */\n      pop\n      pop\n      jump\t// out\n        /* \"#utility.yul\":8855:8984   */\n    tag_210:\n        /* \"#utility.yul\":8889:8895   */\n      0x00\n        /* \"#utility.yul\":8916:8936   */\n      tag_332\n      tag_178\n      jump\t// in\n    tag_332:\n        /* \"#utility.yul\":8906:8936   */\n      swap1\n      pop\n        /* \"#utility.yul\":8945:8978   */\n      tag_333\n        /* \"#utility.yul\":8973:8977   */\n      dup3\n        /* \"#utility.yul\":8965:8971   */\n      dup3\n        /* \"#utility.yul\":8945:8978   */\n      tag_209\n      jump\t// in\n    tag_333:\n        /* \"#utility.yul\":8855:8984   */\n      swap2\n      swap1\n      pop\n      jump\t// out\n        /* \"#utility.yul\":8990:9311   */\n    tag_211:\n        /* \"#utility.yul\":9077:9081   */\n      0x00\n        /* \"#utility.yul\":9167:9185   */\n      0xffffffffffffffff\n        /* \"#utility.yul\":9159:9165   */\n      dup3\n        /* \"#utility.yul\":9156:9186   */\n      gt\n        /* \"#utility.yul\":9153:9209   */\n      iszero\n      tag_335\n      jumpi\n        /* \"#utility.yul\":9189:9207   */\n      tag_336\n      tag_208\n      jump\t// in\n    tag_336:\n        /* \"#utility.yul\":9153:9209   */\n    tag_335:\n        /* \"#utility.yul\":9239:9243   */\n      0x20\n        /* \"#utility.yul\":9231:9237   */\n      dup3\n        /* \"#utility.yul\":9227:9244   */\n      mul\n        /* \"#utility.yul\":9219:9244   */\n      swap1\n      pop\n        /* \"#utility.yul\":9299:9303   */\n      0x20\n        /* \"#utility.yul\":9293:9297   */\n      dup2\n        /* \"#utility.yul\":9289:9304   */\n      add\n        /* \"#utility.yul\":9281:9304   */\n      swap1\n      pop\n        /* \"#utility.yul\":8990:9311   */\n      swap2\n      swap1\n      pop\n      jump\t// out\n        /* \"#utility.yul\":9317:9434   */\n    tag_212:\n        /* \"#utility.yul\":9426:9427   */\n      0x00\n        /* \"#utility.yul\":9423:9424   */\n      0x00\n        /* \"#utility.yul\":9416:9428   */\n      revert\n        /* \"#utility.yul\":9440:9557   */\n    tag_213:\n        /* \"#utility.yul\":9549:9550   */\n      0x00\n        /* \"#utility.yul\":9546:9547   */\n      0x00\n        /* \"#utility.yul\":9539:9551   */\n      revert\n        /* \"#utility.yul\":9563:9871   */\n    tag_214:\n        /* \"#utility.yul\":9625:9629   */\n      0x00\n        /* \"#utility.yul\":9715:9733   */\n      0xffffffffffffffff\n        /* \"#utility.yul\":9707:9713   */\n      dup3\n        /* \"#utility.yul\":9704:9734   */\n      gt\n        /* \"#utility.yul\":9701:9757   */\n      iszero\n      tag_340\n      jumpi\n        /* \"#utility.yul\":9737:9755   */\n      tag_341\n      tag_208\n      jump\t// in\n    tag_341:\n        /* \"#utility.yul\":9701:9757   */\n    tag_340:\n        /* \"#utility.yul\":9775:9804   */\n      tag_342\n        /* \"#utility.yul\":9797:9803   */\n      dup3\n        /* \"#utility.yul\":9775:9804   */\n      tag_190\n      jump\t// in\n    tag_342:\n        /* \"#utility.yul\":9767:9804   */\n      swap1\n      pop\n        /* \"#utility.yul\":9859:9863   */\n      0x20\n        /* \"#utility.yul\":9853:9857   */\n      dup2\n        /* \"#utility.yul\":9849:9864   */\n      add\n        /* \"#utility.yul\":9841:9864   */\n      swap1\n      pop\n        /* \"#utility.yul\":9563:9871   */\n      swap2\n      swap1\n      pop\n      jump\t// out\n        /* \"#utility.yul\":9877:10025   */\n    tag_215:\n        /* \"#utility.yul\":9975:9981   */\n      dup3\n        /* \"#utility.yul\":9970:9973   */\n      dup2\n        /* \"#utility.yul\":9965:9968   */\n      dup4\n        /* \"#utility.yul\":9952:9982   */\n      calldatacopy\n        /* \"#utility.yul\":10016:10017   */\n      0x00\n        /* \"#utility.yul\":10007:10013   */\n      dup4\n        /* \"#utility.yul\":10002:10005   */\n      dup4\n        /* \"#utility.yul\":9998:10014   */\n      add\n        /* \"#utility.yul\":9991:10018   */\n      mstore\n        /* \"#utility.yul\":9877:10025   */\n      pop\n      pop\n      pop\n      jump\t// out\n        /* \"#utility.yul\":10031:10456   */\n    tag_216:\n        /* \"#utility.yul\":10109:10114   */\n      0x00\n        /* \"#utility.yul\":10134:10200   */\n      tag_345\n        /* \"#utility.yul\":10150:10199   */\n      tag_346\n        /* \"#utility.yul\":10192:10198   */\n      dup5\n        /* \"#utility.yul\":10150:10199   */\n      tag_214\n      jump\t// in\n    tag_346:\n        /* \"#utility.yul\":10134:10200   */\n      tag_210\n      jump\t// in\n    tag_345:\n        /* \"#utility.yul\":10125:10200   */\n      swap1\n      pop\n        /* \"#utility.yul\":10223:10229   */\n      dup3\n        /* \"#utility.yul\":10216:10221   */\n      dup2\n        /* \"#utility.yul\":10209:10230   */\n      mstore\n        /* \"#utility.yul\":10261:10265   */\n      0x20\n        /* \"#utility.yul\":10254:10259   */\n      dup2\n        /* \"#utility.yul\":10250:10266   */\n      add\n        /* \"#utility.yul\":10299:10302   */\n      dup5\n        /* \"#utility.yul\":10290:10296   */\n      dup5\n        /* \"#utility.yul\":10285:10288   */\n      dup5\n        /* \"#utility.yul\":10281:10297   */\n      add\n        /* \"#utility.yul\":10278:10303   */\n      gt\n        /* \"#utility.yul\":10275:10387   */\n      iszero\n      tag_347\n      jumpi\n        /* \"#utility.yul\":10306:10385   */\n      tag_348\n      tag_213\n      jump\t// in\n    tag_348:\n        /* \"#utility.yul\":10275:10387   */\n    tag_347:\n        /* \"#utility.yul\":10396:10450   */\n      tag_349\n        /* \"#utility.yul\":10443:10449   */\n      dup5\n        /* \"#utility.yul\":10438:10441   */\n      dup3\n        /* \"#utility.yul\":10433:10436   */\n      dup6\n        /* \"#utility.yul\":10396:10450   */\n      tag_215\n      jump\t// in\n    tag_349:\n        /* \"#utility.yul\":10115:10456   */\n      pop\n        /* \"#utility.yul\":10031:10456   */\n      swap4\n      swap3\n      pop\n      pop\n      pop\n      jump\t// out\n        /* \"#utility.yul\":10476:10816   */\n    tag_217:\n        /* \"#utility.yul\":10532:10537   */\n      0x00\n        /* \"#utility.yul\":10581:10584   */\n      dup3\n        /* \"#utility.yul\":10574:10578   */\n      0x1f\n        /* \"#utility.yul\":10566:10572   */\n      dup4\n        /* \"#utility.yul\":10562:10579   */\n      add\n        /* \"#utility.yul\":10558:10585   */\n      slt\n        /* \"#utility.yul\":10548:10670   */\n      tag_351\n      jumpi\n        /* \"#utility.yul\":10589:10668   */\n      tag_352\n      tag_207\n      jump\t// in\n    tag_352:\n        /* \"#utility.yul\":10548:10670   */\n    tag_351:\n        /* \"#utility.yul\":10706:10712   */\n      dup2\n        /* \"#utility.yul\":10693:10713   */\n      calldataload\n        /* \"#utility.yul\":10731:10810   */\n      tag_353\n        /* \"#utility.yul\":10806:10809   */\n      dup5\n        /* \"#utility.yul\":10798:10804   */\n      dup3\n        /* \"#utility.yul\":10791:10795   */\n      0x20\n        /* \"#utility.yul\":10783:10789   */\n      dup7\n        /* \"#utility.yul\":10779:10796   */\n      add\n        /* \"#utility.yul\":10731:10810   */\n      tag_216\n      jump\t// in\n    tag_353:\n        /* \"#utility.yul\":10722:10810   */\n      swap2\n      pop\n        /* \"#utility.yul\":10538:10816   */\n      pop\n        /* \"#utility.yul\":10476:10816   */\n      swap3\n      swap2\n      pop\n      pop\n      jump\t// out\n        /* \"#utility.yul\":10838:11783   */\n    tag_218:\n        /* \"#utility.yul\":10944:10949   */\n      0x00\n        /* \"#utility.yul\":10969:11060   */\n      tag_355\n        /* \"#utility.yul\":10985:11059   */\n      tag_356\n        /* \"#utility.yul\":11052:11058   */\n      dup5\n        /* \"#utility.yul\":10985:11059   */\n      tag_211\n      jump\t// in\n    tag_356:\n        /* \"#utility.yul\":10969:11060   */\n      tag_210\n      jump\t// in\n    tag_355:\n        /* \"#utility.yul\":10960:11060   */\n      swap1\n      pop\n        /* \"#utility.yul\":11080:11085   */\n      dup1\n        /* \"#utility.yul\":11109:11115   */\n      dup4\n        /* \"#utility.yul\":11102:11107   */\n      dup3\n        /* \"#utility.yul\":11095:11116   */\n      mstore\n        /* \"#utility.yul\":11143:11147   */\n      0x20\n        /* \"#utility.yul\":11136:11141   */\n      dup3\n        /* \"#utility.yul\":11132:11148   */\n      add\n        /* \"#utility.yul\":11125:11148   */\n      swap1\n      pop\n        /* \"#utility.yul\":11196:11200   */\n      0x20\n        /* \"#utility.yul\":11188:11194   */\n      dup5\n        /* \"#utility.yul\":11184:11201   */\n      mul\n        /* \"#utility.yul\":11176:11182   */\n      dup4\n        /* \"#utility.yul\":11172:11202   */\n      add\n        /* \"#utility.yul\":11225:11228   */\n      dup6\n        /* \"#utility.yul\":11217:11223   */\n      dup2\n        /* \"#utility.yul\":11214:11229   */\n      gt\n        /* \"#utility.yul\":11211:11333   */\n      iszero\n      tag_357\n      jumpi\n        /* \"#utility.yul\":11244:11323   */\n      tag_358\n      tag_212\n      jump\t// in\n    tag_358:\n        /* \"#utility.yul\":11211:11333   */\n    tag_357:\n        /* \"#utility.yul\":11359:11365   */\n      dup4\n        /* \"#utility.yul\":11342:11777   */\n    tag_359:\n        /* \"#utility.yul\":11376:11382   */\n      dup2\n        /* \"#utility.yul\":11371:11374   */\n      dup2\n        /* \"#utility.yul\":11368:11383   */\n      lt\n        /* \"#utility.yul\":11342:11777   */\n      iszero\n      tag_361\n      jumpi\n        /* \"#utility.yul\":11465:11468   */\n      dup1\n        /* \"#utility.yul\":11452:11469   */\n      calldataload\n        /* \"#utility.yul\":11501:11519   */\n      0xffffffffffffffff\n        /* \"#utility.yul\":11488:11499   */\n      dup2\n        /* \"#utility.yul\":11485:11520   */\n      gt\n        /* \"#utility.yul\":11482:11604   */\n      iszero\n      tag_362\n      jumpi\n        /* \"#utility.yul\":11523:11602   */\n      tag_363\n      tag_207\n      jump\t// in\n    tag_363:\n        /* \"#utility.yul\":11482:11604   */\n    tag_362:\n        /* \"#utility.yul\":11647:11658   */\n      dup1\n        /* \"#utility.yul\":11639:11645   */\n      dup7\n        /* \"#utility.yul\":11635:11659   */\n      add\n        /* \"#utility.yul\":11685:11732   */\n      tag_364\n        /* \"#utility.yul\":11728:11731   */\n      dup10\n        /* \"#utility.yul\":11716:11726   */\n      dup3\n        /* \"#utility.yul\":11685:11732   */\n      tag_217\n      jump\t// in\n    tag_364:\n        /* \"#utility.yul\":11680:11683   */\n      dup6\n        /* \"#utility.yul\":11673:11733   */\n      mstore\n        /* \"#utility.yul\":11762:11766   */\n      0x20\n        /* \"#utility.yul\":11757:11760   */\n      dup6\n        /* \"#utility.yul\":11753:11767   */\n      add\n        /* \"#utility.yul\":11746:11767   */\n      swap5\n      pop\n        /* \"#utility.yul\":11418:11777   */\n      pop\n      pop\n        /* \"#utility.yul\":11402:11406   */\n      0x20\n        /* \"#utility.yul\":11397:11400   */\n      dup2\n        /* \"#utility.yul\":11393:11407   */\n      add\n        /* \"#utility.yul\":11386:11407   */\n      swap1\n      pop\n        /* \"#utility.yul\":11342:11777   */\n      jump(tag_359)\n    tag_361:\n        /* \"#utility.yul\":11346:11367   */\n      pop\n        /* \"#utility.yul\":10950:11783   */\n      pop\n      pop\n        /* \"#utility.yul\":10838:11783   */\n      swap4\n      swap3\n      pop\n      pop\n      pop\n      jump\t// out\n        /* \"#utility.yul\":11805:12195   */\n    tag_219:\n        /* \"#utility.yul\":11886:11891   */\n      0x00\n        /* \"#utility.yul\":11935:11938   */\n      dup3\n        /* \"#utility.yul\":11928:11932   */\n      0x1f\n        /* \"#utility.yul\":11920:11926   */\n      dup4\n        /* \"#utility.yul\":11916:11933   */\n      add\n        /* \"#utility.yul\":11912:11939   */\n      slt\n        /* \"#utility.yul\":11902:12024   */\n      tag_366\n      jumpi\n        /* \"#utility.yul\":11943:12022   */\n      tag_367\n      tag_207\n      jump\t// in\n    tag_367:\n        /* \"#utility.yul\":11902:12024   */\n    tag_366:\n        /* \"#utility.yul\":12060:12066   */\n      dup2\n        /* \"#utility.yul\":12047:12067   */\n      calldataload\n        /* \"#utility.yul\":12085:12189   */\n      tag_368\n        /* \"#utility.yul\":12185:12188   */\n      dup5\n        /* \"#utility.yul\":12177:12183   */\n      dup3\n        /* \"#utility.yul\":12170:12174   */\n      0x20\n        /* \"#utility.yul\":12162:12168   */\n      dup7\n        /* \"#utility.yul\":12158:12175   */\n      add\n        /* \"#utility.yul\":12085:12189   */\n      tag_218\n      jump\t// in\n    tag_368:\n        /* \"#utility.yul\":12076:12189   */\n      swap2\n      pop\n        /* \"#utility.yul\":11892:12195   */\n      pop\n        /* \"#utility.yul\":11805:12195   */\n      swap3\n      swap2\n      pop\n      pop\n      jump\t// out\n        /* \"#utility.yul\":12201:12760   */\n    tag_58:\n        /* \"#utility.yul\":12295:12301   */\n      0x00\n        /* \"#utility.yul\":12344:12346   */\n      0x20\n        /* \"#utility.yul\":12332:12341   */\n      dup3\n        /* \"#utility.yul\":12323:12330   */\n      dup5\n        /* \"#utility.yul\":12319:12342   */\n      sub\n        /* \"#utility.yul\":12315:12347   */\n      slt\n        /* \"#utility.yul\":12312:12431   */\n      iszero\n      tag_370\n      jumpi\n        /* \"#utility.yul\":12350:12429   */\n      tag_371\n      tag_179\n      jump\t// in\n    tag_371:\n        /* \"#utility.yul\":12312:12431   */\n    tag_370:\n        /* \"#utility.yul\":12498:12499   */\n      0x00\n        /* \"#utility.yul\":12487:12496   */\n      dup3\n        /* \"#utility.yul\":12483:12500   */\n      add\n        /* \"#utility.yul\":12470:12501   */\n      calldataload\n        /* \"#utility.yul\":12528:12546   */\n      0xffffffffffffffff\n        /* \"#utility.yul\":12520:12526   */\n      dup2\n        /* \"#utility.yul\":12517:12547   */\n      gt\n        /* \"#utility.yul\":12514:12631   */\n      iszero\n      tag_372\n      jumpi\n        /* \"#utility.yul\":12550:12629   */\n      tag_373\n      tag_180\n      jump\t// in\n    tag_373:\n        /* \"#utility.yul\":12514:12631   */\n    tag_372:\n        /* \"#utility.yul\":12655:12743   */\n      tag_374\n        /* \"#utility.yul\":12735:12742   */\n      dup5\n        /* \"#utility.yul\":12726:12732   */\n      dup3\n        /* \"#utility.yul\":12715:12724   */\n      dup6\n        /* \"#utility.yul\":12711:12733   */\n      add\n        /* \"#utility.yul\":12655:12743   */\n      tag_219\n      jump\t// in\n    tag_374:\n        /* \"#utility.yul\":12645:12743   */\n      swap2\n      pop\n        /* \"#utility.yul\":12441:12753   */\n      pop\n        /* \"#utility.yul\":12201:12760   */\n      swap3\n      swap2\n      pop\n      pop\n      jump\t// out\n        /* \"#utility.yul\":12766:12936   */\n    tag_220:\n        /* \"#utility.yul\":12906:12928   */\n      0x566f74696e67206973206e6f7420616374697665000000000000000000000000\n        /* \"#utility.yul\":12902:12903   */\n      0x00\n        /* \"#utility.yul\":12894:12900   */\n      dup3\n        /* \"#utility.yul\":12890:12904   */\n      add\n        /* \"#utility.yul\":12883:12929   */\n      mstore\n        /* \"#utility.yul\":12766:12936   */\n      pop\n      jump\t// out\n        /* \"#utility.yul\":12942:13308   */\n    tag_221:\n        /* \"#utility.yul\":13084:13087   */\n      0x00\n        /* \"#utility.yul\":13105:13172   */\n      tag_377\n        /* \"#utility.yul\":13169:13171   */\n      0x14\n        /* \"#utility.yul\":13164:13167   */\n      dup4\n        /* \"#utility.yul\":13105:13172   */\n      tag_198\n      jump\t// in\n    tag_377:\n        /* \"#utility.yul\":13098:13172   */\n      swap2\n      pop\n        /* \"#utility.yul\":13181:13274   */\n      tag_378\n        /* \"#utility.yul\":13270:13273   */\n      dup3\n        /* \"#utility.yul\":13181:13274   */\n      tag_220\n      jump\t// in\n    tag_378:\n        /* \"#utility.yul\":13299:13301   */\n      0x20\n        /* \"#utility.yul\":13294:13297   */\n      dup3\n        /* \"#utility.yul\":13290:13302   */\n      add\n        /* \"#utility.yul\":13283:13302   */\n      swap1\n      pop\n        /* \"#utility.yul\":12942:13308   */\n      swap2\n      swap1\n      pop\n      jump\t// out\n        /* \"#utility.yul\":13314:13733   */\n    tag_70:\n        /* \"#utility.yul\":13480:13484   */\n      0x00\n        /* \"#utility.yul\":13518:13520   */\n      0x20\n        /* \"#utility.yul\":13507:13516   */\n      dup3\n        /* \"#utility.yul\":13503:13521   */\n      add\n        /* \"#utility.yul\":13495:13521   */\n      swap1\n      pop\n        /* \"#utility.yul\":13567:13576   */\n      dup2\n        /* \"#utility.yul\":13561:13565   */\n      dup2\n        /* \"#utility.yul\":13557:13577   */\n      sub\n        /* \"#utility.yul\":13553:13554   */\n      0x00\n        /* \"#utility.yul\":13542:13551   */\n      dup4\n        /* \"#utility.yul\":13538:13555   */\n      add\n        /* \"#utility.yul\":13531:13578   */\n      mstore\n        /* \"#utility.yul\":13595:13726   */\n      tag_380\n        /* \"#utility.yul\":13721:13725   */\n      dup2\n        /* \"#utility.yul\":13595:13726   */\n      tag_221\n      jump\t// in\n    tag_380:\n        /* \"#utility.yul\":13587:13726   */\n      swap1\n      pop\n        /* \"#utility.yul\":13314:13733   */\n      swap2\n      swap1\n      pop\n      jump\t// out\n        /* \"#utility.yul\":13739:13911   */\n    tag_222:\n        /* \"#utility.yul\":13879:13903   */\n      0x596f75206861766520616c726561647920766f74656400000000000000000000\n        /* \"#utility.yul\":13875:13876   */\n      0x00\n        /* \"#utility.yul\":13867:13873   */\n      dup3\n        /* \"#utility.yul\":13863:13877   */\n      add\n        /* \"#utility.yul\":13856:13904   */\n      mstore\n        /* \"#utility.yul\":13739:13911   */\n      pop\n      jump\t// out\n        /* \"#utility.yul\":13917:14283   */\n    tag_223:\n        /* \"#utility.yul\":14059:14062   */\n      0x00\n        /* \"#utility.yul\":14080:14147   */\n      tag_383\n        /* \"#utility.yul\":14144:14146   */\n      0x16\n        /* \"#utility.yul\":14139:14142   */\n      dup4\n        /* \"#utility.yul\":14080:14147   */\n      tag_198\n      jump\t// in\n    tag_383:\n        /* \"#utility.yul\":14073:14147   */\n      swap2\n      pop\n        /* \"#utility.yul\":14156:14249   */\n      tag_384\n        /* \"#utility.yul\":14245:14248   */\n      dup3\n        /* \"#utility.yul\":14156:14249   */\n      tag_222\n      jump\t// in\n    tag_384:\n        /* \"#utility.yul\":14274:14276   */\n      0x20\n        /* \"#utility.yul\":14269:14272   */\n      dup3\n        /* \"#utility.yul\":14265:14277   */\n      add\n        /* \"#utility.yul\":14258:14277   */\n      swap1\n      pop\n        /* \"#utility.yul\":13917:14283   */\n      swap2\n      swap1\n      pop\n      jump\t// out\n        /* \"#utility.yul\":14289:14708   */\n    tag_73:\n        /* \"#utility.yul\":14455:14459   */\n      0x00\n        /* \"#utility.yul\":14493:14495   */\n      0x20\n        /* \"#utility.yul\":14482:14491   */\n      dup3\n        /* \"#utility.yul\":14478:14496   */\n      add\n        /* \"#utility.yul\":14470:14496   */\n      swap1\n      pop\n        /* \"#utility.yul\":14542:14551   */\n      dup2\n        /* \"#utility.yul\":14536:14540   */\n      dup2\n        /* \"#utility.yul\":14532:14552   */\n      sub\n        /* \"#utility.yul\":14528:14529   */\n      0x00\n        /* \"#utility.yul\":14517:14526   */\n      dup4\n        /* \"#utility.yul\":14513:14530   */\n      add\n        /* \"#utility.yul\":14506:14553   */\n      mstore\n        /* \"#utility.yul\":14570:14701   */\n      tag_386\n        /* \"#utility.yul\":14696:14700   */\n      dup2\n        /* \"#utility.yul\":14570:14701   */\n      tag_223\n      jump\t// in\n    tag_386:\n        /* \"#utility.yul\":14562:14701   */\n      swap1\n      pop\n        /* \"#utility.yul\":14289:14708   */\n      swap2\n      swap1\n      pop\n      jump\t// out\n        /* \"#utility.yul\":14714:14887   */\n    tag_224:\n        /* \"#utility.yul\":14854:14879   */\n      0x496e76616c69642063616e64696461746520696e646578000000000000000000\n        /* \"#utility.yul\":14850:14851   */\n      0x00\n        /* \"#utility.yul\":14842:14848   */\n      dup3\n        /* \"#utility.yul\":14838:14852   */\n      add\n        /* \"#utility.yul\":14831:14880   */\n      mstore\n        /* \"#utility.yul\":14714:14887   */\n      pop\n      jump\t// out\n        /* \"#utility.yul\":14893:15259   */\n    tag_225:\n        /* \"#utility.yul\":15035:15038   */\n      0x00\n        /* \"#utility.yul\":15056:15123   */\n      tag_389\n        /* \"#utility.yul\":15120:15122   */\n      0x17\n        /* \"#utility.yul\":15115:15118   */\n      dup4\n        /* \"#utility.yul\":15056:15123   */\n      tag_198\n      jump\t// in\n    tag_389:\n        /* \"#utility.yul\":15049:15123   */\n      swap2\n      pop\n        /* \"#utility.yul\":15132:15225   */\n      tag_390\n        /* \"#utility.yul\":15221:15224   */\n      dup3\n        /* \"#utility.yul\":15132:15225   */\n      tag_224\n      jump\t// in\n    tag_390:\n        /* \"#utility.yul\":15250:15252   */\n      0x20\n        /* \"#utility.yul\":15245:15248   */\n      dup3\n        /* \"#utility.yul\":15241:15253   */\n      add\n        /* \"#utility.yul\":15234:15253   */\n      swap1\n      pop\n        /* \"#utility.yul\":14893:15259   */\n      swap2\n      swap1\n      pop\n      jump\t// out\n        /* \"#utility.yul\":15265:15684   */\n    tag_76:\n        /* \"#utility.yul\":15431:15435   */\n      0x00\n        /* \"#utility.yul\":15469:15471   */\n      0x20\n        /* \"#utility.yul\":15458:15467   */\n      dup3\n        /* \"#utility.yul\":15454:15472   */\n      add\n        /* \"#utility.yul\":15446:15472   */\n      swap1\n      pop\n        /* \"#utility.yul\":15518:15527   */\n      dup2\n        /* \"#utility.yul\":15512:15516   */\n      dup2\n        /* \"#utility.yul\":15508:15528   */\n      sub\n        /* \"#utility.yul\":15504:15505   */\n      0x00\n        /* \"#utility.yul\":15493:15502   */\n      dup4\n        /* \"#utility.yul\":15489:15506   */\n      add\n        /* \"#utility.yul\":15482:15529   */\n      mstore\n        /* \"#utility.yul\":15546:15677   */\n      tag_392\n        /* \"#utility.yul\":15672:15676   */\n      dup2\n        /* \"#utility.yul\":15546:15677   */\n      tag_225\n      jump\t// in\n    tag_392:\n        /* \"#utility.yul\":15538:15677   */\n      swap1\n      pop\n        /* \"#utility.yul\":15265:15684   */\n      swap2\n      swap1\n      pop\n      jump\t// out\n        /* \"#utility.yul\":15690:15870   */\n    tag_79:\n        /* \"#utility.yul\":15738:15815   */\n      0x4e487b7100000000000000000000000000000000000000000000000000000000\n        /* \"#utility.yul\":15735:15736   */\n      0x00\n        /* \"#utility.yul\":15728:15816   */\n      mstore\n        /* \"#utility.yul\":15835:15839   */\n      0x32\n        /* \"#utility.yul\":15832:15833   */\n      0x04\n        /* \"#utility.yul\":15825:15840   */\n      mstore\n        /* \"#utility.yul\":15859:15863   */\n      0x24\n        /* \"#utility.yul\":15856:15857   */\n      0x00\n        /* \"#utility.yul\":15849:15864   */\n      revert\n        /* \"#utility.yul\":15876:16056   */\n    tag_226:\n        /* \"#utility.yul\":15924:16001   */\n      0x4e487b7100000000000000000000000000000000000000000000000000000000\n        /* \"#utility.yul\":15921:15922   */\n      0x00\n        /* \"#utility.yul\":15914:16002   */\n      mstore\n        /* \"#utility.yul\":16021:16025   */\n      0x11\n        /* \"#utility.yul\":16018:16019   */\n      0x04\n        /* \"#utility.yul\":16011:16026   */\n      mstore\n        /* \"#utility.yul\":16045:16049   */\n      0x24\n        /* \"#utility.yul\":16042:16043   */\n      0x00\n        /* \"#utility.yul\":16035:16050   */\n      revert\n        /* \"#utility.yul\":16062:16295   */\n    tag_82:\n        /* \"#utility.yul\":16101:16104   */\n      0x00\n        /* \"#utility.yul\":16124:16148   */\n      tag_396\n        /* \"#utility.yul\":16142:16147   */\n      dup3\n        /* \"#utility.yul\":16124:16148   */\n      tag_181\n      jump\t// in\n    tag_396:\n        /* \"#utility.yul\":16115:16148   */\n      swap2\n      pop\n        /* \"#utility.yul\":16170:16236   */\n      0xffffffffffffffffffffffffffffffffffffffffffffffffffffffffffffffff\n        /* \"#utility.yul\":16163:16168   */\n      dup3\n        /* \"#utility.yul\":16160:16237   */\n      sub\n        /* \"#utility.yul\":16157:16260   */\n      tag_397\n      jumpi\n        /* \"#utility.yul\":16240:16258   */\n      tag_398\n      tag_226\n      jump\t// in\n    tag_398:\n        /* \"#utility.yul\":16157:16260   */\n    tag_397:\n        /* \"#utility.yul\":16287:16288   */\n      0x01\n        /* \"#utility.yul\":16280:16285   */\n      dup3\n        /* \"#utility.yul\":16276:16289   */\n      add\n        /* \"#utility.yul\":16269:16289   */\n      swap1\n      pop\n        /* \"#utility.yul\":16062:16295   */\n      swap2\n      swap1\n      pop\n      jump\t// out\n        /* \"#utility.yul\":16301:16481   */\n    tag_227:\n        /* \"#utility.yul\":16349:16426   */\n      0x4e487b7100000000000000000000000000000000000000000000000000000000\n        /* \"#utility.yul\":16346:16347   */\n      0x00\n        /* \"#utility.yul\":16339:16427   */\n      mstore\n        /* \"#utility.yul\":16446:16450   */\n      0x22\n        /* \"#utility.yul\":16443:16444   */\n      0x04\n        /* \"#utility.yul\":16436:16451   */\n      mstore\n        /* \"#utility.yul\":16470:16474   */\n      0x24\n        /* \"#utility.yul\":16467:16468   */\n      0x00\n        /* \"#utility.yul\":16460:16475   */\n      revert\n        /* \"#utility.yul\":16487:16807   */\n    tag_88:\n        /* \"#utility.yul\":16531:16537   */\n      0x00\n        /* \"#utility.yul\":16568:16569   */\n      0x02\n        /* \"#utility.yul\":16562:16566   */\n      dup3\n        /* \"#utility.yul\":16558:16570   */\n      div\n        /* \"#utility.yul\":16548:16570   */\n      swap1\n      pop\n        /* \"#utility.yul\":16615:16616   */\n      0x01\n        /* \"#utility.yul\":16609:16613   */\n      dup3\n        /* \"#utility.yul\":16605:16617   */\n      and\n        /* \"#utility.yul\":16636:16654   */\n      dup1\n        /* \"#utility.yul\":16626:16707   */\n      tag_401\n      jumpi\n        /* \"#utility.yul\":16692:16696   */\n      0x7f\n        /* \"#utility.yul\":16684:16690   */\n      dup3\n        /* \"#utility.yul\":16680:16697   */\n      and\n        /* \"#utility.yul\":16670:16697   */\n      swap2\n      pop\n        /* \"#utility.yul\":16626:16707   */\n    tag_401:\n        /* \"#utility.yul\":16754:16756   */\n      0x20\n        /* \"#utility.yul\":16746:16752   */\n      dup3\n        /* \"#utility.yul\":16743:16757   */\n      lt\n        /* \"#utility.yul\":16723:16741   */\n      dup2\n        /* \"#utility.yul\":16720:16758   */\n      sub\n        /* \"#utility.yul\":16717:16801   */\n      tag_402\n      jumpi\n        /* \"#utility.yul\":16773:16791   */\n      tag_403\n      tag_227\n      jump\t// in\n    tag_403:\n        /* \"#utility.yul\":16717:16801   */\n    tag_402:\n        /* \"#utility.yul\":16538:16807   */\n      pop\n        /* \"#utility.yul\":16487:16807   */\n      swap2\n      swap1\n      pop\n      jump\t// out\n        /* \"#utility.yul\":16813:17007   */\n    tag_103:\n        /* \"#utility.yul\":16853:16857   */\n      0x00\n        /* \"#utility.yul\":16873:16893   */\n      tag_405\n        /* \"#utility.yul\":16891:16892   */\n      dup3\n        /* \"#utility.yul\":16873:16893   */\n      tag_181\n      jump\t// in\n    tag_405:\n        /* \"#utility.yul\":16868:16893   */\n      swap2\n      pop\n        /* \"#utility.yul\":16907:16927   */\n      tag_406\n        /* \"#utility.yul\":16925:16926   */\n      dup4\n        /* \"#utility.yul\":16907:16927   */\n      tag_181\n      jump\t// in\n    tag_406:\n        /* \"#utility.yul\":16902:16927   */\n      swap3\n      pop\n        /* \"#utility.yul\":16951:16952   */\n      dup3\n        /* \"#utility.yul\":16948:16949   */\n      dup3\n        /* \"#utility.yul\":16944:16953   */\n      sub\n        /* \"#utility.yul\":16936:16953   */\n      swap1\n      pop\n        /* \"#utility.yul\":16975:16976   */\n      dup2\n        /* \"#utility.yul\":16969:16973   */\n      dup2\n        /* \"#utility.yul\":16966:16977   */\n      gt\n        /* \"#utility.yul\":16963:17000   */\n      iszero\n      tag_407\n      jumpi\n        /* \"#utility.yul\":16980:16998   */\n      tag_408\n      tag_226\n      jump\t// in\n    tag_408:\n        /* \"#utility.yul\":16963:17000   */\n    tag_407:\n        /* \"#utility.yul\":16813:17007   */\n      swap3\n      swap2\n      pop\n      pop\n      jump\t// out\n        /* \"#utility.yul\":17013:17204   */\n    tag_105:\n        /* \"#utility.yul\":17053:17056   */\n      0x00\n        /* \"#utility.yul\":17072:17092   */\n      tag_410\n        /* \"#utility.yul\":17090:17091   */\n      dup3\n        /* \"#utility.yul\":17072:17092   */\n      tag_181\n      jump\t// in\n    tag_410:\n        /* \"#utility.yul\":17067:17092   */\n      swap2\n      pop\n        /* \"#utility.yul\":17106:17126   */\n      tag_411\n        /* \"#utility.yul\":17124:17125   */\n      dup4\n        /* \"#utility.yul\":17106:17126   */\n      tag_181\n      jump\t// in\n    tag_411:\n        /* \"#utility.yul\":17101:17126   */\n      swap3\n      pop\n        /* \"#utility.yul\":17149:17150   */\n      dup3\n        /* \"#utility.yul\":17146:17147   */\n      dup3\n        /* \"#utility.yul\":17142:17151   */\n      add\n        /* \"#utility.yul\":17135:17151   */\n      swap1\n      pop\n        /* \"#utility.yul\":17170:17173   */\n      dup1\n        /* \"#utility.yul\":17167:17168   */\n      dup3\n        /* \"#utility.yul\":17164:17174   */\n      gt\n        /* \"#utility.yul\":17161:17197   */\n      iszero\n      tag_412\n      jumpi\n        /* \"#utility.yul\":17177:17195   */\n      tag_413\n      tag_226\n      jump\t// in\n    tag_413:\n        /* \"#utility.yul\":17161:17197   */\n    tag_412:\n        /* \"#utility.yul\":17013:17204   */\n      swap3\n      swap2\n      pop\n      pop\n      jump\t// out\n        /* \"#utility.yul\":17210:17359   */\n    tag_228:\n        /* \"#utility.yul\":17259:17265   */\n      0x00\n        /* \"#utility.yul\":17293:17298   */\n      dup2\n        /* \"#utility.yul\":17287:17299   */\n      sload\n        /* \"#utility.yul\":17277:17299   */\n      swap1\n      pop\n        /* \"#utility.yul\":17319:17352   */\n      tag_415\n        /* \"#utility.yul\":17345:17351   */\n      dup2\n        /* \"#utility.yul\":17319:17352   */\n      tag_88\n      jump\t// in\n    tag_415:\n        /* \"#utility.yul\":17309:17352   */\n      swap1\n      pop\n        /* \"#utility.yul\":17210:17359   */\n      swap2\n      swap1\n      pop\n      jump\t// out\n        /* \"#utility.yul\":17365:17506   */\n    tag_229:\n        /* \"#utility.yul\":17414:17418   */\n      0x00\n        /* \"#utility.yul\":17437:17440   */\n      dup2\n        /* \"#utility.yul\":17429:17440   */\n      swap1\n      pop\n        /* \"#utility.yul\":17460:17463   */\n      dup2\n        /* \"#utility.yul\":17457:17458   */\n      0x00\n        /* \"#utility.yul\":17450:17464   */\n      mstore\n        /* \"#utility.yul\":17494:17498   */\n      0x20\n        /* \"#utility.yul\":17491:17492   */\n      0x00\n        /* \"#utility.yul\":17481:17499   */\n      keccak256\n        /* \"#utility.yul\":17473:17499   */\n      swap1\n      pop\n        /* \"#utility.yul\":17365:17506   */\n      swap2\n      swap1\n      pop\n      jump\t// out\n        /* \"#utility.yul\":17512:17605   */\n    tag_230:\n        /* \"#utility.yul\":17549:17555   */\n      0x00\n        /* \"#utility.yul\":17596:17598   */\n      0x20\n        /* \"#utility.yul\":17591:17593   */\n      0x1f\n        /* \"#utility.yul\":17584:17589   */\n      dup4\n        /* \"#utility.yul\":17580:17594   */\n      add\n        /* \"#utility.yul\":17576:17599   */\n      div\n        /* \"#utility.yul\":17566:17599   */\n      swap1\n      pop\n        /* \"#utility.yul\":17512:17605   */\n      swap2\n      swap1\n      pop\n      jump\t// out\n        /* \"#utility.yul\":17611:17718   */\n    tag_231:\n        /* \"#utility.yul\":17655:17663   */\n      0x00\n        /* \"#utility.yul\":17705:17710   */\n      dup3\n        /* \"#utility.yul\":17699:17703   */\n      dup3\n        /* \"#utility.yul\":17695:17711   */\n      shl\n        /* \"#utility.yul\":17674:17711   */\n      swap1\n      pop\n        /* \"#utility.yul\":17611:17718   */\n      swap3\n      swap2\n      pop\n      pop\n      jump\t// out\n        /* \"#utility.yul\":17724:18117   */\n    tag_232:\n        /* \"#utility.yul\":17793:17799   */\n      0x00\n        /* \"#utility.yul\":17843:17844   */\n      0x08\n        /* \"#utility.yul\":17831:17841   */\n      dup4\n        /* \"#utility.yul\":17827:17845   */\n      mul\n        /* \"#utility.yul\":17866:17963   */\n      tag_420\n        /* \"#utility.yul\":17896:17962   */\n      0xffffffffffffffffffffffffffffffffffffffffffffffffffffffffffffffff\n        /* \"#utility.yul\":17885:17894   */\n      dup3\n        /* \"#utility.yul\":17866:17963   */\n      tag_231\n      jump\t// in\n    tag_420:\n        /* \"#utility.yul\":17984:18023   */\n      tag_421\n        /* \"#utility.yul\":18014:18022   */\n      dup7\n        /* \"#utility.yul\":18003:18012   */\n      dup4\n        /* \"#utility.yul\":17984:18023   */\n      tag_231\n      jump\t// in\n    tag_421:\n        /* \"#utility.yul\":17972:18023   */\n      swap6\n      pop\n        /* \"#utility.yul\":18056:18060   */\n      dup1\n        /* \"#utility.yul\":18052:18061   */\n      not\n        /* \"#utility.yul\":18045:18050   */\n      dup5\n        /* \"#utility.yul\":18041:18062   */\n      and\n        /* \"#utility.yul\":18032:18062   */\n      swap4\n      pop\n        /* \"#utility.yul\":18105:18109   */\n      dup1\n        /* \"#utility.yul\":18095:18103   */\n      dup7\n        /* \"#utility.yul\":18091:18110   */\n      and\n        /* \"#utility.yul\":18084:18089   */\n      dup5\n        /* \"#utility.yul\":18081:18111   */\n      or\n        /* \"#utility.yul\":18071:18111   */\n      swap3\n      pop\n        /* \"#utility.yul\":17800:18117   */\n      pop\n      pop\n        /* \"#utility.yul\":17724:18117   */\n      swap4\n      swap3\n      pop\n      pop\n      pop\n      jump\t// out\n        /* \"#utility.yul\":18123:18183   */\n    tag_233:\n        /* \"#utility.yul\":18151:18154   */\n      0x00\n        /* \"#utility.yul\":18172:18177   */\n      dup2\n        /* \"#utility.yul\":18165:18177   */\n      swap1\n      pop\n        /* \"#utility.yul\":18123:18183   */\n      swap2\n      swap1\n      pop\n      jump\t// out\n        /* \"#utility.yul\":18189:18331   */\n    tag_234:\n        /* \"#utility.yul\":18239:18248   */\n      0x00\n        /* \"#utility.yul\":18272:18325   */\n      tag_424\n        /* \"#utility.yul\":18290:18324   */\n      tag_425\n        /* \"#utility.yul\":18299:18323   */\n      tag_426\n        /* \"#utility.yul\":18317:18322   */\n      dup5\n        /* \"#utility.yul\":18299:18323   */\n      tag_181\n      jump\t// in\n    tag_426:\n        /* \"#utility.yul\":18290:18324   */\n      tag_233\n      jump\t// in\n    tag_425:\n        /* \"#utility.yul\":18272:18325   */\n      tag_181\n      jump\t// in\n    tag_424:\n        /* \"#utility.yul\":18259:18325   */\n      swap1\n      pop\n        /* \"#utility.yul\":18189:18331   */\n      swap2\n      swap1\n      pop\n      jump\t// out\n        /* \"#utility.yul\":18337:18412   */\n    tag_235:\n        /* \"#utility.yul\":18380:18383   */\n      0x00\n        /* \"#utility.yul\":18401:18406   */\n      dup2\n        /* \"#utility.yul\":18394:18406   */\n      swap1\n      pop\n        /* \"#utility.yul\":18337:18412   */\n      swap2\n      swap1\n      pop\n      jump\t// out\n        /* \"#utility.yul\":18418:18687   */\n    tag_236:\n        /* \"#utility.yul\":18528:18567   */\n      tag_429\n        /* \"#utility.yul\":18559:18566   */\n      dup4\n        /* \"#utility.yul\":18528:18567   */\n      tag_234\n      jump\t// in\n    tag_429:\n        /* \"#utility.yul\":18589:18680   */\n      tag_430\n        /* \"#utility.yul\":18638:18679   */\n      tag_431\n        /* \"#utility.yul\":18662:18678   */\n      dup3\n        /* \"#utility.yul\":18638:18679   */\n      tag_235\n      jump\t// in\n    tag_431:\n        /* \"#utility.yul\":18630:18636   */\n      dup5\n        /* \"#utility.yul\":18623:18627   */\n      dup5\n        /* \"#utility.yul\":18617:18628   */\n      sload\n        /* \"#utility.yul\":18589:18680   */\n      tag_232\n      jump\t// in\n    tag_430:\n        /* \"#utility.yul\":18583:18587   */\n      dup3\n        /* \"#utility.yul\":18576:18681   */\n      sstore\n        /* \"#utility.yul\":18494:18687   */\n      pop\n        /* \"#utility.yul\":18418:18687   */\n      pop\n      pop\n      pop\n      jump\t// out\n        /* \"#utility.yul\":18693:18766   */\n    tag_237:\n        /* \"#utility.yul\":18738:18741   */\n      0x00\n        /* \"#utility.yul\":18759:18760   */\n      0x00\n        /* \"#utility.yul\":18752:18760   */\n      swap1\n      pop\n        /* \"#utility.yul\":18693:18766   */\n      swap1\n      jump\t// out\n        /* \"#utility.yul\":18772:18961   */\n    tag_238:\n        /* \"#utility.yul\":18849:18881   */\n      tag_434\n      tag_237\n      jump\t// in\n    tag_434:\n        /* \"#utility.yul\":18890:18955   */\n      tag_435\n        /* \"#utility.yul\":18948:18954   */\n      dup2\n        /* \"#utility.yul\":18940:18946   */\n      dup5\n        /* \"#utility.yul\":18934:18938   */\n      dup5\n        /* \"#utility.yul\":18890:18955   */\n      tag_236\n      jump\t// in\n    tag_435:\n        /* \"#utility.yul\":18825:18961   */\n      pop\n        /* \"#utility.yul\":18772:18961   */\n      pop\n      pop\n      jump\t// out\n        /* \"#utility.yul\":18967:19153   */\n    tag_239:\n        /* \"#utility.yul\":19027:19147   */\n    tag_437:\n        /* \"#utility.yul\":19044:19047   */\n      dup2\n        /* \"#utility.yul\":19037:19042   */\n      dup2\n        /* \"#utility.yul\":19034:19048   */\n      lt\n        /* \"#utility.yul\":19027:19147   */\n      iszero\n      tag_439\n      jumpi\n        /* \"#utility.yul\":19098:19137   */\n      tag_440\n        /* \"#utility.yul\":19135:19136   */\n      0x00\n        /* \"#utility.yul\":19128:19133   */\n      dup3\n        /* \"#utility.yul\":19098:19137   */\n      tag_238\n      jump\t// in\n    tag_440:\n        /* \"#utility.yul\":19071:19072   */\n      0x01\n        /* \"#utility.yul\":19064:19069   */\n      dup2\n        /* \"#utility.yul\":19060:19073   */\n      add\n        /* \"#utility.yul\":19051:19073   */\n      swap1\n      pop\n        /* \"#utility.yul\":19027:19147   */\n      jump(tag_437)\n    tag_439:\n        /* \"#utility.yul\":18967:19153   */\n      pop\n      pop\n      jump\t// out\n        /* \"#utility.yul\":19159:19702   */\n    tag_240:\n        /* \"#utility.yul\":19260:19262   */\n      0x1f\n        /* \"#utility.yul\":19255:19258   */\n      dup3\n        /* \"#utility.yul\":19252:19263   */\n      gt\n        /* \"#utility.yul\":19249:19695   */\n      iszero\n      tag_442\n      jumpi\n        /* \"#utility.yul\":19294:19332   */\n      tag_443\n        /* \"#utility.yul\":19326:19331   */\n      dup2\n        /* \"#utility.yul\":19294:19332   */\n      tag_229\n      jump\t// in\n    tag_443:\n        /* \"#utility.yul\":19378:19407   */\n      tag_444\n        /* \"#utility.yul\":19396:19406   */\n      dup5\n        /* \"#utility.yul\":19378:19407   */\n      tag_230\n      jump\t// in\n    tag_444:\n        /* \"#utility.yul\":19368:19376   */\n      dup2\n        /* \"#utility.yul\":19364:19408   */\n      add\n        /* \"#utility.yul\":19561:19563   */\n      0x20\n        /* \"#utility.yul\":19549:19559   */\n      dup6\n        /* \"#utility.yul\":19546:19564   */\n      lt\n        /* \"#utility.yul\":19543:19592   */\n      iszero\n      tag_445\n      jumpi\n        /* \"#utility.yul\":19582:19590   */\n      dup2\n        /* \"#utility.yul\":19567:19590   */\n      swap1\n      pop\n        /* \"#utility.yul\":19543:19592   */\n    tag_445:\n        /* \"#utility.yul\":19605:19685   */\n      tag_446\n        /* \"#utility.yul\":19661:19683   */\n      tag_447\n        /* \"#utility.yul\":19679:19682   */\n      dup6\n        /* \"#utility.yul\":19661:19683   */\n      tag_230\n      jump\t// in\n    tag_447:\n        /* \"#utility.yul\":19651:19659   */\n      dup4\n        /* \"#utility.yul\":19647:19684   */\n      add\n        /* \"#utility.yul\":19634:19645   */\n      dup3\n        /* \"#utility.yul\":19605:19685   */\n      tag_239\n      jump\t// in\n    tag_446:\n        /* \"#utility.yul\":19264:19695   */\n      pop\n      pop\n        /* \"#utility.yul\":19249:19695   */\n    tag_442:\n        /* \"#utility.yul\":19159:19702   */\n      pop\n      pop\n      pop\n      jump\t// out\n        /* \"#utility.yul\":19708:19825   */\n    tag_241:\n        /* \"#utility.yul\":19762:19770   */\n      0x00\n        /* \"#utility.yul\":19812:19817   */\n      dup3\n        /* \"#utility.yul\":19806:19810   */\n      dup3\n        /* \"#utility.yul\":19802:19818   */\n      shr\n        /* \"#utility.yul\":19781:19818   */\n      swap1\n      pop\n        /* \"#utility.yul\":19708:19825   */\n      swap3\n      swap2\n      pop\n      pop\n      jump\t// out\n        /* \"#utility.yul\":19831:20000   */\n    tag_242:\n        /* \"#utility.yul\":19875:19881   */\n      0x00\n        /* \"#utility.yul\":19908:19959   */\n      tag_450\n        /* \"#utility.yul\":19956:19957   */\n      0x00\n        /* \"#utility.yul\":19952:19958   */\n      not\n        /* \"#utility.yul\":19944:19949   */\n      dup5\n        /* \"#utility.yul\":19941:19942   */\n      0x08\n        /* \"#utility.yul\":19937:19950   */\n      mul\n        /* \"#utility.yul\":19908:19959   */\n      tag_241\n      jump\t// in\n    tag_450:\n        /* \"#utility.yul\":19904:19960   */\n      not\n        /* \"#utility.yul\":19989:19993   */\n      dup1\n        /* \"#utility.yul\":19983:19987   */\n      dup4\n        /* \"#utility.yul\":19979:19994   */\n      and\n        /* \"#utility.yul\":19969:19994   */\n      swap2\n      pop\n        /* \"#utility.yul\":19882:20000   */\n      pop\n        /* \"#utility.yul\":19831:20000   */\n      swap3\n      swap2\n      pop\n      pop\n      jump\t// out\n        /* \"#utility.yul\":20005:20300   */\n    tag_243:\n        /* \"#utility.yul\":20081:20085   */\n      0x00\n        /* \"#utility.yul\":20227:20256   */\n      tag_452\n        /* \"#utility.yul\":20252:20255   */\n      dup4\n        /* \"#utility.yul\":20246:20250   */\n      dup4\n        /* \"#utility.yul\":20227:20256   */\n      tag_242\n      jump\t// in\n    tag_452:\n        /* \"#utility.yul\":20219:20256   */\n      swap2\n      pop\n        /* \"#utility.yul\":20289:20292   */\n      dup3\n        /* \"#utility.yul\":20286:20287   */\n      0x02\n        /* \"#utility.yul\":20282:20293   */\n      mul\n        /* \"#utility.yul\":20276:20280   */\n      dup3\n        /* \"#utility.yul\":20273:20294   */\n      or\n        /* \"#utility.yul\":20265:20294   */\n      swap1\n      pop\n        /* \"#utility.yul\":20005:20300   */\n      swap3\n      swap2\n      pop\n      pop\n      jump\t// out\n        /* \"#utility.yul\":20305:21756   */\n    tag_113:\n        /* \"#utility.yul\":20416:20419   */\n      dup2\n        /* \"#utility.yul\":20410:20414   */\n      dup2\n        /* \"#utility.yul\":20407:20420   */\n      sub\n        /* \"#utility.yul\":20404:20430   */\n      tag_454\n      jumpi\n        /* \"#utility.yul\":20423:20428   */\n      pop\n      pop\n      jump(tag_453)\n        /* \"#utility.yul\":20404:20430   */\n    tag_454:\n        /* \"#utility.yul\":20454:20488   */\n      tag_455\n        /* \"#utility.yul\":20484:20487   */\n      dup3\n        /* \"#utility.yul\":20454:20488   */\n      tag_228\n      jump\t// in\n    tag_455:\n        /* \"#utility.yul\":20553:20571   */\n      0xffffffffffffffff\n        /* \"#utility.yul\":20545:20551   */\n      dup2\n        /* \"#utility.yul\":20542:20572   */\n      gt\n        /* \"#utility.yul\":20539:20595   */\n      iszero\n      tag_456\n      jumpi\n        /* \"#utility.yul\":20575:20593   */\n      tag_457\n      tag_208\n      jump\t// in\n    tag_457:\n        /* \"#utility.yul\":20539:20595   */\n    tag_456:\n        /* \"#utility.yul\":20619:20657   */\n      tag_458\n        /* \"#utility.yul\":20651:20655   */\n      dup3\n        /* \"#utility.yul\":20645:20656   */\n      sload\n        /* \"#utility.yul\":20619:20657   */\n      tag_88\n      jump\t// in\n    tag_458:\n        /* \"#utility.yul\":20704:20771   */\n      tag_459\n        /* \"#utility.yul\":20764:20770   */\n      dup3\n        /* \"#utility.yul\":20756:20762   */\n      dup3\n        /* \"#utility.yul\":20750:20754   */\n      dup6\n        /* \"#utility.yul\":20704:20771   */\n      tag_240\n      jump\t// in\n    tag_459:\n        /* \"#utility.yul\":20798:20799   */\n      0x00\n        /* \"#utility.yul\":20827:20829   */\n      0x1f\n        /* \"#utility.yul\":20819:20825   */\n      dup4\n        /* \"#utility.yul\":20816:20830   */\n      gt\n        /* \"#utility.yul\":20844:20845   */\n      0x01\n        /* \"#utility.yul\":20839:21511   */\n      dup2\n      eq\n      tag_461\n      jumpi\n        /* \"#utility.yul\":21555:21556   */\n      0x00\n        /* \"#utility.yul\":21572:21578   */\n      dup5\n        /* \"#utility.yul\":21569:21646   */\n      iszero\n      tag_462\n      jumpi\n        /* \"#utility.yul\":21621:21630   */\n      dup3\n        /* \"#utility.yul\":21616:21619   */\n      dup8\n        /* \"#utility.yul\":21612:21631   */\n      add\n        /* \"#utility.yul\":21606:21632   */\n      sload\n        /* \"#utility.yul\":21597:21632   */\n      swap1\n      pop\n        /* \"#utility.yul\":21569:21646   */\n    tag_462:\n        /* \"#utility.yul\":21672:21739   */\n      tag_463\n        /* \"#utility.yul\":21732:21738   */\n      dup6\n        /* \"#utility.yul\":21725:21730   */\n      dup3\n        /* \"#utility.yul\":21672:21739   */\n      tag_243\n      jump\t// in\n    tag_463:\n        /* \"#utility.yul\":21666:21670   */\n      dup7\n        /* \"#utility.yul\":21659:21740   */\n      sstore\n        /* \"#utility.yul\":21528:21750   */\n      pop\n        /* \"#utility.yul\":20809:21750   */\n      jump(tag_460)\n        /* \"#utility.yul\":20839:21511   */\n    tag_461:\n        /* \"#utility.yul\":20891:20895   */\n      0x1f\n        /* \"#utility.yul\":20887:20896   */\n      not\n        /* \"#utility.yul\":20879:20885   */\n      dup5\n        /* \"#utility.yul\":20875:20897   */\n      and\n        /* \"#utility.yul\":20917:20953   */\n      tag_464\n        /* \"#utility.yul\":20949:20952   */\n      dup8\n        /* \"#utility.yul\":20917:20953   */\n      tag_229\n      jump\t// in\n    tag_464:\n        /* \"#utility.yul\":20910:20953   */\n      swap7\n      pop\n        /* \"#utility.yul\":20980:21017   */\n      tag_465\n        /* \"#utility.yul\":21012:21016   */\n      dup7\n        /* \"#utility.yul\":20980:21017   */\n      tag_229\n      jump\t// in\n    tag_465:\n        /* \"#utility.yul\":21039:21040   */\n      0x00\n        /* \"#utility.yul\":21053:21260   */\n    tag_466:\n        /* \"#utility.yul\":21067:21074   */\n      dup3\n        /* \"#utility.yul\":21064:21065   */\n      dup2\n        /* \"#utility.yul\":21061:21075   */\n      lt\n        /* \"#utility.yul\":21053:21260   */\n      iszero\n      tag_468\n      jumpi\n        /* \"#utility.yul\":21146:21155   */\n      dup5\n        /* \"#utility.yul\":21141:21144   */\n      dup10\n        /* \"#utility.yul\":21137:21156   */\n      add\n        /* \"#utility.yul\":21131:21157   */\n      sload\n        /* \"#utility.yul\":21123:21129   */\n      dup3\n        /* \"#utility.yul\":21116:21158   */\n      sstore\n        /* \"#utility.yul\":21197:21198   */\n      0x01\n        /* \"#utility.yul\":21189:21195   */\n      dup3\n        /* \"#utility.yul\":21185:21199   */\n      add\n        /* \"#utility.yul\":21175:21199   */\n      swap2\n      pop\n        /* \"#utility.yul\":21244:21245   */\n      0x01\n        /* \"#utility.yul\":21233:21242   */\n      dup6\n        /* \"#utility.yul\":21229:21246   */\n      add\n        /* \"#utility.yul\":21216:21246   */\n      swap5\n      pop\n        /* \"#utility.yul\":21090:21094   */\n      0x20\n        /* \"#utility.yul\":21087:21088   */\n      dup2\n        /* \"#utility.yul\":21083:21095   */\n      add\n        /* \"#utility.yul\":21078:21095   */\n      swap1\n      pop\n        /* \"#utility.yul\":21053:21260   */\n      jump(tag_466)\n    tag_468:\n        /* \"#utility.yul\":21288:21294   */\n      dup7\n        /* \"#utility.yul\":21279:21286   */\n      dup4\n        /* \"#utility.yul\":21276:21295   */\n      lt\n        /* \"#utility.yul\":21273:21452   */\n      iszero\n      tag_469\n      jumpi\n        /* \"#utility.yul\":21346:21355   */\n      dup5\n        /* \"#utility.yul\":21341:21344   */\n      dup10\n        /* \"#utility.yul\":21337:21356   */\n      add\n        /* \"#utility.yul\":21331:21357   */\n      sload\n        /* \"#utility.yul\":21389:21437   */\n      tag_470\n        /* \"#utility.yul\":21431:21435   */\n      0x1f\n        /* \"#utility.yul\":21423:21429   */\n      dup10\n        /* \"#utility.yul\":21419:21436   */\n      and\n        /* \"#utility.yul\":21408:21417   */\n      dup3\n        /* \"#utility.yul\":21389:21437   */\n      tag_242\n      jump\t// in\n    tag_470:\n        /* \"#utility.yul\":21381:21387   */\n      dup4\n        /* \"#utility.yul\":21374:21438   */\n      sstore\n        /* \"#utility.yul\":21296:21452   */\n      pop\n        /* \"#utility.yul\":21273:21452   */\n    tag_469:\n        /* \"#utility.yul\":21498:21499   */\n      0x01\n        /* \"#utility.yul\":21494:21495   */\n      0x02\n        /* \"#utility.yul\":21486:21492   */\n      dup9\n        /* \"#utility.yul\":21482:21496   */\n      mul\n        /* \"#utility.yul\":21478:21500   */\n      add\n        /* \"#utility.yul\":21472:21476   */\n      dup9\n        /* \"#utility.yul\":21465:21501   */\n      sstore\n        /* \"#utility.yul\":20846:21511   */\n      pop\n      pop\n      pop\n        /* \"#utility.yul\":20809:21750   */\n    tag_460:\n      pop\n        /* \"#utility.yul\":20394:21756   */\n      pop\n      pop\n      pop\n        /* \"#utility.yul\":20305:21756   */\n      pop\n      pop\n    tag_453:\n      jump\t// out\n        /* \"#utility.yul\":21762:21942   */\n    tag_116:\n        /* \"#utility.yul\":21810:21887   */\n      0x4e487b7100000000000000000000000000000000000000000000000000000000\n        /* \"#utility.yul\":21807:21808   */\n      0x00\n        /* \"#utility.yul\":21800:21888   */\n      mstore\n        /* \"#utility.yul\":21907:21911   */\n      0x31\n        /* \"#utility.yul\":21904:21905   */\n      0x04\n        /* \"#utility.yul\":21897:21912   */\n      mstore\n        /* \"#utility.yul\":21931:21935   */\n      0x24\n        /* \"#utility.yul\":21928:21929   */\n      0x00\n        /* \"#utility.yul\":21921:21936   */\n      revert\n        /* \"#utility.yul\":21948:22358   */\n    tag_131:\n        /* \"#utility.yul\":21988:21995   */\n      0x00\n        /* \"#utility.yul\":22011:22031   */\n      tag_473\n        /* \"#utility.yul\":22029:22030   */\n      dup3\n        /* \"#utility.yul\":22011:22031   */\n      tag_181\n      jump\t// in\n    tag_473:\n        /* \"#utility.yul\":22006:22031   */\n      swap2\n      pop\n        /* \"#utility.yul\":22045:22065   */\n      tag_474\n        /* \"#utility.yul\":22063:22064   */\n      dup4\n        /* \"#utility.yul\":22045:22065   */\n      tag_181\n      jump\t// in\n    tag_474:\n        /* \"#utility.yul\":22040:22065   */\n      swap3\n      pop\n        /* \"#utility.yul\":22100:22101   */\n      dup3\n        /* \"#utility.yul\":22097:22098   */\n      dup3\n        /* \"#utility.yul\":22093:22102   */\n      mul\n        /* \"#utility.yul\":22122:22152   */\n      tag_475\n        /* \"#utility.yul\":22140:22151   */\n      dup2\n        /* \"#utility.yul\":22122:22152   */\n      tag_181\n      jump\t// in\n    tag_475:\n        /* \"#utility.yul\":22111:22152   */\n      swap2\n      pop\n        /* \"#utility.yul\":22301:22302   */\n      dup3\n        /* \"#utility.yul\":22292:22299   */\n      dup3\n        /* \"#utility.yul\":22288:22303   */\n      div\n        /* \"#utility.yul\":22285:22286   */\n      dup5\n        /* \"#utility.yul\":22282:22304   */\n      eq\n        /* \"#utility.yul\":22262:22263   */\n      dup4\n        /* \"#utility.yul\":22255:22264   */\n      iszero\n        /* \"#utility.yul\":22235:22318   */\n      or\n        /* \"#utility.yul\":22212:22351   */\n      tag_476\n      jumpi\n        /* \"#utility.yul\":22331:22349   */\n      tag_477\n      tag_226\n      jump\t// in\n    tag_477:\n        /* \"#utility.yul\":22212:22351   */\n    tag_476:\n        /* \"#utility.yul\":21996:22358   */\n      pop\n        /* \"#utility.yul\":21948:22358   */\n      swap3\n      swap2\n      pop\n      pop\n      jump\t// out\n        /* \"#utility.yul\":22364:22532   */\n    tag_244:\n        /* \"#utility.yul\":22504:22524   */\n      0x566f74696e672068617320537461727465640000000000000000000000000000\n        /* \"#utility.yul\":22500:22501   */\n      0x00\n        /* \"#utility.yul\":22492:22498   */\n      dup3\n        /* \"#utility.yul\":22488:22502   */\n      add\n        /* \"#utility.yul\":22481:22525   */\n      mstore\n        /* \"#utility.yul\":22364:22532   */\n      pop\n      jump\t// out\n        /* \"#utility.yul\":22538:22904   */\n    tag_245:\n        /* \"#utility.yul\":22680:22683   */\n      0x00\n        /* \"#utility.yul\":22701:22768   */\n      tag_480\n        /* \"#utility.yul\":22765:22767   */\n      0x12\n        /* \"#utility.yul\":22760:22763   */\n      dup4\n        /* \"#utility.yul\":22701:22768   */\n      tag_198\n      jump\t// in\n    tag_480:\n        /* \"#utility.yul\":22694:22768   */\n      swap2\n      pop\n        /* \"#utility.yul\":22777:22870   */\n      tag_481\n        /* \"#utility.yul\":22866:22869   */\n      dup3\n        /* \"#utility.yul\":22777:22870   */\n      tag_244\n      jump\t// in\n    tag_481:\n        /* \"#utility.yul\":22895:22897   */\n      0x20\n        /* \"#utility.yul\":22890:22893   */\n      dup3\n        /* \"#utility.yul\":22886:22898   */\n      add\n        /* \"#utility.yul\":22879:22898   */\n      swap1\n      pop\n        /* \"#utility.yul\":22538:22904   */\n      swap2\n      swap1\n      pop\n      jump\t// out\n        /* \"#utility.yul\":22910:23329   */\n    tag_144:\n        /* \"#utility.yul\":23076:23080   */\n      0x00\n        /* \"#utility.yul\":23114:23116   */\n      0x20\n        /* \"#utility.yul\":23103:23112   */\n      dup3\n        /* \"#utility.yul\":23099:23117   */\n      add\n        /* \"#utility.yul\":23091:23117   */\n      swap1\n      pop\n        /* \"#utility.yul\":23163:23172   */\n      dup2\n        /* \"#utility.yul\":23157:23161   */\n      dup2\n        /* \"#utility.yul\":23153:23173   */\n      sub\n        /* \"#utility.yul\":23149:23150   */\n      0x00\n        /* \"#utility.yul\":23138:23147   */\n      dup4\n        /* \"#utility.yul\":23134:23151   */\n      add\n        /* \"#utility.yul\":23127:23174   */\n      mstore\n        /* \"#utility.yul\":23191:23322   */\n      tag_483\n        /* \"#utility.yul\":23317:23321   */\n      dup2\n        /* \"#utility.yul\":23191:23322   */\n      tag_245\n      jump\t// in\n    tag_483:\n        /* \"#utility.yul\":23183:23322   */\n      swap1\n      pop\n        /* \"#utility.yul\":22910:23329   */\n      swap2\n      swap1\n      pop\n      jump\t// out\n        /* \"#utility.yul\":23335:24730   */\n    tag_152:\n        /* \"#utility.yul\":23452:23489   */\n      tag_485\n        /* \"#utility.yul\":23485:23488   */\n      dup3\n        /* \"#utility.yul\":23452:23489   */\n      tag_187\n      jump\t// in\n    tag_485:\n        /* \"#utility.yul\":23554:23572   */\n      0xffffffffffffffff\n        /* \"#utility.yul\":23546:23552   */\n      dup2\n        /* \"#utility.yul\":23543:23573   */\n      gt\n        /* \"#utility.yul\":23540:23596   */\n      iszero\n      tag_486\n      jumpi\n        /* \"#utility.yul\":23576:23594   */\n      tag_487\n      tag_208\n      jump\t// in\n    tag_487:\n        /* \"#utility.yul\":23540:23596   */\n    tag_486:\n        /* \"#utility.yul\":23620:23658   */\n      tag_488\n        /* \"#utility.yul\":23652:23656   */\n      dup3\n        /* \"#utility.yul\":23646:23657   */\n      sload\n        /* \"#utility.yul\":23620:23658   */\n      tag_88\n      jump\t// in\n    tag_488:\n        /* \"#utility.yul\":23705:23772   */\n      tag_489\n        /* \"#utility.yul\":23765:23771   */\n      dup3\n        /* \"#utility.yul\":23757:23763   */\n      dup3\n        /* \"#utility.yul\":23751:23755   */\n      dup6\n        /* \"#utility.yul\":23705:23772   */\n      tag_240\n      jump\t// in\n    tag_489:\n        /* \"#utility.yul\":23799:23800   */\n      0x00\n        /* \"#utility.yul\":23823:23827   */\n      0x20\n        /* \"#utility.yul\":23810:23827   */\n      swap1\n      pop\n        /* \"#utility.yul\":23855:23857   */\n      0x1f\n        /* \"#utility.yul\":23847:23853   */\n      dup4\n        /* \"#utility.yul\":23844:23858   */\n      gt\n        /* \"#utility.yul\":23872:23873   */\n      0x01\n        /* \"#utility.yul\":23867:24485   */\n      dup2\n      eq\n      tag_491\n      jumpi\n        /* \"#utility.yul\":24529:24530   */\n      0x00\n        /* \"#utility.yul\":24546:24552   */\n      dup5\n        /* \"#utility.yul\":24543:24620   */\n      iszero\n      tag_492\n      jumpi\n        /* \"#utility.yul\":24595:24604   */\n      dup3\n        /* \"#utility.yul\":24590:24593   */\n      dup8\n        /* \"#utility.yul\":24586:24605   */\n      add\n        /* \"#utility.yul\":24580:24606   */\n      mload\n        /* \"#utility.yul\":24571:24606   */\n      swap1\n      pop\n        /* \"#utility.yul\":24543:24620   */\n    tag_492:\n        /* \"#utility.yul\":24646:24713   */\n      tag_493\n        /* \"#utility.yul\":24706:24712   */\n      dup6\n        /* \"#utility.yul\":24699:24704   */\n      dup3\n        /* \"#utility.yul\":24646:24713   */\n      tag_243\n      jump\t// in\n    tag_493:\n        /* \"#utility.yul\":24640:24644   */\n      dup7\n        /* \"#utility.yul\":24633:24714   */\n      sstore\n        /* \"#utility.yul\":24502:24724   */\n      pop\n        /* \"#utility.yul\":23837:24724   */\n      jump(tag_490)\n        /* \"#utility.yul\":23867:24485   */\n    tag_491:\n        /* \"#utility.yul\":23919:23923   */\n      0x1f\n        /* \"#utility.yul\":23915:23924   */\n      not\n        /* \"#utility.yul\":23907:23913   */\n      dup5\n        /* \"#utility.yul\":23903:23925   */\n      and\n        /* \"#utility.yul\":23953:23990   */\n      tag_494\n        /* \"#utility.yul\":23985:23989   */\n      dup7\n        /* \"#utility.yul\":23953:23990   */\n      tag_229\n      jump\t// in\n    tag_494:\n        /* \"#utility.yul\":24012:24013   */\n      0x00\n        /* \"#utility.yul\":24026:24234   */\n    tag_495:\n        /* \"#utility.yul\":24040:24047   */\n      dup3\n        /* \"#utility.yul\":24037:24038   */\n      dup2\n        /* \"#utility.yul\":24034:24048   */\n      lt\n        /* \"#utility.yul\":24026:24234   */\n      iszero\n      tag_497\n      jumpi\n        /* \"#utility.yul\":24119:24128   */\n      dup5\n        /* \"#utility.yul\":24114:24117   */\n      dup10\n        /* \"#utility.yul\":24110:24129   */\n      add\n        /* \"#utility.yul\":24104:24130   */\n      mload\n        /* \"#utility.yul\":24096:24102   */\n      dup3\n        /* \"#utility.yul\":24089:24131   */\n      sstore\n        /* \"#utility.yul\":24170:24171   */\n      0x01\n        /* \"#utility.yul\":24162:24168   */\n      dup3\n        /* \"#utility.yul\":24158:24172   */\n      add\n        /* \"#utility.yul\":24148:24172   */\n      swap2\n      pop\n        /* \"#utility.yul\":24217:24219   */\n      0x20\n        /* \"#utility.yul\":24206:24215   */\n      dup6\n        /* \"#utility.yul\":24202:24220   */\n      add\n        /* \"#utility.yul\":24189:24220   */\n      swap5\n      pop\n        /* \"#utility.yul\":24063:24067   */\n      0x20\n        /* \"#utility.yul\":24060:24061   */\n      dup2\n        /* \"#utility.yul\":24056:24068   */\n      add\n        /* \"#utility.yul\":24051:24068   */\n      swap1\n      pop\n        /* \"#utility.yul\":24026:24234   */\n      jump(tag_495)\n    tag_497:\n        /* \"#utility.yul\":24262:24268   */\n      dup7\n        /* \"#utility.yul\":24253:24260   */\n      dup4\n        /* \"#utility.yul\":24250:24269   */\n      lt\n        /* \"#utility.yul\":24247:24426   */\n      iszero\n      tag_498\n      jumpi\n        /* \"#utility.yul\":24320:24329   */\n      dup5\n        /* \"#utility.yul\":24315:24318   */\n      dup10\n        /* \"#utility.yul\":24311:24330   */\n      add\n        /* \"#utility.yul\":24305:24331   */\n      mload\n        /* \"#utility.yul\":24363:24411   */\n      tag_499\n        /* \"#utility.yul\":24405:24409   */\n      0x1f\n        /* \"#utility.yul\":24397:24403   */\n      dup10\n        /* \"#utility.yul\":24393:24410   */\n      and\n        /* \"#utility.yul\":24382:24391   */\n      dup3\n        /* \"#utility.yul\":24363:24411   */\n      tag_242\n      jump\t// in\n    tag_499:\n        /* \"#utility.yul\":24355:24361   */\n      dup4\n        /* \"#utility.yul\":24348:24412   */\n      sstore\n        /* \"#utility.yul\":24270:24426   */\n      pop\n        /* \"#utility.yul\":24247:24426   */\n    tag_498:\n        /* \"#utility.yul\":24472:24473   */\n      0x01\n        /* \"#utility.yul\":24468:24469   */\n      0x02\n        /* \"#utility.yul\":24460:24466   */\n      dup9\n        /* \"#utility.yul\":24456:24470   */\n      mul\n        /* \"#utility.yul\":24452:24474   */\n      add\n        /* \"#utility.yul\":24446:24450   */\n      dup9\n        /* \"#utility.yul\":24439:24475   */\n      sstore\n        /* \"#utility.yul\":23874:24485   */\n      pop\n      pop\n      pop\n        /* \"#utility.yul\":23837:24724   */\n    tag_490:\n      pop\n        /* \"#utility.yul\":23427:24730   */\n      pop\n      pop\n      pop\n        /* \"#utility.yul\":23335:24730   */\n      pop\n      pop\n      jump\t// out\n\n    auxdata: 0xa26469706673582212202c343dc44c938552852f058c8066ce55d78df6140deb1bfba60e2747d9ec565464736f6c634300081e0033\n}\n",
				"bytecode": {
					"linkReferences": {},
					"object": "608060405234801561000f575f5ffd5b50604051611fc2380380611fc28339818101604052810190610031919061047b565b335f73ffffffffffffffffffffffffffffffffffffffff168173ffffffffffffffffffffffffffffffffffffffff16036100a2575f6040517f1e4fbdf70000000000000000000000000000000000000000000000000000000081526004016100999190610501565b60405180910390fd5b6100b18161018b60201b60201c565b503360025f6101000a81548173ffffffffffffffffffffffffffffffffffffffff021916908373ffffffffffffffffffffffffffffffffffffffff1602179055505f5f90505b815181101561018457600160405180604001604052808484815181106101205761011f61051a565b5b602002602001015181526020015f815250908060018154018082558091505060019003905f5260205f2090600202015f909190919091505f820151815f01908161016a9190610757565b5060208201518160010155505080806001019150506100f7565b5050610826565b5f5f5f9054906101000a900473ffffffffffffffffffffffffffffffffffffffff169050815f5f6101000a81548173ffffffffffffffffffffffffffffffffffffffff021916908373ffffffffffffffffffffffffffffffffffffffff1602179055508173ffffffffffffffffffffffffffffffffffffffff168173ffffffffffffffffffffffffffffffffffffffff167f8be0079c531659141344cd1fd0a4f28419497f9722a3daafe3b4186f6b6457e060405160405180910390a35050565b5f604051905090565b5f5ffd5b5f5ffd5b5f5ffd5b5f601f19601f8301169050919050565b7f4e487b71000000000000000000000000000000000000000000000000000000005f52604160045260245ffd5b6102a782610261565b810181811067ffffffffffffffff821117156102c6576102c5610271565b5b80604052505050565b5f6102d861024c565b90506102e4828261029e565b919050565b5f67ffffffffffffffff82111561030357610302610271565b5b602082029050602081019050919050565b5f5ffd5b5f5ffd5b5f67ffffffffffffffff82111561033657610335610271565b5b61033f82610261565b9050602081019050919050565b8281835e5f83830152505050565b5f61036c6103678461031c565b6102cf565b90508281526020810184848401111561038857610387610318565b5b61039384828561034c565b509392505050565b5f82601f8301126103af576103ae61025d565b5b81516103bf84826020860161035a565b91505092915050565b5f6103da6103d5846102e9565b6102cf565b905080838252602082019050602084028301858111156103fd576103fc610314565b5b835b8181101561044457805167ffffffffffffffff8111156104225761042161025d565b5b80860161042f898261039b565b855260208501945050506020810190506103ff565b5050509392505050565b5f82601f8301126104625761046161025d565b5b81516104728482602086016103c8565b91505092915050565b5f602082840312156104905761048f610255565b5b5f82015167ffffffffffffffff8111156104ad576104ac610259565b5b6104b98482850161044e565b91505092915050565b5f73ffffffffffffffffffffffffffffffffffffffff82169050919050565b5f6104eb826104c2565b9050919050565b6104fb816104e1565b82525050565b5f6020820190506105145f8301846104f2565b92915050565b7f4e487b71000000000000000000000000000000000000000000000000000000005f52603260045260245ffd5b5f81519050919050565b7f4e487b71000000000000000000000000000000000000000000000000000000005f52602260045260245ffd5b5f600282049050600182168061059557607f821691505b6020821081036105a8576105a7610551565b5b50919050565b5f819050815f5260205f209050919050565b5f6020601f8301049050919050565b5f82821b905092915050565b5f6008830261060a7fffffffffffffffffffffffffffffffffffffffffffffffffffffffffffffffff826105cf565b61061486836105cf565b95508019841693508086168417925050509392505050565b5f819050919050565b5f819050919050565b5f61065861065361064e8461062c565b610635565b61062c565b9050919050565b5f819050919050565b6106718361063e565b61068561067d8261065f565b8484546105db565b825550505050565b5f5f905090565b61069c61068d565b6106a7818484610668565b505050565b5b818110156106ca576106bf5f82610694565b6001810190506106ad565b5050565b601f82111561070f576106e0816105ae565b6106e9846105c0565b810160208510156106f8578190505b61070c610704856105c0565b8301826106ac565b50505b505050565b5f82821c905092915050565b5f61072f5f1984600802610714565b1980831691505092915050565b5f6107478383610720565b9150826002028217905092915050565b61076082610547565b67ffffffffffffffff81111561077957610778610271565b5b610783825461057e565b61078e8282856106ce565b5f60209050601f8311600181146107bf575f84156107ad578287015190505b6107b7858261073c565b86555061081e565b601f1984166107cd866105ae565b5f5b828110156107f4578489015182556001820191506020850194506020810190506107cf565b86831015610811578489015161080d601f891682610720565b8355505b6001600288020188555050505b505050505050565b61178f806108335f395ff3fe608060405234801561000f575f5ffd5b50600436106100cd575f3560e01c8063715018a61161008a578063a3ec138d11610064578063a3ec138d146101d8578063a999e56214610208578063efb98bcf14610224578063f2fde38b14610242576100cd565b8063715018a61461019257806385a386351461019c5780638da5cb5b146101ba576100cd565b80630121b93f146100d157806306a49fce146100ed57806309e9d7e21461010b578063101158af146101275780633477ee2e146101455780633d2f5bda14610176575b5f5ffd5b6100eb60048036038101906100e69190610aec565b61025e565b005b6100f5610412565b6040516101029190610c8b565b60405180910390f35b61012560048036038101906101209190610aec565b610507565b005b61012f61062d565b60405161013c9190610cba565b60405180910390f35b61015f600480360381019061015a9190610aec565b610633565b60405161016d929190610d1b565b60405180910390f35b610190600480360381019061018b9190610aec565b6106e8565b005b61019a610718565b005b6101a461072b565b6040516101b19190610cba565b60405180910390f35b6101c2610731565b6040516101cf9190610d88565b60405180910390f35b6101f260048036038101906101ed9190610dcb565b610758565b6040516101ff9190610e10565b60405180910390f35b610222600480360381019061021d9190611037565b610775565b005b61022c610857565b6040516102399190610cba565b60405180910390f35b61025c60048036038101906102579190610dcb565b61087d565b005b600454421015801561027257506005544211155b6102b1576040517f08c379a00000000000000000000000000000000000000000000000000000000081526004016102a8906110c8565b60405180910390fd5b60035f3373ffffffffffffffffffffffffffffffffffffffff1673ffffffffffffffffffffffffffffffffffffffff1681526020019081526020015f205f9054906101000a900460ff161561033b576040517f08c379a000000000000000000000000000000000000000000000000000000000815260040161033290611130565b60405180910390fd5b6001805490508110610382576040517f08c379a000000000000000000000000000000000000000000000000000000000815260040161037990611198565b60405180910390fd5b60018181548110610396576103956111b6565b5b905f5260205f2090600202016001015f8154809291906103b590611210565b9190505550600160035f3373ffffffffffffffffffffffffffffffffffffffff1673ffffffffffffffffffffffffffffffffffffffff1681526020019081526020015f205f6101000a81548160ff02191690831515021790555050565b60606001805480602002602001604051908101604052809291908181526020015f905b828210156104fe578382905f5260205f2090600202016040518060400160405290815f8201805461046590611284565b80601f016020809104026020016040519081016040528092919081815260200182805461049190611284565b80156104dc5780601f106104b3576101008083540402835291602001916104dc565b820191905f5260205f20905b8154815290600101906020018083116104bf57829003601f168201915b5050505050815260200160018201548152505081526020019060010190610435565b50505050905090565b61050f610901565b6001805490508110610556576040517f08c379a000000000000000000000000000000000000000000000000000000000815260040161054d90611198565b60405180910390fd5b5f8190505b6001808054905061056c91906112b4565b8110156105eb576001808261058191906112e7565b81548110610592576105916111b6565b5b905f5260205f209060020201600182815481106105b2576105b16111b6565b5b905f5260205f2090600202015f8201815f0190816105d091906114cf565b5060018201548160010155905050808060010191505061055b565b5060018054806105fe576105fd6115b4565b5b600190038181905f5260205f2090600202015f5f82015f61061f9190610a50565b600182015f90555050905550565b60045481565b60018181548110610642575f80fd5b905f5260205f2090600202015f91509050805f01805461066190611284565b80601f016020809104026020016040519081016040528092919081815260200182805461068d90611284565b80156106d85780601f106106af576101008083540402835291602001916106d8565b820191905f5260205f20905b8154815290600101906020018083116106bb57829003601f168201915b5050505050908060010154905082565b6106f0610901565b42600481905550603c8161070491906115e1565b4261070f91906112e7565b60058190555050565b610720610901565b6107295f610988565b565b60055481565b5f5f5f9054906101000a900473ffffffffffffffffffffffffffffffffffffffff16905090565b6003602052805f5260405f205f915054906101000a900460ff1681565b61077d610901565b5f600554146107c1576040517f08c379a00000000000000000000000000000000000000000000000000000000081526004016107b89061166c565b60405180910390fd5b5f5f90505b815181101561085357600160405180604001604052808484815181106107ef576107ee6111b6565b5b602002602001015181526020015f815250908060018154018082558091505060019003905f5260205f2090600202015f909190919091505f820151815f019081610839919061168a565b5060208201518160010155505080806001019150506107c6565b5050565b5f6005544210610869575f905061087a565b4260055461087791906112b4565b90505b90565b610885610901565b5f73ffffffffffffffffffffffffffffffffffffffff168173ffffffffffffffffffffffffffffffffffffffff16036108f5575f6040517f1e4fbdf70000000000000000000000000000000000000000000000000000000081526004016108ec9190610d88565b60405180910390fd5b6108fe81610988565b50565b610909610a49565b73ffffffffffffffffffffffffffffffffffffffff16610927610731565b73ffffffffffffffffffffffffffffffffffffffff16146109865761094a610a49565b6040517f118cdaa700000000000000000000000000000000000000000000000000000000815260040161097d9190610d88565b60405180910390fd5b565b5f5f5f9054906101000a900473ffffffffffffffffffffffffffffffffffffffff169050815f5f6101000a81548173ffffffffffffffffffffffffffffffffffffffff021916908373ffffffffffffffffffffffffffffffffffffffff1602179055508173ffffffffffffffffffffffffffffffffffffffff168173ffffffffffffffffffffffffffffffffffffffff167f8be0079c531659141344cd1fd0a4f28419497f9722a3daafe3b4186f6b6457e060405160405180910390a35050565b5f33905090565b508054610a5c90611284565b5f825580601f10610a6d5750610a8a565b601f0160209004905f5260205f2090810190610a899190610a8d565b5b50565b5b80821115610aa4575f815f905550600101610a8e565b5090565b5f604051905090565b5f5ffd5b5f5ffd5b5f819050919050565b610acb81610ab9565b8114610ad5575f5ffd5b50565b5f81359050610ae681610ac2565b92915050565b5f60208284031215610b0157610b00610ab1565b5b5f610b0e84828501610ad8565b91505092915050565b5f81519050919050565b5f82825260208201905092915050565b5f819050602082019050919050565b5f81519050919050565b5f82825260208201905092915050565b8281835e5f83830152505050565b5f601f19601f8301169050919050565b5f610b8282610b40565b610b8c8185610b4a565b9350610b9c818560208601610b5a565b610ba581610b68565b840191505092915050565b610bb981610ab9565b82525050565b5f604083015f8301518482035f860152610bd98282610b78565b9150506020830151610bee6020860182610bb0565b508091505092915050565b5f610c048383610bbf565b905092915050565b5f602082019050919050565b5f610c2282610b17565b610c2c8185610b21565b935083602082028501610c3e85610b31565b805f5b85811015610c795784840389528151610c5a8582610bf9565b9450610c6583610c0c565b925060208a01995050600181019050610c41565b50829750879550505050505092915050565b5f6020820190508181035f830152610ca38184610c18565b905092915050565b610cb481610ab9565b82525050565b5f602082019050610ccd5f830184610cab565b92915050565b5f82825260208201905092915050565b5f610ced82610b40565b610cf78185610cd3565b9350610d07818560208601610b5a565b610d1081610b68565b840191505092915050565b5f6040820190508181035f830152610d338185610ce3565b9050610d426020830184610cab565b9392505050565b5f73ffffffffffffffffffffffffffffffffffffffff82169050919050565b5f610d7282610d49565b9050919050565b610d8281610d68565b82525050565b5f602082019050610d9b5f830184610d79565b92915050565b610daa81610d68565b8114610db4575f5ffd5b50565b5f81359050610dc581610da1565b92915050565b5f60208284031215610de057610ddf610ab1565b5b5f610ded84828501610db7565b91505092915050565b5f8115159050919050565b610e0a81610df6565b82525050565b5f602082019050610e235f830184610e01565b92915050565b5f5ffd5b7f4e487b71000000000000000000000000000000000000000000000000000000005f52604160045260245ffd5b610e6382610b68565b810181811067ffffffffffffffff82111715610e8257610e81610e2d565b5b80604052505050565b5f610e94610aa8565b9050610ea08282610e5a565b919050565b5f67ffffffffffffffff821115610ebf57610ebe610e2d565b5b602082029050602081019050919050565b5f5ffd5b5f5ffd5b5f67ffffffffffffffff821115610ef257610ef1610e2d565b5b610efb82610b68565b9050602081019050919050565b828183375f83830152505050565b5f610f28610f2384610ed8565b610e8b565b905082815260208101848484011115610f4457610f43610ed4565b5b610f4f848285610f08565b509392505050565b5f82601f830112610f6b57610f6a610e29565b5b8135610f7b848260208601610f16565b91505092915050565b5f610f96610f9184610ea5565b610e8b565b90508083825260208201905060208402830185811115610fb957610fb8610ed0565b5b835b8181101561100057803567ffffffffffffffff811115610fde57610fdd610e29565b5b808601610feb8982610f57565b85526020850194505050602081019050610fbb565b5050509392505050565b5f82601f83011261101e5761101d610e29565b5b813561102e848260208601610f84565b91505092915050565b5f6020828403121561104c5761104b610ab1565b5b5f82013567ffffffffffffffff81111561106957611068610ab5565b5b6110758482850161100a565b91505092915050565b7f566f74696e67206973206e6f74206163746976650000000000000000000000005f82015250565b5f6110b2601483610cd3565b91506110bd8261107e565b602082019050919050565b5f6020820190508181035f8301526110df816110a6565b9050919050565b7f596f75206861766520616c726561647920766f746564000000000000000000005f82015250565b5f61111a601683610cd3565b9150611125826110e6565b602082019050919050565b5f6020820190508181035f8301526111478161110e565b9050919050565b7f496e76616c69642063616e64696461746520696e6465780000000000000000005f82015250565b5f611182601783610cd3565b915061118d8261114e565b602082019050919050565b5f6020820190508181035f8301526111af81611176565b9050919050565b7f4e487b71000000000000000000000000000000000000000000000000000000005f52603260045260245ffd5b7f4e487b71000000000000000000000000000000000000000000000000000000005f52601160045260245ffd5b5f61121a82610ab9565b91507fffffffffffffffffffffffffffffffffffffffffffffffffffffffffffffffff820361124c5761124b6111e3565b5b600182019050919050565b7f4e487b71000000000000000000000000000000000000000000000000000000005f52602260045260245ffd5b5f600282049050600182168061129b57607f821691505b6020821081036112ae576112ad611257565b5b50919050565b5f6112be82610ab9565b91506112c983610ab9565b92508282039050818111156112e1576112e06111e3565b5b92915050565b5f6112f182610ab9565b91506112fc83610ab9565b9250828201905080821115611314576113136111e3565b5b92915050565b5f8154905061132881611284565b9050919050565b5f819050815f5260205f209050919050565b5f6020601f8301049050919050565b5f82821b905092915050565b5f6008830261138b7fffffffffffffffffffffffffffffffffffffffffffffffffffffffffffffffff82611350565b6113958683611350565b95508019841693508086168417925050509392505050565b5f819050919050565b5f6113d06113cb6113c684610ab9565b6113ad565b610ab9565b9050919050565b5f819050919050565b6113e9836113b6565b6113fd6113f5826113d7565b84845461135c565b825550505050565b5f5f905090565b611414611405565b61141f8184846113e0565b505050565b5b81811015611442576114375f8261140c565b600181019050611425565b5050565b601f821115611487576114588161132f565b61146184611341565b81016020851015611470578190505b61148461147c85611341565b830182611424565b50505b505050565b5f82821c905092915050565b5f6114a75f198460080261148c565b1980831691505092915050565b5f6114bf8383611498565b9150826002028217905092915050565b8181036114dd5750506115b2565b6114e68261131a565b67ffffffffffffffff8111156114ff576114fe610e2d565b5b6115098254611284565b611514828285611446565b5f601f831160018114611541575f841561152f578287015490505b61153985826114b4565b8655506115ab565b601f19841661154f8761132f565b965061155a8661132f565b5f5b828110156115815784890154825560018201915060018501945060208101905061155c565b8683101561159e578489015461159a601f891682611498565b8355505b6001600288020188555050505b5050505050505b565b7f4e487b71000000000000000000000000000000000000000000000000000000005f52603160045260245ffd5b5f6115eb82610ab9565b91506115f683610ab9565b925082820261160481610ab9565b9150828204841483151761161b5761161a6111e3565b5b5092915050565b7f566f74696e6720686173205374617274656400000000000000000000000000005f82015250565b5f611656601283610cd3565b915061166182611622565b602082019050919050565b5f6020820190508181035f8301526116838161164a565b9050919050565b61169382610b40565b67ffffffffffffffff8111156116ac576116ab610e2d565b5b6116b68254611284565b6116c1828285611446565b5f60209050601f8311600181146116f2575f84156116e0578287015190505b6116ea85826114b4565b865550611751565b601f1984166117008661132f565b5f5b8281101561172757848901518255600182019150602085019450602081019050611702565b868310156117445784890151611740601f891682611498565b8355505b6001600288020188555050505b50505050505056fea26469706673582212202c343dc44c938552852f058c8066ce55d78df6140deb1bfba60e2747d9ec565464736f6c634300081e0033",
					"opcodes": "PUSH1 0x80 PUSH1 0x40 MSTORE CALLVALUE DUP1 ISZERO PUSH2 0xF JUMPI PUSH0 PUSH0 REVERT JUMPDEST POP PUSH1 0x40 MLOAD PUSH2 0x1FC2 CODESIZE SUB DUP1 PUSH2 0x1FC2 DUP4 CODECOPY DUP2 DUP2 ADD PUSH1 0x40 MSTORE DUP2 ADD SWAP1 PUSH2 0x31 SWAP2 SWAP1 PUSH2 0x47B JUMP JUMPDEST CALLER PUSH0 PUSH20 0xFFFFFFFFFFFFFFFFFFFFFFFFFFFFFFFFFFFFFFFF AND DUP2 PUSH20 0xFFFFFFFFFFFFFFFFFFFFFFFFFFFFFFFFFFFFFFFF AND SUB PUSH2 0xA2 JUMPI PUSH0 PUSH1 0x40 MLOAD PUSH32 0x1E4FBDF700000000000000000000000000000000000000000000000000000000 DUP2 MSTORE PUSH1 0x4 ADD PUSH2 0x99 SWAP2 SWAP1 PUSH2 0x501 JUMP JUMPDEST PUSH1 0x40 MLOAD DUP1 SWAP2 SUB SWAP1 REVERT JUMPDEST PUSH2 0xB1 DUP2 PUSH2 0x18B PUSH1 0x20 SHL PUSH1 0x20 SHR JUMP JUMPDEST POP CALLER PUSH1 0x2 PUSH0 PUSH2 0x100 EXP DUP2 SLOAD DUP2 PUSH20 0xFFFFFFFFFFFFFFFFFFFFFFFFFFFFFFFFFFFFFFFF MUL NOT AND SWAP1 DUP4 PUSH20 0xFFFFFFFFFFFFFFFFFFFFFFFFFFFFFFFFFFFFFFFF AND MUL OR SWAP1 SSTORE POP PUSH0 PUSH0 SWAP1 POP JUMPDEST DUP2 MLOAD DUP2 LT ISZERO PUSH2 0x184 JUMPI PUSH1 0x1 PUSH1 0x40 MLOAD DUP1 PUSH1 0x40 ADD PUSH1 0x40 MSTORE DUP1 DUP5 DUP5 DUP2 MLOAD DUP2 LT PUSH2 0x120 JUMPI PUSH2 0x11F PUSH2 0x51A JUMP JUMPDEST JUMPDEST PUSH1 0x20 MUL PUSH1 0x20 ADD ADD MLOAD DUP2 MSTORE PUSH1 0x20 ADD PUSH0 DUP2 MSTORE POP SWAP1 DUP1 PUSH1 0x1 DUP2 SLOAD ADD DUP1 DUP3 SSTORE DUP1 SWAP2 POP POP PUSH1 0x1 SWAP1 SUB SWAP1 PUSH0 MSTORE PUSH1 0x20 PUSH0 KECCAK256 SWAP1 PUSH1 0x2 MUL ADD PUSH0 SWAP1 SWAP2 SWAP1 SWAP2 SWAP1 SWAP2 POP PUSH0 DUP3 ADD MLOAD DUP2 PUSH0 ADD SWAP1 DUP2 PUSH2 0x16A SWAP2 SWAP1 PUSH2 0x757 JUMP JUMPDEST POP PUSH1 0x20 DUP3 ADD MLOAD DUP2 PUSH1 0x1 ADD SSTORE POP POP DUP1 DUP1 PUSH1 0x1 ADD SWAP2 POP POP PUSH2 0xF7 JUMP JUMPDEST POP POP PUSH2 0x826 JUMP JUMPDEST PUSH0 PUSH0 PUSH0 SWAP1 SLOAD SWAP1 PUSH2 0x100 EXP SWAP1 DIV PUSH20 0xFFFFFFFFFFFFFFFFFFFFFFFFFFFFFFFFFFFFFFFF AND SWAP1 POP DUP2 PUSH0 PUSH0 PUSH2 0x100 EXP DUP2 SLOAD DUP2 PUSH20 0xFFFFFFFFFFFFFFFFFFFFFFFFFFFFFFFFFFFFFFFF MUL NOT AND SWAP1 DUP4 PUSH20 0xFFFFFFFFFFFFFFFFFFFFFFFFFFFFFFFFFFFFFFFF AND MUL OR SWAP1 SSTORE POP DUP2 PUSH20 0xFFFFFFFFFFFFFFFFFFFFFFFFFFFFFFFFFFFFFFFF AND DUP2 PUSH20 0xFFFFFFFFFFFFFFFFFFFFFFFFFFFFFFFFFFFFFFFF AND PUSH32 0x8BE0079C531659141344CD1FD0A4F28419497F9722A3DAAFE3B4186F6B6457E0 PUSH1 0x40 MLOAD PUSH1 0x40 MLOAD DUP1 SWAP2 SUB SWAP1 LOG3 POP POP JUMP JUMPDEST PUSH0 PUSH1 0x40 MLOAD SWAP1 POP SWAP1 JUMP JUMPDEST PUSH0 PUSH0 REVERT JUMPDEST PUSH0 PUSH0 REVERT JUMPDEST PUSH0 PUSH0 REVERT JUMPDEST PUSH0 PUSH1 0x1F NOT PUSH1 0x1F DUP4 ADD AND SWAP1 POP SWAP2 SWAP1 POP JUMP JUMPDEST PUSH32 0x4E487B7100000000000000000000000000000000000000000000000000000000 PUSH0 MSTORE PUSH1 0x41 PUSH1 0x4 MSTORE PUSH1 0x24 PUSH0 REVERT JUMPDEST PUSH2 0x2A7 DUP3 PUSH2 0x261 JUMP JUMPDEST DUP2 ADD DUP2 DUP2 LT PUSH8 0xFFFFFFFFFFFFFFFF DUP3 GT OR ISZERO PUSH2 0x2C6 JUMPI PUSH2 0x2C5 PUSH2 0x271 JUMP JUMPDEST JUMPDEST DUP1 PUSH1 0x40 MSTORE POP POP POP JUMP JUMPDEST PUSH0 PUSH2 0x2D8 PUSH2 0x24C JUMP JUMPDEST SWAP1 POP PUSH2 0x2E4 DUP3 DUP3 PUSH2 0x29E JUMP JUMPDEST SWAP2 SWAP1 POP JUMP JUMPDEST PUSH0 PUSH8 0xFFFFFFFFFFFFFFFF DUP3 GT ISZERO PUSH2 0x303 JUMPI PUSH2 0x302 PUSH2 0x271 JUMP JUMPDEST JUMPDEST PUSH1 0x20 DUP3 MUL SWAP1 POP PUSH1 0x20 DUP2 ADD SWAP1 POP SWAP2 SWAP1 POP JUMP JUMPDEST PUSH0 PUSH0 REVERT JUMPDEST PUSH0 PUSH0 REVERT JUMPDEST PUSH0 PUSH8 0xFFFFFFFFFFFFFFFF DUP3 GT ISZERO PUSH2 0x336 JUMPI PUSH2 0x335 PUSH2 0x271 JUMP JUMPDEST JUMPDEST PUSH2 0x33F DUP3 PUSH2 0x261 JUMP JUMPDEST SWAP1 POP PUSH1 0x20 DUP2 ADD SWAP1 POP SWAP2 SWAP1 POP JUMP JUMPDEST DUP3 DUP2 DUP4 MCOPY PUSH0 DUP4 DUP4 ADD MSTORE POP POP POP JUMP JUMPDEST PUSH0 PUSH2 0x36C PUSH2 0x367 DUP5 PUSH2 0x31C JUMP JUMPDEST PUSH2 0x2CF JUMP JUMPDEST SWAP1 POP DUP3 DUP2 MSTORE PUSH1 0x20 DUP2 ADD DUP5 DUP5 DUP5 ADD GT ISZERO PUSH2 0x388 JUMPI PUSH2 0x387 PUSH2 0x318 JUMP JUMPDEST JUMPDEST PUSH2 0x393 DUP5 DUP3 DUP6 PUSH2 0x34C JUMP JUMPDEST POP SWAP4 SWAP3 POP POP POP JUMP JUMPDEST PUSH0 DUP3 PUSH1 0x1F DUP4 ADD SLT PUSH2 0x3AF JUMPI PUSH2 0x3AE PUSH2 0x25D JUMP JUMPDEST JUMPDEST DUP2 MLOAD PUSH2 0x3BF DUP5 DUP3 PUSH1 0x20 DUP7 ADD PUSH2 0x35A JUMP JUMPDEST SWAP2 POP POP SWAP3 SWAP2 POP POP JUMP JUMPDEST PUSH0 PUSH2 0x3DA PUSH2 0x3D5 DUP5 PUSH2 0x2E9 JUMP JUMPDEST PUSH2 0x2CF JUMP JUMPDEST SWAP1 POP DUP1 DUP4 DUP3 MSTORE PUSH1 0x20 DUP3 ADD SWAP1 POP PUSH1 0x20 DUP5 MUL DUP4 ADD DUP6 DUP2 GT ISZERO PUSH2 0x3FD JUMPI PUSH2 0x3FC PUSH2 0x314 JUMP JUMPDEST JUMPDEST DUP4 JUMPDEST DUP2 DUP2 LT ISZERO PUSH2 0x444 JUMPI DUP1 MLOAD PUSH8 0xFFFFFFFFFFFFFFFF DUP2 GT ISZERO PUSH2 0x422 JUMPI PUSH2 0x421 PUSH2 0x25D JUMP JUMPDEST JUMPDEST DUP1 DUP7 ADD PUSH2 0x42F DUP10 DUP3 PUSH2 0x39B JUMP JUMPDEST DUP6 MSTORE PUSH1 0x20 DUP6 ADD SWAP5 POP POP POP PUSH1 0x20 DUP2 ADD SWAP1 POP PUSH2 0x3FF JUMP JUMPDEST POP POP POP SWAP4 SWAP3 POP POP POP JUMP JUMPDEST PUSH0 DUP3 PUSH1 0x1F DUP4 ADD SLT PUSH2 0x462 JUMPI PUSH2 0x461 PUSH2 0x25D JUMP JUMPDEST JUMPDEST DUP2 MLOAD PUSH2 0x472 DUP5 DUP3 PUSH1 0x20 DUP7 ADD PUSH2 0x3C8 JUMP JUMPDEST SWAP2 POP POP SWAP3 SWAP2 POP POP JUMP JUMPDEST PUSH0 PUSH1 0x20 DUP3 DUP5 SUB SLT ISZERO PUSH2 0x490 JUMPI PUSH2 0x48F PUSH2 0x255 JUMP JUMPDEST JUMPDEST PUSH0 DUP3 ADD MLOAD PUSH8 0xFFFFFFFFFFFFFFFF DUP2 GT ISZERO PUSH2 0x4AD JUMPI PUSH2 0x4AC PUSH2 0x259 JUMP JUMPDEST JUMPDEST PUSH2 0x4B9 DUP5 DUP3 DUP6 ADD PUSH2 0x44E JUMP JUMPDEST SWAP2 POP POP SWAP3 SWAP2 POP POP JUMP JUMPDEST PUSH0 PUSH20 0xFFFFFFFFFFFFFFFFFFFFFFFFFFFFFFFFFFFFFFFF DUP3 AND SWAP1 POP SWAP2 SWAP1 POP JUMP JUMPDEST PUSH0 PUSH2 0x4EB DUP3 PUSH2 0x4C2 JUMP JUMPDEST SWAP1 POP SWAP2 SWAP1 POP JUMP JUMPDEST PUSH2 0x4FB DUP2 PUSH2 0x4E1 JUMP JUMPDEST DUP3 MSTORE POP POP JUMP JUMPDEST PUSH0 PUSH1 0x20 DUP3 ADD SWAP1 POP PUSH2 0x514 PUSH0 DUP4 ADD DUP5 PUSH2 0x4F2 JUMP JUMPDEST SWAP3 SWAP2 POP POP JUMP JUMPDEST PUSH32 0x4E487B7100000000000000000000000000000000000000000000000000000000 PUSH0 MSTORE PUSH1 0x32 PUSH1 0x4 MSTORE PUSH1 0x24 PUSH0 REVERT JUMPDEST PUSH0 DUP2 MLOAD SWAP1 POP SWAP2 SWAP1 POP JUMP JUMPDEST PUSH32 0x4E487B7100000000000000000000000000000000000000000000000000000000 PUSH0 MSTORE PUSH1 0x22 PUSH1 0x4 MSTORE PUSH1 0x24 PUSH0 REVERT JUMPDEST PUSH0 PUSH1 0x2 DUP3 DIV SWAP1 POP PUSH1 0x1 DUP3 AND DUP1 PUSH2 0x595 JUMPI PUSH1 0x7F DUP3 AND SWAP2 POP JUMPDEST PUSH1 0x20 DUP3 LT DUP2 SUB PUSH2 0x5A8 JUMPI PUSH2 0x5A7 PUSH2 0x551 JUMP JUMPDEST JUMPDEST POP SWAP2 SWAP1 POP JUMP JUMPDEST PUSH0 DUP2 SWAP1 POP DUP2 PUSH0 MSTORE PUSH1 0x20 PUSH0 KECCAK256 SWAP1 POP SWAP2 SWAP1 POP JUMP JUMPDEST PUSH0 PUSH1 0x20 PUSH1 0x1F DUP4 ADD DIV SWAP1 POP SWAP2 SWAP1 POP JUMP JUMPDEST PUSH0 DUP3 DUP3 SHL SWAP1 POP SWAP3 SWAP2 POP POP JUMP JUMPDEST PUSH0 PUSH1 0x8 DUP4 MUL PUSH2 0x60A PUSH32 0xFFFFFFFFFFFFFFFFFFFFFFFFFFFFFFFFFFFFFFFFFFFFFFFFFFFFFFFFFFFFFFFF DUP3 PUSH2 0x5CF JUMP JUMPDEST PUSH2 0x614 DUP7 DUP4 PUSH2 0x5CF JUMP JUMPDEST SWAP6 POP DUP1 NOT DUP5 AND SWAP4 POP DUP1 DUP7 AND DUP5 OR SWAP3 POP POP POP SWAP4 SWAP3 POP POP POP JUMP JUMPDEST PUSH0 DUP2 SWAP1 POP SWAP2 SWAP1 POP JUMP JUMPDEST PUSH0 DUP2 SWAP1 POP SWAP2 SWAP1 POP JUMP JUMPDEST PUSH0 PUSH2 0x658 PUSH2 0x653 PUSH2 0x64E DUP5 PUSH2 0x62C JUMP JUMPDEST PUSH2 0x635 JUMP JUMPDEST PUSH2 0x62C JUMP JUMPDEST SWAP1 POP SWAP2 SWAP1 POP JUMP JUMPDEST PUSH0 DUP2 SWAP1 POP SWAP2 SWAP1 POP JUMP JUMPDEST PUSH2 0x671 DUP4 PUSH2 0x63E JUMP JUMPDEST PUSH2 0x685 PUSH2 0x67D DUP3 PUSH2 0x65F JUMP JUMPDEST DUP5 DUP5 SLOAD PUSH2 0x5DB JUMP JUMPDEST DUP3 SSTORE POP POP POP POP JUMP JUMPDEST PUSH0 PUSH0 SWAP1 POP SWAP1 JUMP JUMPDEST PUSH2 0x69C PUSH2 0x68D JUMP JUMPDEST PUSH2 0x6A7 DUP2 DUP5 DUP5 PUSH2 0x668 JUMP JUMPDEST POP POP POP JUMP JUMPDEST JUMPDEST DUP2 DUP2 LT ISZERO PUSH2 0x6CA JUMPI PUSH2 0x6BF PUSH0 DUP3 PUSH2 0x694 JUMP JUMPDEST PUSH1 0x1 DUP2 ADD SWAP1 POP PUSH2 0x6AD JUMP JUMPDEST POP POP JUMP JUMPDEST PUSH1 0x1F DUP3 GT ISZERO PUSH2 0x70F JUMPI PUSH2 0x6E0 DUP2 PUSH2 0x5AE JUMP JUMPDEST PUSH2 0x6E9 DUP5 PUSH2 0x5C0 JUMP JUMPDEST DUP2 ADD PUSH1 0x20 DUP6 LT ISZERO PUSH2 0x6F8 JUMPI DUP2 SWAP1 POP JUMPDEST PUSH2 0x70C PUSH2 0x704 DUP6 PUSH2 0x5C0 JUMP JUMPDEST DUP4 ADD DUP3 PUSH2 0x6AC JUMP JUMPDEST POP POP JUMPDEST POP POP POP JUMP JUMPDEST PUSH0 DUP3 DUP3 SHR SWAP1 POP SWAP3 SWAP2 POP POP JUMP JUMPDEST PUSH0 PUSH2 0x72F PUSH0 NOT DUP5 PUSH1 0x8 MUL PUSH2 0x714 JUMP JUMPDEST NOT DUP1 DUP4 AND SWAP2 POP POP SWAP3 SWAP2 POP POP JUMP JUMPDEST PUSH0 PUSH2 0x747 DUP4 DUP4 PUSH2 0x720 JUMP JUMPDEST SWAP2 POP DUP3 PUSH1 0x2 MUL DUP3 OR SWAP1 POP SWAP3 SWAP2 POP POP JUMP JUMPDEST PUSH2 0x760 DUP3 PUSH2 0x547 JUMP JUMPDEST PUSH8 0xFFFFFFFFFFFFFFFF DUP2 GT ISZERO PUSH2 0x779 JUMPI PUSH2 0x778 PUSH2 0x271 JUMP JUMPDEST JUMPDEST PUSH2 0x783 DUP3 SLOAD PUSH2 0x57E JUMP JUMPDEST PUSH2 0x78E DUP3 DUP3 DUP6 PUSH2 0x6CE JUMP JUMPDEST PUSH0 PUSH1 0x20 SWAP1 POP PUSH1 0x1F DUP4 GT PUSH1 0x1 DUP2 EQ PUSH2 0x7BF JUMPI PUSH0 DUP5 ISZERO PUSH2 0x7AD JUMPI DUP3 DUP8 ADD MLOAD SWAP1 POP JUMPDEST PUSH2 0x7B7 DUP6 DUP3 PUSH2 0x73C JUMP JUMPDEST DUP7 SSTORE POP PUSH2 0x81E JUMP JUMPDEST PUSH1 0x1F NOT DUP5 AND PUSH2 0x7CD DUP7 PUSH2 0x5AE JUMP JUMPDEST PUSH0 JUMPDEST DUP3 DUP2 LT ISZERO PUSH2 0x7F4 JUMPI DUP5 DUP10 ADD MLOAD DUP3 SSTORE PUSH1 0x1 DUP3 ADD SWAP2 POP PUSH1 0x20 DUP6 ADD SWAP5 POP PUSH1 0x20 DUP2 ADD SWAP1 POP PUSH2 0x7CF JUMP JUMPDEST DUP7 DUP4 LT ISZERO PUSH2 0x811 JUMPI DUP5 DUP10 ADD MLOAD PUSH2 0x80D PUSH1 0x1F DUP10 AND DUP3 PUSH2 0x720 JUMP JUMPDEST DUP4 SSTORE POP JUMPDEST PUSH1 0x1 PUSH1 0x2 DUP9 MUL ADD DUP9 SSTORE POP POP POP JUMPDEST POP POP POP POP POP POP JUMP JUMPDEST PUSH2 0x178F DUP1 PUSH2 0x833 PUSH0 CODECOPY PUSH0 RETURN INVALID PUSH1 0x80 PUSH1 0x40 MSTORE CALLVALUE DUP1 ISZERO PUSH2 0xF JUMPI PUSH0 PUSH0 REVERT JUMPDEST POP PUSH1 0x4 CALLDATASIZE LT PUSH2 0xCD JUMPI PUSH0 CALLDATALOAD PUSH1 0xE0 SHR DUP1 PUSH4 0x715018A6 GT PUSH2 0x8A JUMPI DUP1 PUSH4 0xA3EC138D GT PUSH2 0x64 JUMPI DUP1 PUSH4 0xA3EC138D EQ PUSH2 0x1D8 JUMPI DUP1 PUSH4 0xA999E562 EQ PUSH2 0x208 JUMPI DUP1 PUSH4 0xEFB98BCF EQ PUSH2 0x224 JUMPI DUP1 PUSH4 0xF2FDE38B EQ PUSH2 0x242 JUMPI PUSH2 0xCD JUMP JUMPDEST DUP1 PUSH4 0x715018A6 EQ PUSH2 0x192 JUMPI DUP1 PUSH4 0x85A38635 EQ PUSH2 0x19C JUMPI DUP1 PUSH4 0x8DA5CB5B EQ PUSH2 0x1BA JUMPI PUSH2 0xCD JUMP JUMPDEST DUP1 PUSH4 0x121B93F EQ PUSH2 0xD1 JUMPI DUP1 PUSH4 0x6A49FCE EQ PUSH2 0xED JUMPI DUP1 PUSH4 0x9E9D7E2 EQ PUSH2 0x10B JUMPI DUP1 PUSH4 0x101158AF EQ PUSH2 0x127 JUMPI DUP1 PUSH4 0x3477EE2E EQ PUSH2 0x145 JUMPI DUP1 PUSH4 0x3D2F5BDA EQ PUSH2 0x176 JUMPI JUMPDEST PUSH0 PUSH0 REVERT JUMPDEST PUSH2 0xEB PUSH1 0x4 DUP1 CALLDATASIZE SUB DUP2 ADD SWAP1 PUSH2 0xE6 SWAP2 SWAP1 PUSH2 0xAEC JUMP JUMPDEST PUSH2 0x25E JUMP JUMPDEST STOP JUMPDEST PUSH2 0xF5 PUSH2 0x412 JUMP JUMPDEST PUSH1 0x40 MLOAD PUSH2 0x102 SWAP2 SWAP1 PUSH2 0xC8B JUMP JUMPDEST PUSH1 0x40 MLOAD DUP1 SWAP2 SUB SWAP1 RETURN JUMPDEST PUSH2 0x125 PUSH1 0x4 DUP1 CALLDATASIZE SUB DUP2 ADD SWAP1 PUSH2 0x120 SWAP2 SWAP1 PUSH2 0xAEC JUMP JUMPDEST PUSH2 0x507 JUMP JUMPDEST STOP JUMPDEST PUSH2 0x12F PUSH2 0x62D JUMP JUMPDEST PUSH1 0x40 MLOAD PUSH2 0x13C SWAP2 SWAP1 PUSH2 0xCBA JUMP JUMPDEST PUSH1 0x40 MLOAD DUP1 SWAP2 SUB SWAP1 RETURN JUMPDEST PUSH2 0x15F PUSH1 0x4 DUP1 CALLDATASIZE SUB DUP2 ADD SWAP1 PUSH2 0x15A SWAP2 SWAP1 PUSH2 0xAEC JUMP JUMPDEST PUSH2 0x633 JUMP JUMPDEST PUSH1 0x40 MLOAD PUSH2 0x16D SWAP3 SWAP2 SWAP1 PUSH2 0xD1B JUMP JUMPDEST PUSH1 0x40 MLOAD DUP1 SWAP2 SUB SWAP1 RETURN JUMPDEST PUSH2 0x190 PUSH1 0x4 DUP1 CALLDATASIZE SUB DUP2 ADD SWAP1 PUSH2 0x18B SWAP2 SWAP1 PUSH2 0xAEC JUMP JUMPDEST PUSH2 0x6E8 JUMP JUMPDEST STOP JUMPDEST PUSH2 0x19A PUSH2 0x718 JUMP JUMPDEST STOP JUMPDEST PUSH2 0x1A4 PUSH2 0x72B JUMP JUMPDEST PUSH1 0x40 MLOAD PUSH2 0x1B1 SWAP2 SWAP1 PUSH2 0xCBA JUMP JUMPDEST PUSH1 0x40 MLOAD DUP1 SWAP2 SUB SWAP1 RETURN JUMPDEST PUSH2 0x1C2 PUSH2 0x731 JUMP JUMPDEST PUSH1 0x40 MLOAD PUSH2 0x1CF SWAP2 SWAP1 PUSH2 0xD88 JUMP JUMPDEST PUSH1 0x40 MLOAD DUP1 SWAP2 SUB SWAP1 RETURN JUMPDEST PUSH2 0x1F2 PUSH1 0x4 DUP1 CALLDATASIZE SUB DUP2 ADD SWAP1 PUSH2 0x1ED SWAP2 SWAP1 PUSH2 0xDCB JUMP JUMPDEST PUSH2 0x758 JUMP JUMPDEST PUSH1 0x40 MLOAD PUSH2 0x1FF SWAP2 SWAP1 PUSH2 0xE10 JUMP JUMPDEST PUSH1 0x40 MLOAD DUP1 SWAP2 SUB SWAP1 RETURN JUMPDEST PUSH2 0x222 PUSH1 0x4 DUP1 CALLDATASIZE SUB DUP2 ADD SWAP1 PUSH2 0x21D SWAP2 SWAP1 PUSH2 0x1037 JUMP JUMPDEST PUSH2 0x775 JUMP JUMPDEST STOP JUMPDEST PUSH2 0x22C PUSH2 0x857 JUMP JUMPDEST PUSH1 0x40 MLOAD PUSH2 0x239 SWAP2 SWAP1 PUSH2 0xCBA JUMP JUMPDEST PUSH1 0x40 MLOAD DUP1 SWAP2 SUB SWAP1 RETURN JUMPDEST PUSH2 0x25C PUSH1 0x4 DUP1 CALLDATASIZE SUB DUP2 ADD SWAP1 PUSH2 0x257 SWAP2 SWAP1 PUSH2 0xDCB JUMP JUMPDEST PUSH2 0x87D JUMP JUMPDEST STOP JUMPDEST PUSH1 0x4 SLOAD TIMESTAMP LT ISZERO DUP1 ISZERO PUSH2 0x272 JUMPI POP PUSH1 0x5 SLOAD TIMESTAMP GT ISZERO JUMPDEST PUSH2 0x2B1 JUMPI PUSH1 0x40 MLOAD PUSH32 0x8C379A000000000000000000000000000000000000000000000000000000000 DUP2 MSTORE PUSH1 0x4 ADD PUSH2 0x2A8 SWAP1 PUSH2 0x10C8 JUMP JUMPDEST PUSH1 0x40 MLOAD DUP1 SWAP2 SUB SWAP1 REVERT JUMPDEST PUSH1 0x3 PUSH0 CALLER PUSH20 0xFFFFFFFFFFFFFFFFFFFFFFFFFFFFFFFFFFFFFFFF AND PUSH20 0xFFFFFFFFFFFFFFFFFFFFFFFFFFFFFFFFFFFFFFFF AND DUP2 MSTORE PUSH1 0x20 ADD SWAP1 DUP2 MSTORE PUSH1 0x20 ADD PUSH0 KECCAK256 PUSH0 SWAP1 SLOAD SWAP1 PUSH2 0x100 EXP SWAP1 DIV PUSH1 0xFF AND ISZERO PUSH2 0x33B JUMPI PUSH1 0x40 MLOAD PUSH32 0x8C379A000000000000000000000000000000000000000000000000000000000 DUP2 MSTORE PUSH1 0x4 ADD PUSH2 0x332 SWAP1 PUSH2 0x1130 JUMP JUMPDEST PUSH1 0x40 MLOAD DUP1 SWAP2 SUB SWAP1 REVERT JUMPDEST PUSH1 0x1 DUP1 SLOAD SWAP1 POP DUP2 LT PUSH2 0x382 JUMPI PUSH1 0x40 MLOAD PUSH32 0x8C379A000000000000000000000000000000000000000000000000000000000 DUP2 MSTORE PUSH1 0x4 ADD PUSH2 0x379 SWAP1 PUSH2 0x1198 JUMP JUMPDEST PUSH1 0x40 MLOAD DUP1 SWAP2 SUB SWAP1 REVERT JUMPDEST PUSH1 0x1 DUP2 DUP2 SLOAD DUP2 LT PUSH2 0x396 JUMPI PUSH2 0x395 PUSH2 0x11B6 JUMP JUMPDEST JUMPDEST SWAP1 PUSH0 MSTORE PUSH1 0x20 PUSH0 KECCAK256 SWAP1 PUSH1 0x2 MUL ADD PUSH1 0x1 ADD PUSH0 DUP2 SLOAD DUP1 SWAP3 SWAP2 SWAP1 PUSH2 0x3B5 SWAP1 PUSH2 0x1210 JUMP JUMPDEST SWAP2 SWAP1 POP SSTORE POP PUSH1 0x1 PUSH1 0x3 PUSH0 CALLER PUSH20 0xFFFFFFFFFFFFFFFFFFFFFFFFFFFFFFFFFFFFFFFF AND PUSH20 0xFFFFFFFFFFFFFFFFFFFFFFFFFFFFFFFFFFFFFFFF AND DUP2 MSTORE PUSH1 0x20 ADD SWAP1 DUP2 MSTORE PUSH1 0x20 ADD PUSH0 KECCAK256 PUSH0 PUSH2 0x100 EXP DUP2 SLOAD DUP2 PUSH1 0xFF MUL NOT AND SWAP1 DUP4 ISZERO ISZERO MUL OR SWAP1 SSTORE POP POP JUMP JUMPDEST PUSH1 0x60 PUSH1 0x1 DUP1 SLOAD DUP1 PUSH1 0x20 MUL PUSH1 0x20 ADD PUSH1 0x40 MLOAD SWAP1 DUP2 ADD PUSH1 0x40 MSTORE DUP1 SWAP3 SWAP2 SWAP1 DUP2 DUP2 MSTORE PUSH1 0x20 ADD PUSH0 SWAP1 JUMPDEST DUP3 DUP3 LT ISZERO PUSH2 0x4FE JUMPI DUP4 DUP3 SWAP1 PUSH0 MSTORE PUSH1 0x20 PUSH0 KECCAK256 SWAP1 PUSH1 0x2 MUL ADD PUSH1 0x40 MLOAD DUP1 PUSH1 0x40 ADD PUSH1 0x40 MSTORE SWAP1 DUP2 PUSH0 DUP3 ADD DUP1 SLOAD PUSH2 0x465 SWAP1 PUSH2 0x1284 JUMP JUMPDEST DUP1 PUSH1 0x1F ADD PUSH1 0x20 DUP1 SWAP2 DIV MUL PUSH1 0x20 ADD PUSH1 0x40 MLOAD SWAP1 DUP2 ADD PUSH1 0x40 MSTORE DUP1 SWAP3 SWAP2 SWAP1 DUP2 DUP2 MSTORE PUSH1 0x20 ADD DUP3 DUP1 SLOAD PUSH2 0x491 SWAP1 PUSH2 0x1284 JUMP JUMPDEST DUP1 ISZERO PUSH2 0x4DC JUMPI DUP1 PUSH1 0x1F LT PUSH2 0x4B3 JUMPI PUSH2 0x100 DUP1 DUP4 SLOAD DIV MUL DUP4 MSTORE SWAP2 PUSH1 0x20 ADD SWAP2 PUSH2 0x4DC JUMP JUMPDEST DUP3 ADD SWAP2 SWAP1 PUSH0 MSTORE PUSH1 0x20 PUSH0 KECCAK256 SWAP1 JUMPDEST DUP2 SLOAD DUP2 MSTORE SWAP1 PUSH1 0x1 ADD SWAP1 PUSH1 0x20 ADD DUP1 DUP4 GT PUSH2 0x4BF JUMPI DUP3 SWAP1 SUB PUSH1 0x1F AND DUP3 ADD SWAP2 JUMPDEST POP POP POP POP POP DUP2 MSTORE PUSH1 0x20 ADD PUSH1 0x1 DUP3 ADD SLOAD DUP2 MSTORE POP POP DUP2 MSTORE PUSH1 0x20 ADD SWAP1 PUSH1 0x1 ADD SWAP1 PUSH2 0x435 JUMP JUMPDEST POP POP POP POP SWAP1 POP SWAP1 JUMP JUMPDEST PUSH2 0x50F PUSH2 0x901 JUMP JUMPDEST PUSH1 0x1 DUP1 SLOAD SWAP1 POP DUP2 LT PUSH2 0x556 JUMPI PUSH1 0x40 MLOAD PUSH32 0x8C379A000000000000000000000000000000000000000000000000000000000 DUP2 MSTORE PUSH1 0x4 ADD PUSH2 0x54D SWAP1 PUSH2 0x1198 JUMP JUMPDEST PUSH1 0x40 MLOAD DUP1 SWAP2 SUB SWAP1 REVERT JUMPDEST PUSH0 DUP2 SWAP1 POP JUMPDEST PUSH1 0x1 DUP1 DUP1 SLOAD SWAP1 POP PUSH2 0x56C SWAP2 SWAP1 PUSH2 0x12B4 JUMP JUMPDEST DUP2 LT ISZERO PUSH2 0x5EB JUMPI PUSH1 0x1 DUP1 DUP3 PUSH2 0x581 SWAP2 SWAP1 PUSH2 0x12E7 JUMP JUMPDEST DUP2 SLOAD DUP2 LT PUSH2 0x592 JUMPI PUSH2 0x591 PUSH2 0x11B6 JUMP JUMPDEST JUMPDEST SWAP1 PUSH0 MSTORE PUSH1 0x20 PUSH0 KECCAK256 SWAP1 PUSH1 0x2 MUL ADD PUSH1 0x1 DUP3 DUP2 SLOAD DUP2 LT PUSH2 0x5B2 JUMPI PUSH2 0x5B1 PUSH2 0x11B6 JUMP JUMPDEST JUMPDEST SWAP1 PUSH0 MSTORE PUSH1 0x20 PUSH0 KECCAK256 SWAP1 PUSH1 0x2 MUL ADD PUSH0 DUP3 ADD DUP2 PUSH0 ADD SWAP1 DUP2 PUSH2 0x5D0 SWAP2 SWAP1 PUSH2 0x14CF JUMP JUMPDEST POP PUSH1 0x1 DUP3 ADD SLOAD DUP2 PUSH1 0x1 ADD SSTORE SWAP1 POP POP DUP1 DUP1 PUSH1 0x1 ADD SWAP2 POP POP PUSH2 0x55B JUMP JUMPDEST POP PUSH1 0x1 DUP1 SLOAD DUP1 PUSH2 0x5FE JUMPI PUSH2 0x5FD PUSH2 0x15B4 JUMP JUMPDEST JUMPDEST PUSH1 0x1 SWAP1 SUB DUP2 DUP2 SWAP1 PUSH0 MSTORE PUSH1 0x20 PUSH0 KECCAK256 SWAP1 PUSH1 0x2 MUL ADD PUSH0 PUSH0 DUP3 ADD PUSH0 PUSH2 0x61F SWAP2 SWAP1 PUSH2 0xA50 JUMP JUMPDEST PUSH1 0x1 DUP3 ADD PUSH0 SWAP1 SSTORE POP POP SWAP1 SSTORE POP JUMP JUMPDEST PUSH1 0x4 SLOAD DUP2 JUMP JUMPDEST PUSH1 0x1 DUP2 DUP2 SLOAD DUP2 LT PUSH2 0x642 JUMPI PUSH0 DUP1 REVERT JUMPDEST SWAP1 PUSH0 MSTORE PUSH1 0x20 PUSH0 KECCAK256 SWAP1 PUSH1 0x2 MUL ADD PUSH0 SWAP2 POP SWAP1 POP DUP1 PUSH0 ADD DUP1 SLOAD PUSH2 0x661 SWAP1 PUSH2 0x1284 JUMP JUMPDEST DUP1 PUSH1 0x1F ADD PUSH1 0x20 DUP1 SWAP2 DIV MUL PUSH1 0x20 ADD PUSH1 0x40 MLOAD SWAP1 DUP2 ADD PUSH1 0x40 MSTORE DUP1 SWAP3 SWAP2 SWAP1 DUP2 DUP2 MSTORE PUSH1 0x20 ADD DUP3 DUP1 SLOAD PUSH2 0x68D SWAP1 PUSH2 0x1284 JUMP JUMPDEST DUP1 ISZERO PUSH2 0x6D8 JUMPI DUP1 PUSH1 0x1F LT PUSH2 0x6AF JUMPI PUSH2 0x100 DUP1 DUP4 SLOAD DIV MUL DUP4 MSTORE SWAP2 PUSH1 0x20 ADD SWAP2 PUSH2 0x6D8 JUMP JUMPDEST DUP3 ADD SWAP2 SWAP1 PUSH0 MSTORE PUSH1 0x20 PUSH0 KECCAK256 SWAP1 JUMPDEST DUP2 SLOAD DUP2 MSTORE SWAP1 PUSH1 0x1 ADD SWAP1 PUSH1 0x20 ADD DUP1 DUP4 GT PUSH2 0x6BB JUMPI DUP3 SWAP1 SUB PUSH1 0x1F AND DUP3 ADD SWAP2 JUMPDEST POP POP POP POP POP SWAP1 DUP1 PUSH1 0x1 ADD SLOAD SWAP1 POP DUP3 JUMP JUMPDEST PUSH2 0x6F0 PUSH2 0x901 JUMP JUMPDEST TIMESTAMP PUSH1 0x4 DUP2 SWAP1 SSTORE POP PUSH1 0x3C DUP2 PUSH2 0x704 SWAP2 SWAP1 PUSH2 0x15E1 JUMP JUMPDEST TIMESTAMP PUSH2 0x70F SWAP2 SWAP1 PUSH2 0x12E7 JUMP JUMPDEST PUSH1 0x5 DUP2 SWAP1 SSTORE POP POP JUMP JUMPDEST PUSH2 0x720 PUSH2 0x901 JUMP JUMPDEST PUSH2 0x729 PUSH0 PUSH2 0x988 JUMP JUMPDEST JUMP JUMPDEST PUSH1 0x5 SLOAD DUP2 JUMP JUMPDEST PUSH0 PUSH0 PUSH0 SWAP1 SLOAD SWAP1 PUSH2 0x100 EXP SWAP1 DIV PUSH20 0xFFFFFFFFFFFFFFFFFFFFFFFFFFFFFFFFFFFFFFFF AND SWAP1 POP SWAP1 JUMP JUMPDEST PUSH1 0x3 PUSH1 0x20 MSTORE DUP1 PUSH0 MSTORE PUSH1 0x40 PUSH0 KECCAK256 PUSH0 SWAP2 POP SLOAD SWAP1 PUSH2 0x100 EXP SWAP1 DIV PUSH1 0xFF AND DUP2 JUMP JUMPDEST PUSH2 0x77D PUSH2 0x901 JUMP JUMPDEST PUSH0 PUSH1 0x5 SLOAD EQ PUSH2 0x7C1 JUMPI PUSH1 0x40 MLOAD PUSH32 0x8C379A000000000000000000000000000000000000000000000000000000000 DUP2 MSTORE PUSH1 0x4 ADD PUSH2 0x7B8 SWAP1 PUSH2 0x166C JUMP JUMPDEST PUSH1 0x40 MLOAD DUP1 SWAP2 SUB SWAP1 REVERT JUMPDEST PUSH0 PUSH0 SWAP1 POP JUMPDEST DUP2 MLOAD DUP2 LT ISZERO PUSH2 0x853 JUMPI PUSH1 0x1 PUSH1 0x40 MLOAD DUP1 PUSH1 0x40 ADD PUSH1 0x40 MSTORE DUP1 DUP5 DUP5 DUP2 MLOAD DUP2 LT PUSH2 0x7EF JUMPI PUSH2 0x7EE PUSH2 0x11B6 JUMP JUMPDEST JUMPDEST PUSH1 0x20 MUL PUSH1 0x20 ADD ADD MLOAD DUP2 MSTORE PUSH1 0x20 ADD PUSH0 DUP2 MSTORE POP SWAP1 DUP1 PUSH1 0x1 DUP2 SLOAD ADD DUP1 DUP3 SSTORE DUP1 SWAP2 POP POP PUSH1 0x1 SWAP1 SUB SWAP1 PUSH0 MSTORE PUSH1 0x20 PUSH0 KECCAK256 SWAP1 PUSH1 0x2 MUL ADD PUSH0 SWAP1 SWAP2 SWAP1 SWAP2 SWAP1 SWAP2 POP PUSH0 DUP3 ADD MLOAD DUP2 PUSH0 ADD SWAP1 DUP2 PUSH2 0x839 SWAP2 SWAP1 PUSH2 0x168A JUMP JUMPDEST POP PUSH1 0x20 DUP3 ADD MLOAD DUP2 PUSH1 0x1 ADD SSTORE POP POP DUP1 DUP1 PUSH1 0x1 ADD SWAP2 POP POP PUSH2 0x7C6 JUMP JUMPDEST POP POP JUMP JUMPDEST PUSH0 PUSH1 0x5 SLOAD TIMESTAMP LT PUSH2 0x869 JUMPI PUSH0 SWAP1 POP PUSH2 0x87A JUMP JUMPDEST TIMESTAMP PUSH1 0x5 SLOAD PUSH2 0x877 SWAP2 SWAP1 PUSH2 0x12B4 JUMP JUMPDEST SWAP1 POP JUMPDEST SWAP1 JUMP JUMPDEST PUSH2 0x885 PUSH2 0x901 JUMP JUMPDEST PUSH0 PUSH20 0xFFFFFFFFFFFFFFFFFFFFFFFFFFFFFFFFFFFFFFFF AND DUP2 PUSH20 0xFFFFFFFFFFFFFFFFFFFFFFFFFFFFFFFFFFFFFFFF AND SUB PUSH2 0x8F5 JUMPI PUSH0 PUSH1 0x40 MLOAD PUSH32 0x1E4FBDF700000000000000000000000000000000000000000000000000000000 DUP2 MSTORE PUSH1 0x4 ADD PUSH2 0x8EC SWAP2 SWAP1 PUSH2 0xD88 JUMP JUMPDEST PUSH1 0x40 MLOAD DUP1 SWAP2 SUB SWAP1 REVERT JUMPDEST PUSH2 0x8FE DUP2 PUSH2 0x988 JUMP JUMPDEST POP JUMP JUMPDEST PUSH2 0x909 PUSH2 0xA49 JUMP JUMPDEST PUSH20 0xFFFFFFFFFFFFFFFFFFFFFFFFFFFFFFFFFFFFFFFF AND PUSH2 0x927 PUSH2 0x731 JUMP JUMPDEST PUSH20 0xFFFFFFFFFFFFFFFFFFFFFFFFFFFFFFFFFFFFFFFF AND EQ PUSH2 0x986 JUMPI PUSH2 0x94A PUSH2 0xA49 JUMP JUMPDEST PUSH1 0x40 MLOAD PUSH32 0x118CDAA700000000000000000000000000000000000000000000000000000000 DUP2 MSTORE PUSH1 0x4 ADD PUSH2 0x97D SWAP2 SWAP1 PUSH2 0xD88 JUMP JUMPDEST PUSH1 0x40 MLOAD DUP1 SWAP2 SUB SWAP1 REVERT JUMPDEST JUMP JUMPDEST PUSH0 PUSH0 PUSH0 SWAP1 SLOAD SWAP1 PUSH2 0x100 EXP SWAP1 DIV PUSH20 0xFFFFFFFFFFFFFFFFFFFFFFFFFFFFFFFFFFFFFFFF AND SWAP1 POP DUP2 PUSH0 PUSH0 PUSH2 0x100 EXP DUP2 SLOAD DUP2 PUSH20 0xFFFFFFFFFFFFFFFFFFFFFFFFFFFFFFFFFFFFFFFF MUL NOT AND SWAP1 DUP4 PUSH20 0xFFFFFFFFFFFFFFFFFFFFFFFFFFFFFFFFFFFFFFFF AND MUL OR SWAP1 SSTORE POP DUP2 PUSH20 0xFFFFFFFFFFFFFFFFFFFFFFFFFFFFFFFFFFFFFFFF AND DUP2 PUSH20 0xFFFFFFFFFFFFFFFFFFFFFFFFFFFFFFFFFFFFFFFF AND PUSH32 0x8BE0079C531659141344CD1FD0A4F28419497F9722A3DAAFE3B4186F6B6457E0 PUSH1 0x40 MLOAD PUSH1 0x40 MLOAD DUP1 SWAP2 SUB SWAP1 LOG3 POP POP JUMP JUMPDEST PUSH0 CALLER SWAP1 POP SWAP1 JUMP JUMPDEST POP DUP1 SLOAD PUSH2 0xA5C SWAP1 PUSH2 0x1284 JUMP JUMPDEST PUSH0 DUP3 SSTORE DUP1 PUSH1 0x1F LT PUSH2 0xA6D JUMPI POP PUSH2 0xA8A JUMP JUMPDEST PUSH1 0x1F ADD PUSH1 0x20 SWAP1 DIV SWAP1 PUSH0 MSTORE PUSH1 0x20 PUSH0 KECCAK256 SWAP1 DUP2 ADD SWAP1 PUSH2 0xA89 SWAP2 SWAP1 PUSH2 0xA8D JUMP JUMPDEST JUMPDEST POP JUMP JUMPDEST JUMPDEST DUP1 DUP3 GT ISZERO PUSH2 0xAA4 JUMPI PUSH0 DUP2 PUSH0 SWAP1 SSTORE POP PUSH1 0x1 ADD PUSH2 0xA8E JUMP JUMPDEST POP SWAP1 JUMP JUMPDEST PUSH0 PUSH1 0x40 MLOAD SWAP1 POP SWAP1 JUMP JUMPDEST PUSH0 PUSH0 REVERT JUMPDEST PUSH0 PUSH0 REVERT JUMPDEST PUSH0 DUP2 SWAP1 POP SWAP2 SWAP1 POP JUMP JUMPDEST PUSH2 0xACB DUP2 PUSH2 0xAB9 JUMP JUMPDEST DUP2 EQ PUSH2 0xAD5 JUMPI PUSH0 PUSH0 REVERT JUMPDEST POP JUMP JUMPDEST PUSH0 DUP2 CALLDATALOAD SWAP1 POP PUSH2 0xAE6 DUP2 PUSH2 0xAC2 JUMP JUMPDEST SWAP3 SWAP2 POP POP JUMP JUMPDEST PUSH0 PUSH1 0x20 DUP3 DUP5 SUB SLT ISZERO PUSH2 0xB01 JUMPI PUSH2 0xB00 PUSH2 0xAB1 JUMP JUMPDEST JUMPDEST PUSH0 PUSH2 0xB0E DUP5 DUP3 DUP6 ADD PUSH2 0xAD8 JUMP JUMPDEST SWAP2 POP POP SWAP3 SWAP2 POP POP JUMP JUMPDEST PUSH0 DUP2 MLOAD SWAP1 POP SWAP2 SWAP1 POP JUMP JUMPDEST PUSH0 DUP3 DUP3 MSTORE PUSH1 0x20 DUP3 ADD SWAP1 POP SWAP3 SWAP2 POP POP JUMP JUMPDEST PUSH0 DUP2 SWAP1 POP PUSH1 0x20 DUP3 ADD SWAP1 POP SWAP2 SWAP1 POP JUMP JUMPDEST PUSH0 DUP2 MLOAD SWAP1 POP SWAP2 SWAP1 POP JUMP JUMPDEST PUSH0 DUP3 DUP3 MSTORE PUSH1 0x20 DUP3 ADD SWAP1 POP SWAP3 SWAP2 POP POP JUMP JUMPDEST DUP3 DUP2 DUP4 MCOPY PUSH0 DUP4 DUP4 ADD MSTORE POP POP POP JUMP JUMPDEST PUSH0 PUSH1 0x1F NOT PUSH1 0x1F DUP4 ADD AND SWAP1 POP SWAP2 SWAP1 POP JUMP JUMPDEST PUSH0 PUSH2 0xB82 DUP3 PUSH2 0xB40 JUMP JUMPDEST PUSH2 0xB8C DUP2 DUP6 PUSH2 0xB4A JUMP JUMPDEST SWAP4 POP PUSH2 0xB9C DUP2 DUP6 PUSH1 0x20 DUP7 ADD PUSH2 0xB5A JUMP JUMPDEST PUSH2 0xBA5 DUP2 PUSH2 0xB68 JUMP JUMPDEST DUP5 ADD SWAP2 POP POP SWAP3 SWAP2 POP POP JUMP JUMPDEST PUSH2 0xBB9 DUP2 PUSH2 0xAB9 JUMP JUMPDEST DUP3 MSTORE POP POP JUMP JUMPDEST PUSH0 PUSH1 0x40 DUP4 ADD PUSH0 DUP4 ADD MLOAD DUP5 DUP3 SUB PUSH0 DUP7 ADD MSTORE PUSH2 0xBD9 DUP3 DUP3 PUSH2 0xB78 JUMP JUMPDEST SWAP2 POP POP PUSH1 0x20 DUP4 ADD MLOAD PUSH2 0xBEE PUSH1 0x20 DUP7 ADD DUP3 PUSH2 0xBB0 JUMP JUMPDEST POP DUP1 SWAP2 POP POP SWAP3 SWAP2 POP POP JUMP JUMPDEST PUSH0 PUSH2 0xC04 DUP4 DUP4 PUSH2 0xBBF JUMP JUMPDEST SWAP1 POP SWAP3 SWAP2 POP POP JUMP JUMPDEST PUSH0 PUSH1 0x20 DUP3 ADD SWAP1 POP SWAP2 SWAP1 POP JUMP JUMPDEST PUSH0 PUSH2 0xC22 DUP3 PUSH2 0xB17 JUMP JUMPDEST PUSH2 0xC2C DUP2 DUP6 PUSH2 0xB21 JUMP JUMPDEST SWAP4 POP DUP4 PUSH1 0x20 DUP3 MUL DUP6 ADD PUSH2 0xC3E DUP6 PUSH2 0xB31 JUMP JUMPDEST DUP1 PUSH0 JUMPDEST DUP6 DUP2 LT ISZERO PUSH2 0xC79 JUMPI DUP5 DUP5 SUB DUP10 MSTORE DUP2 MLOAD PUSH2 0xC5A DUP6 DUP3 PUSH2 0xBF9 JUMP JUMPDEST SWAP5 POP PUSH2 0xC65 DUP4 PUSH2 0xC0C JUMP JUMPDEST SWAP3 POP PUSH1 0x20 DUP11 ADD SWAP10 POP POP PUSH1 0x1 DUP2 ADD SWAP1 POP PUSH2 0xC41 JUMP JUMPDEST POP DUP3 SWAP8 POP DUP8 SWAP6 POP POP POP POP POP POP SWAP3 SWAP2 POP POP JUMP JUMPDEST PUSH0 PUSH1 0x20 DUP3 ADD SWAP1 POP DUP2 DUP2 SUB PUSH0 DUP4 ADD MSTORE PUSH2 0xCA3 DUP2 DUP5 PUSH2 0xC18 JUMP JUMPDEST SWAP1 POP SWAP3 SWAP2 POP POP JUMP JUMPDEST PUSH2 0xCB4 DUP2 PUSH2 0xAB9 JUMP JUMPDEST DUP3 MSTORE POP POP JUMP JUMPDEST PUSH0 PUSH1 0x20 DUP3 ADD SWAP1 POP PUSH2 0xCCD PUSH0 DUP4 ADD DUP5 PUSH2 0xCAB JUMP JUMPDEST SWAP3 SWAP2 POP POP JUMP JUMPDEST PUSH0 DUP3 DUP3 MSTORE PUSH1 0x20 DUP3 ADD SWAP1 POP SWAP3 SWAP2 POP POP JUMP JUMPDEST PUSH0 PUSH2 0xCED DUP3 PUSH2 0xB40 JUMP JUMPDEST PUSH2 0xCF7 DUP2 DUP6 PUSH2 0xCD3 JUMP JUMPDEST SWAP4 POP PUSH2 0xD07 DUP2 DUP6 PUSH1 0x20 DUP7 ADD PUSH2 0xB5A JUMP JUMPDEST PUSH2 0xD10 DUP2 PUSH2 0xB68 JUMP JUMPDEST DUP5 ADD SWAP2 POP POP SWAP3 SWAP2 POP POP JUMP JUMPDEST PUSH0 PUSH1 0x40 DUP3 ADD SWAP1 POP DUP2 DUP2 SUB PUSH0 DUP4 ADD MSTORE PUSH2 0xD33 DUP2 DUP6 PUSH2 0xCE3 JUMP JUMPDEST SWAP1 POP PUSH2 0xD42 PUSH1 0x20 DUP4 ADD DUP5 PUSH2 0xCAB JUMP JUMPDEST SWAP4 SWAP3 POP POP POP JUMP JUMPDEST PUSH0 PUSH20 0xFFFFFFFFFFFFFFFFFFFFFFFFFFFFFFFFFFFFFFFF DUP3 AND SWAP1 POP SWAP2 SWAP1 POP JUMP JUMPDEST PUSH0 PUSH2 0xD72 DUP3 PUSH2 0xD49 JUMP JUMPDEST SWAP1 POP SWAP2 SWAP1 POP JUMP JUMPDEST PUSH2 0xD82 DUP2 PUSH2 0xD68 JUMP JUMPDEST DUP3 MSTORE POP POP JUMP JUMPDEST PUSH0 PUSH1 0x20 DUP3 ADD SWAP1 POP PUSH2 0xD9B PUSH0 DUP4 ADD DUP5 PUSH2 0xD79 JUMP JUMPDEST SWAP3 SWAP2 POP POP JUMP JUMPDEST PUSH2 0xDAA DUP2 PUSH2 0xD68 JUMP JUMPDEST DUP2 EQ PUSH2 0xDB4 JUMPI PUSH0 PUSH0 REVERT JUMPDEST POP JUMP JUMPDEST PUSH0 DUP2 CALLDATALOAD SWAP1 POP PUSH2 0xDC5 DUP2 PUSH2 0xDA1 JUMP JUMPDEST SWAP3 SWAP2 POP POP JUMP JUMPDEST PUSH0 PUSH1 0x20 DUP3 DUP5 SUB SLT ISZERO PUSH2 0xDE0 JUMPI PUSH2 0xDDF PUSH2 0xAB1 JUMP JUMPDEST JUMPDEST PUSH0 PUSH2 0xDED DUP5 DUP3 DUP6 ADD PUSH2 0xDB7 JUMP JUMPDEST SWAP2 POP POP SWAP3 SWAP2 POP POP JUMP JUMPDEST PUSH0 DUP2 ISZERO ISZERO SWAP1 POP SWAP2 SWAP1 POP JUMP JUMPDEST PUSH2 0xE0A DUP2 PUSH2 0xDF6 JUMP JUMPDEST DUP3 MSTORE POP POP JUMP JUMPDEST PUSH0 PUSH1 0x20 DUP3 ADD SWAP1 POP PUSH2 0xE23 PUSH0 DUP4 ADD DUP5 PUSH2 0xE01 JUMP JUMPDEST SWAP3 SWAP2 POP POP JUMP JUMPDEST PUSH0 PUSH0 REVERT JUMPDEST PUSH32 0x4E487B7100000000000000000000000000000000000000000000000000000000 PUSH0 MSTORE PUSH1 0x41 PUSH1 0x4 MSTORE PUSH1 0x24 PUSH0 REVERT JUMPDEST PUSH2 0xE63 DUP3 PUSH2 0xB68 JUMP JUMPDEST DUP2 ADD DUP2 DUP2 LT PUSH8 0xFFFFFFFFFFFFFFFF DUP3 GT OR ISZERO PUSH2 0xE82 JUMPI PUSH2 0xE81 PUSH2 0xE2D JUMP JUMPDEST JUMPDEST DUP1 PUSH1 0x40 MSTORE POP POP POP JUMP JUMPDEST PUSH0 PUSH2 0xE94 PUSH2 0xAA8 JUMP JUMPDEST SWAP1 POP PUSH2 0xEA0 DUP3 DUP3 PUSH2 0xE5A JUMP JUMPDEST SWAP2 SWAP1 POP JUMP JUMPDEST PUSH0 PUSH8 0xFFFFFFFFFFFFFFFF DUP3 GT ISZERO PUSH2 0xEBF JUMPI PUSH2 0xEBE PUSH2 0xE2D JUMP JUMPDEST JUMPDEST PUSH1 0x20 DUP3 MUL SWAP1 POP PUSH1 0x20 DUP2 ADD SWAP1 POP SWAP2 SWAP1 POP JUMP JUMPDEST PUSH0 PUSH0 REVERT JUMPDEST PUSH0 PUSH0 REVERT JUMPDEST PUSH0 PUSH8 0xFFFFFFFFFFFFFFFF DUP3 GT ISZERO PUSH2 0xEF2 JUMPI PUSH2 0xEF1 PUSH2 0xE2D JUMP JUMPDEST JUMPDEST PUSH2 0xEFB DUP3 PUSH2 0xB68 JUMP JUMPDEST SWAP1 POP PUSH1 0x20 DUP2 ADD SWAP1 POP SWAP2 SWAP1 POP JUMP JUMPDEST DUP3 DUP2 DUP4 CALLDATACOPY PUSH0 DUP4 DUP4 ADD MSTORE POP POP POP JUMP JUMPDEST PUSH0 PUSH2 0xF28 PUSH2 0xF23 DUP5 PUSH2 0xED8 JUMP JUMPDEST PUSH2 0xE8B JUMP JUMPDEST SWAP1 POP DUP3 DUP2 MSTORE PUSH1 0x20 DUP2 ADD DUP5 DUP5 DUP5 ADD GT ISZERO PUSH2 0xF44 JUMPI PUSH2 0xF43 PUSH2 0xED4 JUMP JUMPDEST JUMPDEST PUSH2 0xF4F DUP5 DUP3 DUP6 PUSH2 0xF08 JUMP JUMPDEST POP SWAP4 SWAP3 POP POP POP JUMP JUMPDEST PUSH0 DUP3 PUSH1 0x1F DUP4 ADD SLT PUSH2 0xF6B JUMPI PUSH2 0xF6A PUSH2 0xE29 JUMP JUMPDEST JUMPDEST DUP2 CALLDATALOAD PUSH2 0xF7B DUP5 DUP3 PUSH1 0x20 DUP7 ADD PUSH2 0xF16 JUMP JUMPDEST SWAP2 POP POP SWAP3 SWAP2 POP POP JUMP JUMPDEST PUSH0 PUSH2 0xF96 PUSH2 0xF91 DUP5 PUSH2 0xEA5 JUMP JUMPDEST PUSH2 0xE8B JUMP JUMPDEST SWAP1 POP DUP1 DUP4 DUP3 MSTORE PUSH1 0x20 DUP3 ADD SWAP1 POP PUSH1 0x20 DUP5 MUL DUP4 ADD DUP6 DUP2 GT ISZERO PUSH2 0xFB9 JUMPI PUSH2 0xFB8 PUSH2 0xED0 JUMP JUMPDEST JUMPDEST DUP4 JUMPDEST DUP2 DUP2 LT ISZERO PUSH2 0x1000 JUMPI DUP1 CALLDATALOAD PUSH8 0xFFFFFFFFFFFFFFFF DUP2 GT ISZERO PUSH2 0xFDE JUMPI PUSH2 0xFDD PUSH2 0xE29 JUMP JUMPDEST JUMPDEST DUP1 DUP7 ADD PUSH2 0xFEB DUP10 DUP3 PUSH2 0xF57 JUMP JUMPDEST DUP6 MSTORE PUSH1 0x20 DUP6 ADD SWAP5 POP POP POP PUSH1 0x20 DUP2 ADD SWAP1 POP PUSH2 0xFBB JUMP JUMPDEST POP POP POP SWAP4 SWAP3 POP POP POP JUMP JUMPDEST PUSH0 DUP3 PUSH1 0x1F DUP4 ADD SLT PUSH2 0x101E JUMPI PUSH2 0x101D PUSH2 0xE29 JUMP JUMPDEST JUMPDEST DUP2 CALLDATALOAD PUSH2 0x102E DUP5 DUP3 PUSH1 0x20 DUP7 ADD PUSH2 0xF84 JUMP JUMPDEST SWAP2 POP POP SWAP3 SWAP2 POP POP JUMP JUMPDEST PUSH0 PUSH1 0x20 DUP3 DUP5 SUB SLT ISZERO PUSH2 0x104C JUMPI PUSH2 0x104B PUSH2 0xAB1 JUMP JUMPDEST JUMPDEST PUSH0 DUP3 ADD CALLDATALOAD PUSH8 0xFFFFFFFFFFFFFFFF DUP2 GT ISZERO PUSH2 0x1069 JUMPI PUSH2 0x1068 PUSH2 0xAB5 JUMP JUMPDEST JUMPDEST PUSH2 0x1075 DUP5 DUP3 DUP6 ADD PUSH2 0x100A JUMP JUMPDEST SWAP2 POP POP SWAP3 SWAP2 POP POP JUMP JUMPDEST PUSH32 0x566F74696E67206973206E6F7420616374697665000000000000000000000000 PUSH0 DUP3 ADD MSTORE POP JUMP JUMPDEST PUSH0 PUSH2 0x10B2 PUSH1 0x14 DUP4 PUSH2 0xCD3 JUMP JUMPDEST SWAP2 POP PUSH2 0x10BD DUP3 PUSH2 0x107E JUMP JUMPDEST PUSH1 0x20 DUP3 ADD SWAP1 POP SWAP2 SWAP1 POP JUMP JUMPDEST PUSH0 PUSH1 0x20 DUP3 ADD SWAP1 POP DUP2 DUP2 SUB PUSH0 DUP4 ADD MSTORE PUSH2 0x10DF DUP2 PUSH2 0x10A6 JUMP JUMPDEST SWAP1 POP SWAP2 SWAP1 POP JUMP JUMPDEST PUSH32 0x596F75206861766520616C726561647920766F74656400000000000000000000 PUSH0 DUP3 ADD MSTORE POP JUMP JUMPDEST PUSH0 PUSH2 0x111A PUSH1 0x16 DUP4 PUSH2 0xCD3 JUMP JUMPDEST SWAP2 POP PUSH2 0x1125 DUP3 PUSH2 0x10E6 JUMP JUMPDEST PUSH1 0x20 DUP3 ADD SWAP1 POP SWAP2 SWAP1 POP JUMP JUMPDEST PUSH0 PUSH1 0x20 DUP3 ADD SWAP1 POP DUP2 DUP2 SUB PUSH0 DUP4 ADD MSTORE PUSH2 0x1147 DUP2 PUSH2 0x110E JUMP JUMPDEST SWAP1 POP SWAP2 SWAP1 POP JUMP JUMPDEST PUSH32 0x496E76616C69642063616E64696461746520696E646578000000000000000000 PUSH0 DUP3 ADD MSTORE POP JUMP JUMPDEST PUSH0 PUSH2 0x1182 PUSH1 0x17 DUP4 PUSH2 0xCD3 JUMP JUMPDEST SWAP2 POP PUSH2 0x118D DUP3 PUSH2 0x114E JUMP JUMPDEST PUSH1 0x20 DUP3 ADD SWAP1 POP SWAP2 SWAP1 POP JUMP JUMPDEST PUSH0 PUSH1 0x20 DUP3 ADD SWAP1 POP DUP2 DUP2 SUB PUSH0 DUP4 ADD MSTORE PUSH2 0x11AF DUP2 PUSH2 0x1176 JUMP JUMPDEST SWAP1 POP SWAP2 SWAP1 POP JUMP JUMPDEST PUSH32 0x4E487B7100000000000000000000000000000000000000000000000000000000 PUSH0 MSTORE PUSH1 0x32 PUSH1 0x4 MSTORE PUSH1 0x24 PUSH0 REVERT JUMPDEST PUSH32 0x4E487B7100000000000000000000000000000000000000000000000000000000 PUSH0 MSTORE PUSH1 0x11 PUSH1 0x4 MSTORE PUSH1 0x24 PUSH0 REVERT JUMPDEST PUSH0 PUSH2 0x121A DUP3 PUSH2 0xAB9 JUMP JUMPDEST SWAP2 POP PUSH32 0xFFFFFFFFFFFFFFFFFFFFFFFFFFFFFFFFFFFFFFFFFFFFFFFFFFFFFFFFFFFFFFFF DUP3 SUB PUSH2 0x124C JUMPI PUSH2 0x124B PUSH2 0x11E3 JUMP JUMPDEST JUMPDEST PUSH1 0x1 DUP3 ADD SWAP1 POP SWAP2 SWAP1 POP JUMP JUMPDEST PUSH32 0x4E487B7100000000000000000000000000000000000000000000000000000000 PUSH0 MSTORE PUSH1 0x22 PUSH1 0x4 MSTORE PUSH1 0x24 PUSH0 REVERT JUMPDEST PUSH0 PUSH1 0x2 DUP3 DIV SWAP1 POP PUSH1 0x1 DUP3 AND DUP1 PUSH2 0x129B JUMPI PUSH1 0x7F DUP3 AND SWAP2 POP JUMPDEST PUSH1 0x20 DUP3 LT DUP2 SUB PUSH2 0x12AE JUMPI PUSH2 0x12AD PUSH2 0x1257 JUMP JUMPDEST JUMPDEST POP SWAP2 SWAP1 POP JUMP JUMPDEST PUSH0 PUSH2 0x12BE DUP3 PUSH2 0xAB9 JUMP JUMPDEST SWAP2 POP PUSH2 0x12C9 DUP4 PUSH2 0xAB9 JUMP JUMPDEST SWAP3 POP DUP3 DUP3 SUB SWAP1 POP DUP2 DUP2 GT ISZERO PUSH2 0x12E1 JUMPI PUSH2 0x12E0 PUSH2 0x11E3 JUMP JUMPDEST JUMPDEST SWAP3 SWAP2 POP POP JUMP JUMPDEST PUSH0 PUSH2 0x12F1 DUP3 PUSH2 0xAB9 JUMP JUMPDEST SWAP2 POP PUSH2 0x12FC DUP4 PUSH2 0xAB9 JUMP JUMPDEST SWAP3 POP DUP3 DUP3 ADD SWAP1 POP DUP1 DUP3 GT ISZERO PUSH2 0x1314 JUMPI PUSH2 0x1313 PUSH2 0x11E3 JUMP JUMPDEST JUMPDEST SWAP3 SWAP2 POP POP JUMP JUMPDEST PUSH0 DUP2 SLOAD SWAP1 POP PUSH2 0x1328 DUP2 PUSH2 0x1284 JUMP JUMPDEST SWAP1 POP SWAP2 SWAP1 POP JUMP JUMPDEST PUSH0 DUP2 SWAP1 POP DUP2 PUSH0 MSTORE PUSH1 0x20 PUSH0 KECCAK256 SWAP1 POP SWAP2 SWAP1 POP JUMP JUMPDEST PUSH0 PUSH1 0x20 PUSH1 0x1F DUP4 ADD DIV SWAP1 POP SWAP2 SWAP1 POP JUMP JUMPDEST PUSH0 DUP3 DUP3 SHL SWAP1 POP SWAP3 SWAP2 POP POP JUMP JUMPDEST PUSH0 PUSH1 0x8 DUP4 MUL PUSH2 0x138B PUSH32 0xFFFFFFFFFFFFFFFFFFFFFFFFFFFFFFFFFFFFFFFFFFFFFFFFFFFFFFFFFFFFFFFF DUP3 PUSH2 0x1350 JUMP JUMPDEST PUSH2 0x1395 DUP7 DUP4 PUSH2 0x1350 JUMP JUMPDEST SWAP6 POP DUP1 NOT DUP5 AND SWAP4 POP DUP1 DUP7 AND DUP5 OR SWAP3 POP POP POP SWAP4 SWAP3 POP POP POP JUMP JUMPDEST PUSH0 DUP2 SWAP1 POP SWAP2 SWAP1 POP JUMP JUMPDEST PUSH0 PUSH2 0x13D0 PUSH2 0x13CB PUSH2 0x13C6 DUP5 PUSH2 0xAB9 JUMP JUMPDEST PUSH2 0x13AD JUMP JUMPDEST PUSH2 0xAB9 JUMP JUMPDEST SWAP1 POP SWAP2 SWAP1 POP JUMP JUMPDEST PUSH0 DUP2 SWAP1 POP SWAP2 SWAP1 POP JUMP JUMPDEST PUSH2 0x13E9 DUP4 PUSH2 0x13B6 JUMP JUMPDEST PUSH2 0x13FD PUSH2 0x13F5 DUP3 PUSH2 0x13D7 JUMP JUMPDEST DUP5 DUP5 SLOAD PUSH2 0x135C JUMP JUMPDEST DUP3 SSTORE POP POP POP POP JUMP JUMPDEST PUSH0 PUSH0 SWAP1 POP SWAP1 JUMP JUMPDEST PUSH2 0x1414 PUSH2 0x1405 JUMP JUMPDEST PUSH2 0x141F DUP2 DUP5 DUP5 PUSH2 0x13E0 JUMP JUMPDEST POP POP POP JUMP JUMPDEST JUMPDEST DUP2 DUP2 LT ISZERO PUSH2 0x1442 JUMPI PUSH2 0x1437 PUSH0 DUP3 PUSH2 0x140C JUMP JUMPDEST PUSH1 0x1 DUP2 ADD SWAP1 POP PUSH2 0x1425 JUMP JUMPDEST POP POP JUMP JUMPDEST PUSH1 0x1F DUP3 GT ISZERO PUSH2 0x1487 JUMPI PUSH2 0x1458 DUP2 PUSH2 0x132F JUMP JUMPDEST PUSH2 0x1461 DUP5 PUSH2 0x1341 JUMP JUMPDEST DUP2 ADD PUSH1 0x20 DUP6 LT ISZERO PUSH2 0x1470 JUMPI DUP2 SWAP1 POP JUMPDEST PUSH2 0x1484 PUSH2 0x147C DUP6 PUSH2 0x1341 JUMP JUMPDEST DUP4 ADD DUP3 PUSH2 0x1424 JUMP JUMPDEST POP POP JUMPDEST POP POP POP JUMP JUMPDEST PUSH0 DUP3 DUP3 SHR SWAP1 POP SWAP3 SWAP2 POP POP JUMP JUMPDEST PUSH0 PUSH2 0x14A7 PUSH0 NOT DUP5 PUSH1 0x8 MUL PUSH2 0x148C JUMP JUMPDEST NOT DUP1 DUP4 AND SWAP2 POP POP SWAP3 SWAP2 POP POP JUMP JUMPDEST PUSH0 PUSH2 0x14BF DUP4 DUP4 PUSH2 0x1498 JUMP JUMPDEST SWAP2 POP DUP3 PUSH1 0x2 MUL DUP3 OR SWAP1 POP SWAP3 SWAP2 POP POP JUMP JUMPDEST DUP2 DUP2 SUB PUSH2 0x14DD JUMPI POP POP PUSH2 0x15B2 JUMP JUMPDEST PUSH2 0x14E6 DUP3 PUSH2 0x131A JUMP JUMPDEST PUSH8 0xFFFFFFFFFFFFFFFF DUP2 GT ISZERO PUSH2 0x14FF JUMPI PUSH2 0x14FE PUSH2 0xE2D JUMP JUMPDEST JUMPDEST PUSH2 0x1509 DUP3 SLOAD PUSH2 0x1284 JUMP JUMPDEST PUSH2 0x1514 DUP3 DUP3 DUP6 PUSH2 0x1446 JUMP JUMPDEST PUSH0 PUSH1 0x1F DUP4 GT PUSH1 0x1 DUP2 EQ PUSH2 0x1541 JUMPI PUSH0 DUP5 ISZERO PUSH2 0x152F JUMPI DUP3 DUP8 ADD SLOAD SWAP1 POP JUMPDEST PUSH2 0x1539 DUP6 DUP3 PUSH2 0x14B4 JUMP JUMPDEST DUP7 SSTORE POP PUSH2 0x15AB JUMP JUMPDEST PUSH1 0x1F NOT DUP5 AND PUSH2 0x154F DUP8 PUSH2 0x132F JUMP JUMPDEST SWAP7 POP PUSH2 0x155A DUP7 PUSH2 0x132F JUMP JUMPDEST PUSH0 JUMPDEST DUP3 DUP2 LT ISZERO PUSH2 0x1581 JUMPI DUP5 DUP10 ADD SLOAD DUP3 SSTORE PUSH1 0x1 DUP3 ADD SWAP2 POP PUSH1 0x1 DUP6 ADD SWAP5 POP PUSH1 0x20 DUP2 ADD SWAP1 POP PUSH2 0x155C JUMP JUMPDEST DUP7 DUP4 LT ISZERO PUSH2 0x159E JUMPI DUP5 DUP10 ADD SLOAD PUSH2 0x159A PUSH1 0x1F DUP10 AND DUP3 PUSH2 0x1498 JUMP JUMPDEST DUP4 SSTORE POP JUMPDEST PUSH1 0x1 PUSH1 0x2 DUP9 MUL ADD DUP9 SSTORE POP POP POP JUMPDEST POP POP POP POP POP POP JUMPDEST JUMP JUMPDEST PUSH32 0x4E487B7100000000000000000000000000000000000000000000000000000000 PUSH0 MSTORE PUSH1 0x31 PUSH1 0x4 MSTORE PUSH1 0x24 PUSH0 REVERT JUMPDEST PUSH0 PUSH2 0x15EB DUP3 PUSH2 0xAB9 JUMP JUMPDEST SWAP2 POP PUSH2 0x15F6 DUP4 PUSH2 0xAB9 JUMP JUMPDEST SWAP3 POP DUP3 DUP3 MUL PUSH2 0x1604 DUP2 PUSH2 0xAB9 JUMP JUMPDEST SWAP2 POP DUP3 DUP3 DIV DUP5 EQ DUP4 ISZERO OR PUSH2 0x161B JUMPI PUSH2 0x161A PUSH2 0x11E3 JUMP JUMPDEST JUMPDEST POP SWAP3 SWAP2 POP POP JUMP JUMPDEST PUSH32 0x566F74696E672068617320537461727465640000000000000000000000000000 PUSH0 DUP3 ADD MSTORE POP JUMP JUMPDEST PUSH0 PUSH2 0x1656 PUSH1 0x12 DUP4 PUSH2 0xCD3 JUMP JUMPDEST SWAP2 POP PUSH2 0x1661 DUP3 PUSH2 0x1622 JUMP JUMPDEST PUSH1 0x20 DUP3 ADD SWAP1 POP SWAP2 SWAP1 POP JUMP JUMPDEST PUSH0 PUSH1 0x20 DUP3 ADD SWAP1 POP DUP2 DUP2 SUB PUSH0 DUP4 ADD MSTORE PUSH2 0x1683 DUP2 PUSH2 0x164A JUMP JUMPDEST SWAP1 POP SWAP2 SWAP1 POP JUMP JUMPDEST PUSH2 0x1693 DUP3 PUSH2 0xB40 JUMP JUMPDEST PUSH8 0xFFFFFFFFFFFFFFFF DUP2 GT ISZERO PUSH2 0x16AC JUMPI PUSH2 0x16AB PUSH2 0xE2D JUMP JUMPDEST JUMPDEST PUSH2 0x16B6 DUP3 SLOAD PUSH2 0x1284 JUMP JUMPDEST PUSH2 0x16C1 DUP3 DUP3 DUP6 PUSH2 0x1446 JUMP JUMPDEST PUSH0 PUSH1 0x20 SWAP1 POP PUSH1 0x1F DUP4 GT PUSH1 0x1 DUP2 EQ PUSH2 0x16F2 JUMPI PUSH0 DUP5 ISZERO PUSH2 0x16E0 JUMPI DUP3 DUP8 ADD MLOAD SWAP1 POP JUMPDEST PUSH2 0x16EA DUP6 DUP3 PUSH2 0x14B4 JUMP JUMPDEST DUP7 SSTORE POP PUSH2 0x1751 JUMP JUMPDEST PUSH1 0x1F NOT DUP5 AND PUSH2 0x1700 DUP7 PUSH2 0x132F JUMP JUMPDEST PUSH0 JUMPDEST DUP3 DUP2 LT ISZERO PUSH2 0x1727 JUMPI DUP5 DUP10 ADD MLOAD DUP3 SSTORE PUSH1 0x1 DUP3 ADD SWAP2 POP PUSH1 0x20 DUP6 ADD SWAP5 POP PUSH1 0x20 DUP2 ADD SWAP1 POP PUSH2 0x1702 JUMP JUMPDEST DUP7 DUP4 LT ISZERO PUSH2 0x1744 JUMPI DUP5 DUP10 ADD MLOAD PUSH2 0x1740 PUSH1 0x1F DUP10 AND DUP3 PUSH2 0x1498 JUMP JUMPDEST DUP4 SSTORE POP JUMPDEST PUSH1 0x1 PUSH1 0x2 DUP9 MUL ADD DUP9 SSTORE POP POP POP JUMPDEST POP POP POP POP POP POP JUMP INVALID LOG2 PUSH5 0x6970667358 0x22 SLT KECCAK256 0x2C CALLVALUE RETURNDATASIZE 0xC4 0x4C SWAP4 DUP6 MSTORE DUP6 0x2F SDIV DUP13 DUP1 PUSH7 0xCE55D78DF6140D 0xEB SHL EXTSTATICCALL 0xA6 0xE 0x27 SELFBALANCE 0xD9 EOFCREATE 0x56 SLOAD PUSH5 0x736F6C6343 STOP ADDMOD 0x1E STOP CALLER "
				},
				"gasEstimates": {
					"creation": {
						"codeDepositCost": "1206200",
						"executionCost": "infinite",
						"totalCost": "infinite"
					},
					"external": {
						"addCandidates(string[])": "infinite",
						"candidates(uint256)": "infinite",
						"getCandidates()": "infinite",
						"getRemainingTime()": "infinite",
						"owner()": "2581",
						"removeCandidate(uint256)": "infinite",
						"renounceOwnership()": "infinite",
						"startVoting(uint256)": "infinite",
						"transferOwnership(address)": "infinite",
						"vote(uint256)": "infinite",
						"voters(address)": "2855",
						"votingEnd()": "2470",
						"votingStart()": "2492"
					}
				},
				"methodIdentifiers": {
					"addCandidates(string[])": "a999e562",
					"candidates(uint256)": "3477ee2e",
					"getCandidates()": "06a49fce",
					"getRemainingTime()": "efb98bcf",
					"owner()": "8da5cb5b",
					"removeCandidate(uint256)": "09e9d7e2",
					"renounceOwnership()": "715018a6",
					"startVoting(uint256)": "3d2f5bda",
					"transferOwnership(address)": "f2fde38b",
					"vote(uint256)": "0121b93f",
					"voters(address)": "a3ec138d",
					"votingEnd()": "85a38635",
					"votingStart()": "101158af"
				}
			},
			"storageLayout": {
				"storage": [
					{
						"astId": 8,
						"contract": "VotingApplication/src/Contract.sol:Voting",
						"label": "_owner",
						"offset": 0,
						"slot": "0",
						"type": "t_address"
					},
					{
						"astId": 191,
						"contract": "VotingApplication/src/Contract.sol:Voting",
						"label": "candidates",
						"offset": 0,
						"slot": "1",
						"type": "t_array(t_struct(Candidate)187_storage)dyn_storage"
					},
					{
						"astId": 193,
						"contract": "VotingApplication/src/Contract.sol:Voting",
						"label": "contractOwner",
						"offset": 0,
						"slot": "2",
						"type": "t_address"
					},
					{
						"astId": 197,
						"contract": "VotingApplication/src/Contract.sol:Voting",
						"label": "voters",
						"offset": 0,
						"slot": "3",
						"type": "t_mapping(t_address,t_bool)"
					},
					{
						"astId": 199,
						"contract": "VotingApplication/src/Contract.sol:Voting",
						"label": "votingStart",
						"offset": 0,
						"slot": "4",
						"type": "t_uint256"
					},
					{
						"astId": 201,
						"contract": "VotingApplication/src/Contract.sol:Voting",
						"label": "votingEnd",
						"offset": 0,
						"slot": "5",
						"type": "t_uint256"
					}
				],
				"types": {
					"t_address": {
						"encoding": "inplace",
						"label": "address",
						"numberOfBytes": "20"
					},
					"t_array(t_struct(Candidate)187_storage)dyn_storage": {
						"base": "t_struct(Candidate)187_storage",
						"encoding": "dynamic_array",
						"label": "struct Voting.Candidate[]",
						"numberOfBytes": "32"
					},
					"t_bool": {
						"encoding": "inplace",
						"label": "bool",
						"numberOfBytes": "1"
					},
					"t_mapping(t_address,t_bool)": {
						"encoding": "mapping",
						"key": "t_address",
						"label": "mapping(address => bool)",
						"numberOfBytes": "32",
						"value": "t_bool"
					},
					"t_string_storage": {
						"encoding": "bytes",
						"label": "string",
						"numberOfBytes": "32"
					},
					"t_struct(Candidate)187_storage": {
						"encoding": "inplace",
						"label": "struct Voting.Candidate",
						"members": [
							{
								"astId": 184,
								"contract": "VotingApplication/src/Contract.sol:Voting",
								"label": "name",
								"offset": 0,
								"slot": "0",
								"type": "t_string_storage"
							},
							{
								"astId": 186,
								"contract": "VotingApplication/src/Contract.sol:Voting",
								"label": "voteCount",
								"offset": 0,
								"slot": "1",
								"type": "t_uint256"
							}
						],
						"numberOfBytes": "64"
					},
					"t_uint256": {
						"encoding": "inplace",
						"label": "uint256",
						"numberOfBytes": "32"
					}
				}
			},
			"userdoc": {
				"kind": "user",
				"methods": {},
				"version": 1
			}
		}
	}
}